{
  "contractName": "AuctionHouse",
  "abi": [
    {
      "constant": true,
      "inputs": [
        {
          "name": "interfaceID",
          "type": "bytes4"
        }
      ],
      "name": "supportsInterface",
      "outputs": [
        {
          "name": "",
          "type": "bool"
        }
      ],
      "payable": false,
      "stateMutability": "view",
      "type": "function",
      "signature": "0x01ffc9a7"
    },
    {
      "constant": true,
      "inputs": [
        {
          "name": "_id",
          "type": "uint256"
        }
      ],
      "name": "getApproved",
      "outputs": [
        {
          "name": "",
          "type": "address"
        }
      ],
      "payable": false,
      "stateMutability": "view",
      "type": "function",
      "signature": "0x081812fc"
    },
    {
      "constant": false,
      "inputs": [
        {
          "name": "_to",
          "type": "address"
        },
        {
          "name": "_id",
          "type": "uint256"
        }
      ],
      "name": "approve",
      "outputs": [],
      "payable": true,
      "stateMutability": "payable",
      "type": "function",
      "signature": "0x095ea7b3"
    },
    {
      "constant": true,
      "inputs": [],
      "name": "getStatInformation",
      "outputs": [
        {
          "name": "",
          "type": "uint8[4][6]"
        }
      ],
      "payable": false,
      "stateMutability": "view",
      "type": "function",
      "signature": "0x0cd904e6"
    },
    {
      "constant": false,
      "inputs": [
        {
          "name": "",
          "type": "address"
        },
        {
          "name": "",
          "type": "address"
        },
        {
          "name": "",
          "type": "uint256"
        },
        {
          "name": "",
          "type": "bytes"
        }
      ],
      "name": "onERC721Received",
      "outputs": [
        {
          "name": "",
          "type": "bytes4"
        }
      ],
      "payable": false,
      "stateMutability": "nonpayable",
      "type": "function",
      "signature": "0x150b7a02"
    },
    {
      "constant": true,
      "inputs": [],
      "name": "totalSupply",
      "outputs": [
        {
          "name": "",
          "type": "uint256"
        }
      ],
      "payable": false,
      "stateMutability": "view",
      "type": "function",
      "signature": "0x18160ddd"
    },
    {
      "constant": false,
      "inputs": [
        {
          "name": "_from",
          "type": "address"
        },
        {
          "name": "_to",
          "type": "address"
        },
        {
          "name": "_id",
          "type": "uint256"
        }
      ],
      "name": "transferFrom",
      "outputs": [],
      "payable": true,
      "stateMutability": "payable",
      "type": "function",
      "signature": "0x23b872dd"
    },
    {
      "constant": false,
      "inputs": [
        {
          "name": "_account",
          "type": "address"
        },
        {
          "name": "_id1",
          "type": "uint256"
        },
        {
          "name": "_id2",
          "type": "uint256"
        },
        {
          "name": "_id3",
          "type": "uint256"
        }
      ],
      "name": "upgradeItems",
      "outputs": [],
      "payable": false,
      "stateMutability": "nonpayable",
      "type": "function",
      "signature": "0x2670c923"
    },
    {
      "constant": false,
      "inputs": [
        {
          "name": "_from",
          "type": "address"
        },
        {
          "name": "_to",
          "type": "address"
        },
        {
          "name": "_id",
          "type": "uint256"
        }
      ],
      "name": "safeTransferFrom",
      "outputs": [],
      "payable": true,
      "stateMutability": "payable",
      "type": "function",
      "signature": "0x42842e0e"
    },
    {
      "constant": true,
      "inputs": [
        {
          "name": "_owner",
          "type": "address"
        },
        {
          "name": "_index",
          "type": "uint256"
        }
      ],
      "name": "getItemByIndex",
      "outputs": [
        {
          "name": "id",
          "type": "uint256"
        },
        {
          "name": "equipmentType",
          "type": "uint256"
        },
        {
          "name": "img",
          "type": "uint16"
        },
        {
          "name": "stat1",
          "type": "uint16"
        },
        {
          "name": "stat2",
          "type": "uint16"
        },
        {
          "name": "rarity",
          "type": "uint8"
        },
        {
          "name": "ownerAddress",
          "type": "address"
        },
        {
          "name": "onAuction",
          "type": "bool"
        }
      ],
      "payable": false,
      "stateMutability": "view",
      "type": "function",
      "signature": "0x5ee9221e"
    },
    {
      "constant": true,
      "inputs": [
        {
          "name": "_id",
          "type": "uint256"
        }
      ],
      "name": "ownerOf",
      "outputs": [
        {
          "name": "",
          "type": "address"
        }
      ],
      "payable": false,
      "stateMutability": "view",
      "type": "function",
      "signature": "0x6352211e"
    },
    {
      "constant": true,
      "inputs": [
        {
          "name": "_account",
          "type": "address"
        }
      ],
      "name": "balanceOf",
      "outputs": [
        {
          "name": "",
          "type": "uint256"
        }
      ],
      "payable": false,
      "stateMutability": "view",
      "type": "function",
      "signature": "0x70a08231"
    },
    {
      "constant": false,
      "inputs": [
        {
          "name": "_equipmentType",
          "type": "uint256"
        },
        {
          "name": "_img",
          "type": "uint16"
        },
        {
          "name": "_stat1",
          "type": "uint16"
        },
        {
          "name": "_stat2",
          "type": "uint16"
        },
        {
          "name": "_rarity",
          "type": "uint8"
        },
        {
          "name": "_owner",
          "type": "address"
        }
      ],
      "name": "createItem",
      "outputs": [
        {
          "name": "",
          "type": "uint256"
        }
      ],
      "payable": false,
      "stateMutability": "nonpayable",
      "type": "function",
      "signature": "0x838624d1"
    },
    {
      "constant": true,
      "inputs": [],
      "name": "numberOfItems",
      "outputs": [
        {
          "name": "",
          "type": "uint256"
        }
      ],
      "payable": false,
      "stateMutability": "view",
      "type": "function",
      "signature": "0x842296d4"
    },
    {
      "constant": false,
      "inputs": [
        {
          "name": "_operator",
          "type": "address"
        },
        {
          "name": "_approved",
          "type": "bool"
        }
      ],
      "name": "setApprovalForAll",
      "outputs": [],
      "payable": false,
      "stateMutability": "nonpayable",
      "type": "function",
      "signature": "0xa22cb465"
    },
    {
      "constant": false,
      "inputs": [
        {
          "name": "_from",
          "type": "address"
        },
        {
          "name": "_to",
          "type": "address"
        },
        {
          "name": "_id",
          "type": "uint256"
        },
        {
          "name": "data",
          "type": "bytes"
        }
      ],
      "name": "safeTransferFrom",
      "outputs": [],
      "payable": true,
      "stateMutability": "payable",
      "type": "function",
      "signature": "0xb88d4fde"
    },
    {
      "constant": false,
      "inputs": [
        {
          "name": "_owner",
          "type": "address"
        },
        {
          "name": "_id1",
          "type": "uint256"
        },
        {
          "name": "_id2",
          "type": "uint256"
        },
        {
          "name": "_id3",
          "type": "uint256"
        }
      ],
      "name": "upgrade",
      "outputs": [],
      "payable": false,
      "stateMutability": "nonpayable",
      "type": "function",
      "signature": "0xd5b4688c"
    },
    {
      "constant": true,
      "inputs": [
        {
          "name": "_owner",
          "type": "address"
        },
        {
          "name": "_id",
          "type": "uint256"
        }
      ],
      "name": "getItemByID",
      "outputs": [
        {
          "name": "id",
          "type": "uint256"
        },
        {
          "name": "equipmentType",
          "type": "uint256"
        },
        {
          "name": "img",
          "type": "uint16"
        },
        {
          "name": "stat1",
          "type": "uint16"
        },
        {
          "name": "stat2",
          "type": "uint16"
        },
        {
          "name": "rarity",
          "type": "uint8"
        },
        {
          "name": "ownerAddress",
          "type": "address"
        },
        {
          "name": "onAuction",
          "type": "bool"
        }
      ],
      "payable": false,
      "stateMutability": "view",
      "type": "function",
      "signature": "0xd662dde4"
    },
    {
      "constant": true,
      "inputs": [],
      "name": "ids",
      "outputs": [
        {
          "name": "",
          "type": "uint256"
        }
      ],
      "payable": false,
      "stateMutability": "view",
      "type": "function",
      "signature": "0xe7657e15"
    },
    {
      "constant": true,
      "inputs": [
        {
          "name": "_owner",
          "type": "address"
        },
        {
          "name": "_operator",
          "type": "address"
        }
      ],
      "name": "isApprovedForAll",
      "outputs": [
        {
          "name": "",
          "type": "bool"
        }
      ],
      "payable": false,
      "stateMutability": "view",
      "type": "function",
      "signature": "0xe985e9c5"
    },
    {
      "constant": true,
      "inputs": [
        {
          "name": "",
          "type": "uint256"
        }
      ],
      "name": "itemApprovals",
      "outputs": [
        {
          "name": "",
          "type": "address"
        }
      ],
      "payable": false,
      "stateMutability": "view",
      "type": "function",
      "signature": "0xf39e70ba"
    },
    {
      "anonymous": false,
      "inputs": [
        {
          "indexed": false,
          "name": "id",
          "type": "uint256"
        },
        {
          "indexed": false,
          "name": "price",
          "type": "uint128"
        },
        {
          "indexed": false,
          "name": "expiration",
          "type": "uint64"
        }
      ],
      "name": "AuctionCreated",
      "type": "event",
      "signature": "0x6fd490b931712b637c655f609b6744971d6902d00d0cd2cd545892f57ea2c0fd"
    },
    {
      "anonymous": false,
      "inputs": [
        {
          "indexed": false,
          "name": "id",
          "type": "uint256"
        },
        {
          "indexed": false,
          "name": "price",
          "type": "uint256"
        },
        {
          "indexed": false,
          "name": "seller",
          "type": "address"
        },
        {
          "indexed": false,
          "name": "buyer",
          "type": "address"
        }
      ],
      "name": "AuctionPurchased",
      "type": "event",
      "signature": "0x852371ac0906da26020ed6fae7fdd24e80c6083b979820cf4dee3a856fed8538"
    },
    {
      "anonymous": false,
      "inputs": [
        {
          "indexed": false,
          "name": "id",
          "type": "uint256"
        },
        {
          "indexed": false,
          "name": "price",
          "type": "uint256"
        }
      ],
      "name": "AuctionEnded",
      "type": "event",
      "signature": "0xe536ac546f86787f3ea4069f79235c6b5a681e87d051300a3ed19a6ebb0db71c"
    },
    {
      "anonymous": false,
      "inputs": [
        {
          "indexed": false,
          "name": "owner",
          "type": "address"
        },
        {
          "indexed": false,
          "name": "id",
          "type": "uint256"
        }
      ],
      "name": "Upgrade",
      "type": "event",
      "signature": "0x318d2be9b9a887c0d168715bd2f44017dafbb3360b14cdcc2a8c0086b4e2d151"
    },
    {
      "anonymous": false,
      "inputs": [
        {
          "indexed": true,
          "name": "_from",
          "type": "address"
        },
        {
          "indexed": true,
          "name": "_to",
          "type": "address"
        },
        {
          "indexed": true,
          "name": "_tokenId",
          "type": "uint256"
        }
      ],
      "name": "Transfer",
      "type": "event",
      "signature": "0xddf252ad1be2c89b69c2b068fc378daa952ba7f163c4a11628f55a4df523b3ef"
    },
    {
      "anonymous": false,
      "inputs": [
        {
          "indexed": true,
          "name": "_owner",
          "type": "address"
        },
        {
          "indexed": true,
          "name": "_approved",
          "type": "address"
        },
        {
          "indexed": true,
          "name": "_tokenId",
          "type": "uint256"
        }
      ],
      "name": "Approval",
      "type": "event",
      "signature": "0x8c5be1e5ebec7d5bd14f71427d1e84f3dd0314c0f7b2291e5b200ac8c7c3b925"
    },
    {
      "anonymous": false,
      "inputs": [
        {
          "indexed": true,
          "name": "_owner",
          "type": "address"
        },
        {
          "indexed": true,
          "name": "_operator",
          "type": "address"
        },
        {
          "indexed": false,
          "name": "_approved",
          "type": "bool"
        }
      ],
      "name": "ApprovalForAll",
      "type": "event",
      "signature": "0x17307eab39ab6107e8899845ad3d59bd9653f200f220920489ca2b5937696c31"
    },
    {
      "constant": false,
      "inputs": [
        {
          "name": "_id",
          "type": "uint256"
        },
        {
          "name": "_price",
          "type": "uint256"
        },
        {
          "name": "_duration",
          "type": "uint256"
        },
        {
          "name": "_seller",
          "type": "address"
        }
      ],
      "name": "startAuction",
      "outputs": [],
      "payable": false,
      "stateMutability": "nonpayable",
      "type": "function",
      "signature": "0x89afd9b0"
    },
    {
      "constant": false,
      "inputs": [
        {
          "name": "_id",
          "type": "uint256"
        }
      ],
      "name": "cancelAuction",
      "outputs": [],
      "payable": false,
      "stateMutability": "nonpayable",
      "type": "function",
      "signature": "0x96b5a755"
    },
    {
      "constant": false,
      "inputs": [
        {
          "name": "_id",
          "type": "uint256"
        }
      ],
      "name": "purchaseAuction",
      "outputs": [],
      "payable": true,
      "stateMutability": "payable",
      "type": "function",
      "signature": "0x45a8bc71"
    },
    {
      "constant": true,
      "inputs": [
        {
          "name": "_index",
          "type": "uint256"
        }
      ],
      "name": "getAuctionByIndex",
      "outputs": [
        {
          "name": "id",
          "type": "uint256"
        },
        {
          "name": "price",
          "type": "uint128"
        },
        {
          "name": "seller",
          "type": "address"
        },
        {
          "name": "ended",
          "type": "bool"
        }
      ],
      "payable": false,
      "stateMutability": "view",
      "type": "function",
      "signature": "0xb1ddf52f"
    },
    {
      "constant": true,
      "inputs": [
        {
          "name": "_id",
          "type": "uint256"
        }
      ],
      "name": "getAuctionInfo",
      "outputs": [
        {
          "name": "id",
          "type": "uint256"
        },
        {
          "name": "price",
          "type": "uint128"
        },
        {
          "name": "seller",
          "type": "address"
        },
        {
          "name": "ended",
          "type": "bool"
        }
      ],
      "payable": false,
      "stateMutability": "view",
      "type": "function",
      "signature": "0xfc3fc4ed"
    },
    {
      "constant": true,
      "inputs": [],
      "name": "numberOfAuctions",
      "outputs": [
        {
          "name": "",
          "type": "uint256"
        }
      ],
      "payable": false,
      "stateMutability": "view",
      "type": "function",
      "signature": "0x50d9d472"
    }
  ],
  "bytecode": "0x608060405260c060405190810160405280608060405190810160405280603260ff168152602001600f60ff168152602001606460ff168152602001601e60ff168152508152602001608060405190810160405280603260ff168152602001600560ff168152602001609660ff168152602001600a60ff168152508152602001608060405190810160405280600560ff168152602001600f60ff168152602001600a60ff168152602001601e60ff168152508152602001608060405190810160405280604660ff168152602001600f60ff168152602001603260ff168152602001601460ff168152508152602001608060405190810160405280609660ff168152602001600860ff16815260200160c860ff168152602001601460ff168152508152602001608060405190810160405280606460ff168152602001600a60ff16815260200160fa60ff168152602001602360ff1681525081525060009060066200016a92919062000577565b506001600e600060405180807f737570706f727473496e74657266616365286279746573342900000000000000815250601901905060405180910390207bffffffffffffffffffffffffffffffffffffffffffffffffffffffff19167bffffffffffffffffffffffffffffffffffffffffffffffffffffffff1916815260200190815260200160002060006101000a81548160ff0219169083151502179055506001600e600060405180807f746f74616c537570706c79282900000000000000000000000000000000000000815250600d019050604051809103902060405180807f6973417070726f766564466f72416c6c28616464726573732c6164647265737381526020017f29000000000000000000000000000000000000000000000000000000000000008152506021019050604051809103902060405180807f676574417070726f7665642875696e74323536000000000000000000000000008152506013019050604051809103902060405180807f736574417070726f76616c466f72416c6c28616464726573732c626f6f6c0000815250601e019050604051809103902060405180807f617070726f766528616464726573732c75696e743235360000000000000000008152506017019050604051809103902060405180807f7472616e7366657246726f6d28616464726573732c616464726573732c75696e81526020017f74323536000000000000000000000000000000000000000000000000000000008152506024019050604051809103902060405180807f736166655472616e7366657246726f6d28616464726573732c6164647265737381526020017f2c75696e743235360000000000000000000000000000000000000000000000008152506028019050604051809103902060405180807f736166655472616e7366657246726f6d28616464726573732c6164647265737381526020017f2c75696e743235362c6279746573000000000000000000000000000000000000815250602e019050604051809103902060405180807f6f776e65724f662875696e7432353629000000000000000000000000000000008152506010019050604051809103902060405180807f62616c616e63654f662861646472657373290000000000000000000000000000815250601201905060405180910390201818181818181818187bffffffffffffffffffffffffffffffffffffffffffffffffffffffff19167bffffffffffffffffffffffffffffffffffffffffffffffffffffffff1916815260200190815260200160002060006101000a81548160ff02191690831515021790555033600f60006101000a81548173ffffffffffffffffffffffffffffffffffffffff021916908373ffffffffffffffffffffffffffffffffffffffff160217905550620006d8565b8260068101928215620005b9579160200282015b82811115620005b857825182906004620005a7929190620005cc565b50916020019190600101906200058b565b5b509050620005c891906200066d565b5090565b826004601f016020900481019282156200065a5791602002820160005b838211156200062957835183826101000a81548160ff021916908360ff1602179055509260200192600101602081600001049283019260010302620005e9565b8015620006585782816101000a81549060ff021916905560010160208160000104928301926001030262000629565b505b5090506200066991906200069e565b5090565b6200069b91905b808211156200069757600081816200068d9190620006d1565b5060010162000674565b5090565b90565b620006ce91905b80821115620006ca57600081816101000a81549060ff021916905550600101620006a5565b5090565b90565b5060009055565b61594e80620006e86000396000f3fe60806040526004361061015f576000357c0100000000000000000000000000000000000000000000000000000000900463ffffffff16806301ffc9a714610164578063081812fc146101d6578063095ea7b3146102515780630cd904e61461029f578063150b7a021461031557806318160ddd1461043757806323b872dd146104625780632670c923146104d057806342842e0e1461053f57806345a8bc71146105ad57806350d9d472146105db5780635ee9221e146106065780636352211e146106f457806370a082311461076f578063838624d1146107d4578063842296d41461087a57806389afd9b0146108a557806396b5a75514610914578063a22cb4651461094f578063b1ddf52f146109ac578063b88d4fde14610a64578063d5b4688c14610b27578063d662dde414610b96578063e7657e1514610c84578063e985e9c514610caf578063f39e70ba14610d38578063fc3fc4ed14610db3575b600080fd5b34801561017057600080fd5b506101bc6004803603602081101561018757600080fd5b8101908080357bffffffffffffffffffffffffffffffffffffffffffffffffffffffff19169060200190929190505050610e6b565b604051808215151515815260200191505060405180910390f35b3480156101e257600080fd5b5061020f600480360360208110156101f957600080fd5b8101908080359060200190929190505050610ed3565b604051808273ffffffffffffffffffffffffffffffffffffffff1673ffffffffffffffffffffffffffffffffffffffff16815260200191505060405180910390f35b61029d6004803603604081101561026757600080fd5b81019080803573ffffffffffffffffffffffffffffffffffffffff16906020019092919080359060200190929190505050610f8d565b005b3480156102ab57600080fd5b506102b4611207565b604051808260066000925b818410156103055782846020020151600460200280838360005b838110156102f45780820151818401526020810190506102d9565b5050505090500192600101926102bf565b9250505091505060405180910390f35b34801561032157600080fd5b506103e36004803603608081101561033857600080fd5b81019080803573ffffffffffffffffffffffffffffffffffffffff169060200190929190803573ffffffffffffffffffffffffffffffffffffffff169060200190929190803590602001909291908035906020019064010000000081111561039f57600080fd5b8201836020820111156103b157600080fd5b803590602001918460018302840111640100000000831117156103d357600080fd5b90919293919293905050506112ad565b60405180827bffffffffffffffffffffffffffffffffffffffffffffffffffffffff19167bffffffffffffffffffffffffffffffffffffffffffffffffffffffff1916815260200191505060405180910390f35b34801561044357600080fd5b5061044c611316565b6040518082815260200191505060405180910390f35b6104ce6004803603606081101561047857600080fd5b81019080803573ffffffffffffffffffffffffffffffffffffffff169060200190929190803573ffffffffffffffffffffffffffffffffffffffff16906020019092919080359060200190929190505050611320565b005b3480156104dc57600080fd5b5061053d600480360360808110156104f357600080fd5b81019080803573ffffffffffffffffffffffffffffffffffffffff1690602001909291908035906020019092919080359060200190929190803590602001909291905050506115e8565b005b6105ab6004803603606081101561055557600080fd5b81019080803573ffffffffffffffffffffffffffffffffffffffff169060200190929190803573ffffffffffffffffffffffffffffffffffffffff16906020019092919080359060200190929190505050611b49565b005b6105d9600480360360208110156105c357600080fd5b8101908080359060200190929190505050611c51565b005b3480156105e757600080fd5b506105f0611f99565b6040518082815260200191505060405180910390f35b34801561061257600080fd5b5061065f6004803603604081101561062957600080fd5b81019080803573ffffffffffffffffffffffffffffffffffffffff16906020019092919080359060200190929190505050611fa6565b604051808981526020018881526020018761ffff1661ffff1681526020018661ffff1661ffff1681526020018561ffff1661ffff1681526020018460ff1660ff1681526020018373ffffffffffffffffffffffffffffffffffffffff1673ffffffffffffffffffffffffffffffffffffffff168152602001821515151581526020019850505050505050505060405180910390f35b34801561070057600080fd5b5061072d6004803603602081101561071757600080fd5b810190808035906020019092919050505061209c565b604051808273ffffffffffffffffffffffffffffffffffffffff1673ffffffffffffffffffffffffffffffffffffffff16815260200191505060405180910390f35b34801561077b57600080fd5b506107be6004803603602081101561079257600080fd5b81019080803573ffffffffffffffffffffffffffffffffffffffff1690602001909291905050506120d9565b6040518082815260200191505060405180910390f35b3480156107e057600080fd5b50610864600480360360c08110156107f757600080fd5b8101908080359060200190929190803561ffff169060200190929190803561ffff169060200190929190803561ffff169060200190929190803560ff169060200190929190803573ffffffffffffffffffffffffffffffffffffffff169060200190929190505050612128565b6040518082815260200191505060405180910390f35b34801561088657600080fd5b5061088f6123d2565b6040518082815260200191505060405180910390f35b3480156108b157600080fd5b50610912600480360360808110156108c857600080fd5b81019080803590602001909291908035906020019092919080359060200190929190803573ffffffffffffffffffffffffffffffffffffffff1690602001909291905050506123d8565b005b34801561092057600080fd5b5061094d6004803603602081101561093757600080fd5b81019080803590602001909291905050506128b3565b005b34801561095b57600080fd5b506109aa6004803603604081101561097257600080fd5b81019080803573ffffffffffffffffffffffffffffffffffffffff169060200190929190803515159060200190929190505050612c58565b005b3480156109b857600080fd5b506109e5600480360360208110156109cf57600080fd5b8101908080359060200190929190505050612d59565b60405180858152602001846fffffffffffffffffffffffffffffffff166fffffffffffffffffffffffffffffffff1681526020018373ffffffffffffffffffffffffffffffffffffffff1673ffffffffffffffffffffffffffffffffffffffff1681526020018215151515815260200194505050505060405180910390f35b610b2560048036036080811015610a7a57600080fd5b81019080803573ffffffffffffffffffffffffffffffffffffffff169060200190929190803573ffffffffffffffffffffffffffffffffffffffff1690602001909291908035906020019092919080359060200190640100000000811115610ae157600080fd5b820183602082011115610af357600080fd5b80359060200191846001830284011164010000000083111715610b1557600080fd5b9091929391929390505050612e96565b005b348015610b3357600080fd5b50610b9460048036036080811015610b4a57600080fd5b81019080803573ffffffffffffffffffffffffffffffffffffffff169060200190929190803590602001909291908035906020019092919080359060200190929190505050613138565b005b348015610ba257600080fd5b50610bef60048036036040811015610bb957600080fd5b81019080803573ffffffffffffffffffffffffffffffffffffffff169060200190929190803590602001909291905050506139d3565b604051808981526020018881526020018761ffff1661ffff1681526020018661ffff1661ffff1681526020018561ffff1661ffff1681526020018460ff1660ff1681526020018373ffffffffffffffffffffffffffffffffffffffff1673ffffffffffffffffffffffffffffffffffffffff168152602001821515151581526020019850505050505050505060405180910390f35b348015610c9057600080fd5b50610c99613b43565b6040518082815260200191505060405180910390f35b348015610cbb57600080fd5b50610d1e60048036036040811015610cd257600080fd5b81019080803573ffffffffffffffffffffffffffffffffffffffff169060200190929190803573ffffffffffffffffffffffffffffffffffffffff169060200190929190505050613b49565b604051808215151515815260200191505060405180910390f35b348015610d4457600080fd5b50610d7160048036036020811015610d5b57600080fd5b8101908080359060200190929190505050613bdd565b604051808273ffffffffffffffffffffffffffffffffffffffff1673ffffffffffffffffffffffffffffffffffffffff16815260200191505060405180910390f35b348015610dbf57600080fd5b50610dec60048036036020811015610dd657600080fd5b8101908080359060200190929190505050613c10565b60405180858152602001846fffffffffffffffffffffffffffffffff166fffffffffffffffffffffffffffffffff1681526020018373ffffffffffffffffffffffffffffffffffffffff1673ffffffffffffffffffffffffffffffffffffffff1681526020018215151515815260200194505050505060405180910390f35b6000600e6000837bffffffffffffffffffffffffffffffffffffffffffffffffffffffff19167bffffffffffffffffffffffffffffffffffffffffffffffffffffffff1916815260200190815260200160002060009054906101000a900460ff169050919050565b6000610ede82613d3b565b1515610f52576040517f08c379a00000000000000000000000000000000000000000000000000000000081526004018080602001828103825260138152602001807f6974656d20646f6573206e6f742065786973740000000000000000000000000081525060200191505060405180910390fd5b600a600083815260200190815260200160002060009054906101000a900473ffffffffffffffffffffffffffffffffffffffff169050919050565b610f9681613d3b565b1515610fa157600080fd5b610faa81613ea2565b151515610fb657600080fd5b60006009600083815260200190815260200160002060009054906101000a900473ffffffffffffffffffffffffffffffffffffffff1690503373ffffffffffffffffffffffffffffffffffffffff168173ffffffffffffffffffffffffffffffffffffffff1614806110d05750600b6000600f60009054906101000a900473ffffffffffffffffffffffffffffffffffffffff1673ffffffffffffffffffffffffffffffffffffffff1673ffffffffffffffffffffffffffffffffffffffff16815260200190815260200160002060003373ffffffffffffffffffffffffffffffffffffffff1673ffffffffffffffffffffffffffffffffffffffff16815260200190815260200160002060009054906101000a900460ff165b151561116a576040517f08c379a00000000000000000000000000000000000000000000000000000000081526004018080602001828103825260258152602001807f4d757374206265206f776e6572206f72206f70657261746f72206f662074686581526020017f206974656d00000000000000000000000000000000000000000000000000000081525060400191505060405180910390fd5b6111748383613fe4565b818373ffffffffffffffffffffffffffffffffffffffff166009600085815260200190815260200160002060009054906101000a900473ffffffffffffffffffffffffffffffffffffffff1673ffffffffffffffffffffffffffffffffffffffff167f8c5be1e5ebec7d5bd14f71427d1e84f3dd0314c0f7b2291e5b200ac8c7c3b92560405160405180910390a4505050565b61120f615555565b6000600680602002604051908101604052809291906000905b828210156112a457838201600480602002604051908101604052809291908260048015611290576020028201916000905b82829054906101000a900460ff1660ff16815260200190600101906020826000010492830192600103820291508084116112595790505b505050505081526020019060010190611228565b50505050905090565b600060405180807f6f6e455243373231526563656976656428616464726573732c6164647265737381526020017f2c75696e743235362c6279746573290000000000000000000000000000000000815250602f0190506040518091039020905095945050505050565b6000600754905090565b60006009600083815260200190815260200160002060009054906101000a900473ffffffffffffffffffffffffffffffffffffffff16905061136182613d3b565b151561136c57600080fd5b61137582613ea2565b15151561138157600080fd5b61138b338361403a565b806113c157503373ffffffffffffffffffffffffffffffffffffffff168173ffffffffffffffffffffffffffffffffffffffff16145b806114745750600b6000600f60009054906101000a900473ffffffffffffffffffffffffffffffffffffffff1673ffffffffffffffffffffffffffffffffffffffff1673ffffffffffffffffffffffffffffffffffffffff16815260200190815260200160002060003373ffffffffffffffffffffffffffffffffffffffff1673ffffffffffffffffffffffffffffffffffffffff16815260200190815260200160002060009054906101000a900460ff165b151561150e576040517f08c379a00000000000000000000000000000000000000000000000000000000081526004018080602001828103825260268152602001807f446f6573206e6f74206861766520617574686f72697479206f7665722074686181526020017f74206974656d000000000000000000000000000000000000000000000000000081525060400191505060405180910390fd5b8373ffffffffffffffffffffffffffffffffffffffff168173ffffffffffffffffffffffffffffffffffffffff161415156115d7576040517f08c379a00000000000000000000000000000000000000000000000000000000081526004018080602001828103825260288152602001807f546865206974656d20646f6573206e6f742062656c6f6e6720746f207468617481526020017f206163636f756e7400000000000000000000000000000000000000000000000081525060400191505060405180910390fd5b6115e28484846140a6565b50505050565b6000600860008673ffffffffffffffffffffffffffffffffffffffff1673ffffffffffffffffffffffffffffffffffffffff168152602001908152602001600020600001600860008773ffffffffffffffffffffffffffffffffffffffff1673ffffffffffffffffffffffffffffffffffffffff16815260200190815260200160002060010160008681526020019081526020016000205481548110151561168c57fe5b906000526020600020906005020160040160009054906101000a900460ff1660ff16905060004233600654604051602001808481526020018373ffffffffffffffffffffffffffffffffffffffff1673ffffffffffffffffffffffffffffffffffffffff166c01000000000000000000000000028152601401828152602001935050505060405160208183030381529060405280519060200120600190049050600060038281151561173a57fe5b069050600081141561174e57859050611764565b600181141561175f57849050611763565b8390505b5b83905061176f615584565b600860008973ffffffffffffffffffffffffffffffffffffffff1673ffffffffffffffffffffffffffffffffffffffff168152602001908152602001600020600001600860008a73ffffffffffffffffffffffffffffffffffffffff1673ffffffffffffffffffffffffffffffffffffffff16815260200190815260200160002060010160008481526020019081526020016000205481548110151561181157fe5b906000526020600020906005020160c0604051908101604052908160008201548152602001600182015481526020016002820160009054906101000a900461ffff1661ffff1661ffff168152602001600382016002806020026040519081016040528092919082600280156118c3576020028201916000905b82829054906101000a900461ffff1661ffff168152602001906002019060208260010104928301926001038202915080841161188a5790505b505050505081526020016004820160009054906101000a900460ff1660ff1660ff1681526020016004820160019054906101000a900460ff161515151581525050905061191088886147de565b61191a88876147de565b61192488866147de565b6000809050600185141561193b576001905061198d565b6002851480156119575750601360648581151561195457fe5b06115b15611965576001905061198c565b6003851480156119815750603160648581151561197e57fe5b06115b1561198b57600190505b5b5b8015611ad1576000611a5e83602001518460400151600060018760200151036006811015156119b857fe5b0160006004811015156119c757fe5b602091828204019190069054906101000a900460ff1660ff16866060015160006002811015156119f357fe5b60200201510160006001886020015103600681101515611a0f57fe5b016001600481101515611a1e57fe5b602091828204019190069054906101000a900460ff1660ff1687606001516001600281101515611a4a57fe5b60200201510160018860800151018f612128565b90507f318d2be9b9a887c0d168715bd2f44017dafbb3360b14cdcc2a8c0086b4e2d1518a82604051808373ffffffffffffffffffffffffffffffffffffffff1673ffffffffffffffffffffffffffffffffffffffff1681526020018281526020019250505060405180910390a150611b3e565b7f318d2be9b9a887c0d168715bd2f44017dafbb3360b14cdcc2a8c0086b4e2d151896000604051808373ffffffffffffffffffffffffffffffffffffffff1673ffffffffffffffffffffffffffffffffffffffff1681526020018281526020019250505060405180910390a15b505050505050505050565b3073ffffffffffffffffffffffffffffffffffffffff1663b88d4fde8484846040518463ffffffff167c0100000000000000000000000000000000000000000000000000000000028152600401808473ffffffffffffffffffffffffffffffffffffffff1673ffffffffffffffffffffffffffffffffffffffff1681526020018373ffffffffffffffffffffffffffffffffffffffff1673ffffffffffffffffffffffffffffffffffffffff16815260200182815260200180602001828103825260008152602001602001945050505050600060405180830381600087803b158015611c3457600080fd5b505af1158015611c48573d6000803e3d6000fd5b50505050505050565b6000600d600c600084815260200190815260200160002054815481101515611c7557fe5b90600052602060002090600302019050611c8e82613ea2565b1515611d02576040517f08c379a000000000000000000000000000000000000000000000000000000000815260040180806020018281038252601b8152602001807f54686174206974656d206973206e6f74206f6e2061756374696f6e000000000081525060200191505060405180910390fd5b428160010160109054906101000a900467ffffffffffffffff168260010160189054906101000a900467ffffffffffffffff160167ffffffffffffffff16111515611db5576040517f08c379a00000000000000000000000000000000000000000000000000000000081526004018080602001828103825260128152602001807f61756374696f6e2069732065787069726564000000000000000000000000000081525060200191505060405180910390fd5b6009600083815260200190815260200160002060009054906101000a900473ffffffffffffffffffffffffffffffffffffffff1673ffffffffffffffffffffffffffffffffffffffff163373ffffffffffffffffffffffffffffffffffffffff1614151515611e2357600080fd5b611e2d8233614cef565b8060020160009054906101000a900473ffffffffffffffffffffffffffffffffffffffff1673ffffffffffffffffffffffffffffffffffffffff166108fc349081150290604051600060405180830381858888f19350505050158015611e97573d6000803e3d6000fd5b507f852371ac0906da26020ed6fae7fdd24e80c6083b979820cf4dee3a856fed8538828260010160009054906101000a90046fffffffffffffffffffffffffffffffff168360020160009054906101000a900473ffffffffffffffffffffffffffffffffffffffff163360405180858152602001846fffffffffffffffffffffffffffffffff1681526020018373ffffffffffffffffffffffffffffffffffffffff1673ffffffffffffffffffffffffffffffffffffffff1681526020018273ffffffffffffffffffffffffffffffffffffffff1673ffffffffffffffffffffffffffffffffffffffff16815260200194505050505060405180910390a15050565b6000600d80549050905090565b6000806000806000806000806000600860008c73ffffffffffffffffffffffffffffffffffffffff1673ffffffffffffffffffffffffffffffffffffffff168152602001908152602001600020905089816000018054905010151515612074576040517f08c379a00000000000000000000000000000000000000000000000000000000081526004018080602001828103825260208152602001807f4f776e657220646f6e7420686176652074686174206d616e79206974656d732e81525060200191505060405180910390fd5b61207e8b8b615129565b98509850985098509850985098509850509295985092959890939650565b60006009600083815260200190815260200160002060009054906101000a900473ffffffffffffffffffffffffffffffffffffffff169050919050565b6000600860008373ffffffffffffffffffffffffffffffffffffffff1673ffffffffffffffffffffffffffffffffffffffff168152602001908152602001600020600001805490509050919050565b60006006600081548092919060010191905055506000600654905061214b615584565b60c0604051908101604052808381526020018a81526020018961ffff16815260200160408051908101604052808a61ffff1661ffff1681526020018961ffff1661ffff1681525081526020018660ff1681526020016000151581525090506001600860008673ffffffffffffffffffffffffffffffffffffffff1673ffffffffffffffffffffffffffffffffffffffff1681526020019081526020016000206000018290806001815401808255809150509060018203906000526020600020906005020160009091929091909150600082015181600001556020820151816001015560408201518160020160006101000a81548161ffff021916908361ffff1602179055506060820151816003019060026122679291906155ca565b5060808201518160040160006101000a81548160ff021916908360ff16021790555060a08201518160040160016101000a81548160ff021916908315150217905550505003600860008673ffffffffffffffffffffffffffffffffffffffff1673ffffffffffffffffffffffffffffffffffffffff168152602001908152602001600020600101600084815260200190815260200160002081905550836009600084815260200190815260200160002060006101000a81548173ffffffffffffffffffffffffffffffffffffffff021916908373ffffffffffffffffffffffffffffffffffffffff160217905550600760008154809291906001019190505550818473ffffffffffffffffffffffffffffffffffffffff16600073ffffffffffffffffffffffffffffffffffffffff167fddf252ad1be2c89b69c2b068fc378daa952ba7f163c4a11628f55a4df523b3ef60405160405180910390a481925050509695505050505050565b60075481565b6123e184613d3b565b1515612455576040517f08c379a00000000000000000000000000000000000000000000000000000000081526004018080602001828103825260138152602001807f6974656d20646f6573206e6f742065786973740000000000000000000000000081525060200191505060405180910390fd5b6009600085815260200190815260200160002060009054906101000a900473ffffffffffffffffffffffffffffffffffffffff1673ffffffffffffffffffffffffffffffffffffffff163373ffffffffffffffffffffffffffffffffffffffff16148061257b5750600b60006009600087815260200190815260200160002060009054906101000a900473ffffffffffffffffffffffffffffffffffffffff1673ffffffffffffffffffffffffffffffffffffffff1673ffffffffffffffffffffffffffffffffffffffff16815260200190815260200160002060003373ffffffffffffffffffffffffffffffffffffffff1673ffffffffffffffffffffffffffffffffffffffff16815260200190815260200160002060009054906101000a900460ff165b1515612615576040517f08c379a00000000000000000000000000000000000000000000000000000000081526004018080602001828103825260278152602001807f596f7520646f6e2774206861766520617574686f72697479206f76657220746881526020017f6174206974656d0000000000000000000000000000000000000000000000000081525060400191505060405180910390fd5b61261e84613ea2565b151515612693576040517f08c379a000000000000000000000000000000000000000000000000000000000815260040180806020018281038252601a8152602001807f4974656d20697320616c7265616479206f6e2061756374696f6e00000000000081525060200191505060405180910390fd5b600073ffffffffffffffffffffffffffffffffffffffff16600a600086815260200190815260200160002060009054906101000a900473ffffffffffffffffffffffffffffffffffffffff1673ffffffffffffffffffffffffffffffffffffffff16141515612790576040517f08c379a00000000000000000000000000000000000000000000000000000000081526004018080602001828103825260218152602001807f4974656d20697320617070726f76656420666f7220736f6d656f6e6520656c7381526020017f650000000000000000000000000000000000000000000000000000000000000081525060400191505060405180910390fd5b620151808214806127a357506202a30082145b1515612817576040517f08c379a000000000000000000000000000000000000000000000000000000000815260040180806020018281038252601b8152602001807f54696d65206d757374206265203234206f7220343820686f757273000000000081525060200191505060405180910390fd5b826fffffffffffffffffffffffffffffffff16831415156128a0576040517f08c379a000000000000000000000000000000000000000000000000000000000815260040180806020018281038252600e8152602001807f546f6f206869676820707269636500000000000000000000000000000000000081525060200191505060405180910390fd5b6128ad848484428561524e565b50505050565b6128bc81613ea2565b1515612930576040517f08c379a00000000000000000000000000000000000000000000000000000000081526004018080602001828103825260168152602001807f4974656d206973206e6f74206f6e2061756374696f6e0000000000000000000081525060200191505060405180910390fd5b6009600082815260200190815260200160002060009054906101000a900473ffffffffffffffffffffffffffffffffffffffff1673ffffffffffffffffffffffffffffffffffffffff163373ffffffffffffffffffffffffffffffffffffffff161480612a565750600b60006009600084815260200190815260200160002060009054906101000a900473ffffffffffffffffffffffffffffffffffffffff1673ffffffffffffffffffffffffffffffffffffffff1673ffffffffffffffffffffffffffffffffffffffff16815260200190815260200160002060003373ffffffffffffffffffffffffffffffffffffffff1673ffffffffffffffffffffffffffffffffffffffff16815260200190815260200160002060009054906101000a900460ff165b1515612af0576040517f08c379a00000000000000000000000000000000000000000000000000000000081526004018080602001828103825260278152602001807f596f7520646f6e2774206861766520617574686f72697479206f76657220746881526020017f6174206974656d0000000000000000000000000000000000000000000000000081525060400191505060405180910390fd5b6000600d600c600084815260200190815260200160002054815481101515612b1457fe5b90600052602060002090600302019050428160010160109054906101000a900467ffffffffffffffff168260010160189054906101000a900467ffffffffffffffff160167ffffffffffffffff16111515612bd7576040517f08c379a00000000000000000000000000000000000000000000000000000000081526004018080602001828103825260128152602001807f41756374696f6e2069732065787069726564000000000000000000000000000081525060200191505060405180910390fd5b612c14826009600085815260200190815260200160002060009054906101000a900473ffffffffffffffffffffffffffffffffffffffff16614cef565b7fe536ac546f86787f3ea4069f79235c6b5a681e87d051300a3ed19a6ebb0db71c826000604051808381526020018281526020019250505060405180910390a15050565b80600b60003373ffffffffffffffffffffffffffffffffffffffff1673ffffffffffffffffffffffffffffffffffffffff16815260200190815260200160002060008473ffffffffffffffffffffffffffffffffffffffff1673ffffffffffffffffffffffffffffffffffffffff16815260200190815260200160002060006101000a81548160ff0219169083151502179055508173ffffffffffffffffffffffffffffffffffffffff163373ffffffffffffffffffffffffffffffffffffffff167f17307eab39ab6107e8899845ad3d59bd9653f200f220920489ca2b5937696c3183604051808215151515815260200191505060405180910390a35050565b600080600080600d8054905085101515612ddb576040517f08c379a00000000000000000000000000000000000000000000000000000000081526004018080602001828103825260118152602001807f496e64657820697320746f6f206869676800000000000000000000000000000081525060200191505060405180910390fd5b6000600d86815481101515612dec57fe5b90600052602060002090600302019050806000015494508060010160009054906101000a90046fffffffffffffffffffffffffffffffff1693508060020160009054906101000a900473ffffffffffffffffffffffffffffffffffffffff169250428160010160109054906101000a900467ffffffffffffffff168260010160189054906101000a900467ffffffffffffffff160167ffffffffffffffff16109150509193509193565b612ea1858585611320565b612eaa84615542565b1561313157600084905060405180807f6f6e455243373231526563656976656428616464726573732c6164647265737381526020017f2c75696e743235362c6279746573290000000000000000000000000000000000815250602f01905060405180910390207bffffffffffffffffffffffffffffffffffffffffffffffffffffffff19168173ffffffffffffffffffffffffffffffffffffffff1663150b7a0233898888886040518663ffffffff167c0100000000000000000000000000000000000000000000000000000000028152600401808673ffffffffffffffffffffffffffffffffffffffff1673ffffffffffffffffffffffffffffffffffffffff1681526020018573ffffffffffffffffffffffffffffffffffffffff1673ffffffffffffffffffffffffffffffffffffffff168152602001848152602001806020018281038252848482818152602001925080828437600081840152601f19601f8201169050808301925050509650505050505050602060405180830381600087803b15801561303a57600080fd5b505af115801561304e573d6000803e3d6000fd5b505050506040513d602081101561306457600080fd5b81019080805190602001909291905050507bffffffffffffffffffffffffffffffffffffffffffffffffffffffff191614151561312f576040517f08c379a000000000000000000000000000000000000000000000000000000000815260040180806020018281038252602b8152602001807f436f6e74726163747320646f6e277420696d706c656d656e742074686520736181526020017f6d65207374616e6461726400000000000000000000000000000000000000000081525060400191505060405180910390fd5b505b5050505050565b6000600860008673ffffffffffffffffffffffffffffffffffffffff1673ffffffffffffffffffffffffffffffffffffffff16815260200190815260200160002090506009600084815260200190815260200160002060009054906101000a900473ffffffffffffffffffffffffffffffffffffffff1673ffffffffffffffffffffffffffffffffffffffff166009600086815260200190815260200160002060009054906101000a900473ffffffffffffffffffffffffffffffffffffffff1673ffffffffffffffffffffffffffffffffffffffff161480156132ad57506009600083815260200190815260200160002060009054906101000a900473ffffffffffffffffffffffffffffffffffffffff1673ffffffffffffffffffffffffffffffffffffffff166009600086815260200190815260200160002060009054906101000a900473ffffffffffffffffffffffffffffffffffffffff1673ffffffffffffffffffffffffffffffffffffffff16145b801561331757508473ffffffffffffffffffffffffffffffffffffffff166009600086815260200190815260200160002060009054906101000a900473ffffffffffffffffffffffffffffffffffffffff1673ffffffffffffffffffffffffffffffffffffffff16145b15156133b1576040517f08c379a00000000000000000000000000000000000000000000000000000000081526004018080602001828103825260288152602001807f416c6c206974656d7320617265206e6f74206f776e656420627920746861742081526020017f616464726573732e00000000000000000000000000000000000000000000000081525060400191505060405180910390fd5b8473ffffffffffffffffffffffffffffffffffffffff163373ffffffffffffffffffffffffffffffffffffffff1614806134715750600b60008673ffffffffffffffffffffffffffffffffffffffff1673ffffffffffffffffffffffffffffffffffffffff16815260200190815260200160002060003373ffffffffffffffffffffffffffffffffffffffff1673ffffffffffffffffffffffffffffffffffffffff16815260200190815260200160002060009054906101000a900460ff165b151561350b576040517f08c379a00000000000000000000000000000000000000000000000000000000081526004018080602001828103825260278152602001807f596f7520646f6e7420686176652074686520617574686f7269747920746f206481526020017f6f20746861742e0000000000000000000000000000000000000000000000000081525060400191505060405180910390fd5b600a600084815260200190815260200160002060009054906101000a900473ffffffffffffffffffffffffffffffffffffffff1673ffffffffffffffffffffffffffffffffffffffff16600a600086815260200190815260200160002060009054906101000a900473ffffffffffffffffffffffffffffffffffffffff1673ffffffffffffffffffffffffffffffffffffffff1614801561363d5750600a600083815260200190815260200160002060009054906101000a900473ffffffffffffffffffffffffffffffffffffffff1673ffffffffffffffffffffffffffffffffffffffff16600a600086815260200190815260200160002060009054906101000a900473ffffffffffffffffffffffffffffffffffffffff1673ffffffffffffffffffffffffffffffffffffffff16145b80156136a85750600073ffffffffffffffffffffffffffffffffffffffff16600a600086815260200190815260200160002060009054906101000a900473ffffffffffffffffffffffffffffffffffffffff1673ffffffffffffffffffffffffffffffffffffffff16145b151561371c576040517f08c379a00000000000000000000000000000000000000000000000000000000081526004018080602001828103825260208152602001807f4974656d732063616e7420626520617070726f76656420666f7220747261646581525060200191505060405180910390fd5b61372584613ea2565b158015613738575061373683613ea2565b155b801561374a575061374882613ea2565b155b15156137e4576040517f08c379a000000000000000000000000000000000000000000000000000000000815260040180806020018281038252602a8152602001807f43616e742075706772616465206974656d73207468617420617265207570206681526020017f6f722061756374696f6e0000000000000000000000000000000000000000000081525060400191505060405180910390fd5b6000816000018260010160008781526020019081526020016000205481548110151561380c57fe5b906000526020600020906005020160040160009054906101000a900460ff169050816000018260010160008681526020019081526020016000205481548110151561385357fe5b906000526020600020906005020160040160009054906101000a900460ff1660ff168160ff161480156138cf575081600001826001016000858152602001908152602001600020548154811015156138a757fe5b906000526020600020906005020160040160009054906101000a900460ff1660ff168160ff16145b1515613943576040517f08c379a00000000000000000000000000000000000000000000000000000000081526004018080602001828103825260208152602001807f546865206974656d73206d757374206265206f662073616d652072617269747981525060200191505060405180910390fd5b60048160ff16141515156139bf576040517f08c379a000000000000000000000000000000000000000000000000000000000815260040180806020018281038252601f8152602001807f546865206974656d73206d757374206e6f74206265206c6567656e646172790081525060200191505060405180910390fd5b6139cb868686866115e8565b505050505050565b6000806000806000806000806139e889613d3b565b15156139f357600080fd5b8973ffffffffffffffffffffffffffffffffffffffff16600960008b815260200190815260200160002060009054906101000a900473ffffffffffffffffffffffffffffffffffffffff1673ffffffffffffffffffffffffffffffffffffffff16141515613ac9576040517f08c379a000000000000000000000000000000000000000000000000000000000815260040180806020018281038252601f8152602001807f5468617473206e6f7420746865206f776e6572206f6620746865206974656d0081525060200191505060405180910390fd5b613b268a600860008d73ffffffffffffffffffffffffffffffffffffffff1673ffffffffffffffffffffffffffffffffffffffff16815260200190815260200160002060010160008c815260200190815260200160002054615129565b975097509750975097509750975097509295985092959890939650565b60065481565b6000600b60008473ffffffffffffffffffffffffffffffffffffffff1673ffffffffffffffffffffffffffffffffffffffff16815260200190815260200160002060008373ffffffffffffffffffffffffffffffffffffffff1673ffffffffffffffffffffffffffffffffffffffff16815260200190815260200160002060009054906101000a900460ff16905092915050565b600a6020528060005260406000206000915054906101000a900473ffffffffffffffffffffffffffffffffffffffff1681565b600080600080613c1f85613d3b565b1515613c93576040517f08c379a00000000000000000000000000000000000000000000000000000000081526004018080602001828103825260138152602001807f6974656d20646f6573206e6f742065786973740000000000000000000000000081525060200191505060405180910390fd5b613c9c85613ea2565b1515613d10576040517f08c379a00000000000000000000000000000000000000000000000000000000081526004018080602001828103825260168152602001807f4974656d206973206e6f74206f6e2061756374696f6e0000000000000000000081525060200191505060405180910390fd5b613d2c600c600087815260200190815260200160002054612d59565b93509350935093509193509193565b600080821180613d4d57506006548211155b1515613dc1576040517f08c379a000000000000000000000000000000000000000000000000000000000815260040180806020018281038252600f8152602001807f4964206973206e6f742076616c6964000000000000000000000000000000000081525060200191505060405180910390fd5b600073ffffffffffffffffffffffffffffffffffffffff166009600084815260200190815260200160002060009054906101000a900473ffffffffffffffffffffffffffffffffffffffff1673ffffffffffffffffffffffffffffffffffffffff1614151515613e99576040517f08c379a000000000000000000000000000000000000000000000000000000000815260040180806020018281038252601f8152602001807f4974656d20697320286e6f206c6f6e6765722920696e207468652067616d650081525060200191505060405180910390fd5b60019050919050565b6000613ead82613d3b565b1515613f21576040517f08c379a00000000000000000000000000000000000000000000000000000000081526004018080602001828103825260138152602001807f6974656d20646f6573206e6f742065786973740000000000000000000000000081525060200191505060405180910390fd5b6000600860006009600086815260200190815260200160002060009054906101000a900473ffffffffffffffffffffffffffffffffffffffff1673ffffffffffffffffffffffffffffffffffffffff1673ffffffffffffffffffffffffffffffffffffffff16815260200190815260200160002090508060000181600101600085815260200190815260200160002054815481101515613fbd57fe5b906000526020600020906005020160040160019054906101000a900460ff16915050919050565b81600a600083815260200190815260200160002060006101000a81548173ffffffffffffffffffffffffffffffffffffffff021916908373ffffffffffffffffffffffffffffffffffffffff1602179055505050565b60008273ffffffffffffffffffffffffffffffffffffffff16600a600084815260200190815260200160002060009054906101000a900473ffffffffffffffffffffffffffffffffffffffff1673ffffffffffffffffffffffffffffffffffffffff1614905092915050565b6000600860008573ffffffffffffffffffffffffffffffffffffffff1673ffffffffffffffffffffffffffffffffffffffff16815260200190815260200160002090506140f1615584565b816000018260010160008581526020019081526020016000205481548110151561411757fe5b906000526020600020906005020160c0604051908101604052908160008201548152602001600182015481526020016002820160009054906101000a900461ffff1661ffff1661ffff168152602001600382016002806020026040519081016040528092919082600280156141c9576020028201916000905b82829054906101000a900461ffff1661ffff16815260200190600201906020826001010492830192600103820291508084116141905790505b505050505081526020016004820160009054906101000a900460ff1660ff1660ff1681526020016004820160019054906101000a900460ff16151515158152505090506000600860008773ffffffffffffffffffffffffffffffffffffffff1673ffffffffffffffffffffffffffffffffffffffff168152602001908152602001600020600001805490501115156142ef576040517f08c379a00000000000000000000000000000000000000000000000000000000081526004018080602001828103825260288152602001807f4163636f756e74206d7573742068617665206974656d7320746f207472616e7381526020017f6665722066726f6d00000000000000000000000000000000000000000000000081525060400191505060405180910390fd5b60018260000180549050111561451457614307615584565b82600001600184600001805490500381548110151561432257fe5b906000526020600020906005020160c0604051908101604052908160008201548152602001600182015481526020016002820160009054906101000a900461ffff1661ffff1661ffff168152602001600382016002806020026040519081016040528092919082600280156143d4576020028201916000905b82829054906101000a900461ffff1661ffff168152602001906002019060208260010104928301926001038202915080841161439b5790505b505050505081526020016004820160009054906101000a900460ff1660ff1660ff1681526020016004820160019054906101000a900460ff161515151581525050905080836000018460010160008781526020019081526020016000205481548110151561443e57fe5b9060005260206000209060050201600082015181600001556020820151816001015560408201518160020160006101000a81548161ffff021916908361ffff16021790555060608201518160030190600261449a9291906155ca565b5060808201518160040160006101000a81548160ff021916908360ff16021790555060a08201518160040160016101000a81548160ff021916908315150217905550905050826001016000858152602001908152602001600020548360010160008360000151815260200190815260200160002081905550505b8160000180548091906001900361452b9190615667565b506001600860008673ffffffffffffffffffffffffffffffffffffffff1673ffffffffffffffffffffffffffffffffffffffff1681526020019081526020016000206000018290806001815401808255809150509060018203906000526020600020906005020160009091929091909150600082015181600001556020820151816001015560408201518160020160006101000a81548161ffff021916908361ffff1602179055506060820151816003019060026145ea9291906155ca565b5060808201518160040160006101000a81548160ff021916908360ff16021790555060a08201518160040160016101000a81548160ff021916908315150217905550505003600860008673ffffffffffffffffffffffffffffffffffffffff1673ffffffffffffffffffffffffffffffffffffffff16815260200190815260200160002060010160006006548152602001908152602001600020819055508360096000600654815260200190815260200160002060006101000a81548173ffffffffffffffffffffffffffffffffffffffff021916908373ffffffffffffffffffffffffffffffffffffffff160217905550600073ffffffffffffffffffffffffffffffffffffffff16600a600085815260200190815260200160002060009054906101000a900473ffffffffffffffffffffffffffffffffffffffff1673ffffffffffffffffffffffffffffffffffffffff1614151561477c57600a600084815260200190815260200160002060006101000a81549073ffffffffffffffffffffffffffffffffffffffff02191690555b828473ffffffffffffffffffffffffffffffffffffffff168673ffffffffffffffffffffffffffffffffffffffff167fddf252ad1be2c89b69c2b068fc378daa952ba7f163c4a11628f55a4df523b3ef60405160405180910390a45050505050565b8173ffffffffffffffffffffffffffffffffffffffff166009600083815260200190815260200160002060009054906101000a900473ffffffffffffffffffffffffffffffffffffffff1673ffffffffffffffffffffffffffffffffffffffff161415156148b4576040517f08c379a000000000000000000000000000000000000000000000000000000000815260040180806020018281038252601b8152602001807f54686174207573657220646f6e74206f776e20746865206974656d000000000081525060200191505060405180910390fd5b6000600860008473ffffffffffffffffffffffffffffffffffffffff1673ffffffffffffffffffffffffffffffffffffffff16815260200190815260200160002060000180549050111515614997576040517f08c379a00000000000000000000000000000000000000000000000000000000081526004018080602001828103825260268152602001807f4163636f756e74206d7573742068617665206974656d7320746f2072656d6f7681526020017f652066726f6e000000000000000000000000000000000000000000000000000081525060400191505060405180910390fd5b6000600860008473ffffffffffffffffffffffffffffffffffffffff1673ffffffffffffffffffffffffffffffffffffffff1681526020019081526020016000209050600115614b985760008160000160018360000180549050038154811015156149fe57fe5b9060005260206000209060050201600001549050816000016001836000018054905003815481101515614a2d57fe5b90600052602060002090600502018260000183600101600086815260200190815260200160002054815481101515614a6157fe5b906000526020600020906005020160008201548160000155600182015481600101556002820160009054906101000a900461ffff168160020160006101000a81548161ffff021916908361ffff1602179055506003820181600301906002614aca929190615699565b506004820160009054906101000a900460ff168160040160006101000a81548160ff021916908360ff1602179055506004820160019054906101000a900460ff168160040160016101000a81548160ff021916908315150217905550905050600860008573ffffffffffffffffffffffffffffffffffffffff1673ffffffffffffffffffffffffffffffffffffffff16815260200190815260200160002060010160008481526020019081526020016000205482600101600083815260200190815260200160002081905550505b600860008473ffffffffffffffffffffffffffffffffffffffff1673ffffffffffffffffffffffffffffffffffffffff168152602001908152602001600020600001805480919060019003614bed9190615667565b50600860008473ffffffffffffffffffffffffffffffffffffffff1673ffffffffffffffffffffffffffffffffffffffff1681526020019081526020016000206001016000838152602001908152602001600020600090556009600083815260200190815260200160002060006101000a81549073ffffffffffffffffffffffffffffffffffffffff02191690556007600081548092919060019003919050555081600073ffffffffffffffffffffffffffffffffffffffff168473ffffffffffffffffffffffffffffffffffffffff167fddf252ad1be2c89b69c2b068fc378daa952ba7f163c4a11628f55a4df523b3ef60405160405180910390a4505050565b6000600860006009600086815260200190815260200160002060009054906101000a900473ffffffffffffffffffffffffffffffffffffffff1673ffffffffffffffffffffffffffffffffffffffff1673ffffffffffffffffffffffffffffffffffffffff168152602001908152602001600020905060008160000182600101600086815260200190815260200160002054815481101515614d8d57fe5b906000526020600020906005020160040160016101000a81548160ff0219169083151502179055506009600084815260200190815260200160002060009054906101000a900473ffffffffffffffffffffffffffffffffffffffff1673ffffffffffffffffffffffffffffffffffffffff168273ffffffffffffffffffffffffffffffffffffffff16141515614e5c57614e5b6009600085815260200190815260200160002060009054906101000a900473ffffffffffffffffffffffffffffffffffffffff1683856140a6565b5b614e646156e4565b600d6001600d8054905003815481101515614e7b57fe5b906000526020600020906003020160a06040519081016040529081600082015481526020016001820160009054906101000a90046fffffffffffffffffffffffffffffffff166fffffffffffffffffffffffffffffffff166fffffffffffffffffffffffffffffffff1681526020016001820160109054906101000a900467ffffffffffffffff1667ffffffffffffffff1667ffffffffffffffff1681526020016001820160189054906101000a900467ffffffffffffffff1667ffffffffffffffff1667ffffffffffffffff1681526020016002820160009054906101000a900473ffffffffffffffffffffffffffffffffffffffff1673ffffffffffffffffffffffffffffffffffffffff1673ffffffffffffffffffffffffffffffffffffffff1681525050905080600d600c600087815260200190815260200160002054815481101515614fc857fe5b90600052602060002090600302016000820151816000015560208201518160010160006101000a8154816fffffffffffffffffffffffffffffffff02191690836fffffffffffffffffffffffffffffffff16021790555060408201518160010160106101000a81548167ffffffffffffffff021916908367ffffffffffffffff16021790555060608201518160010160186101000a81548167ffffffffffffffff021916908367ffffffffffffffff16021790555060808201518160020160006101000a81548173ffffffffffffffffffffffffffffffffffffffff021916908373ffffffffffffffffffffffffffffffffffffffff160217905550905050600d8054809190600190036150dc9190615750565b50600c600085815260200190815260200160002054600c60008360000151815260200190815260200160002081905550600c60008581526020019081526020016000206000905550505050565b6000806000806000806000806000600860008c73ffffffffffffffffffffffffffffffffffffffff1673ffffffffffffffffffffffffffffffffffffffff1681526020019081526020016000206000018a81548110151561518657fe5b9060005260206000209060050201905080600001549850806001015497508060020160009054906101000a900461ffff1696508060030160006002811015156151cb57fe5b601091828204019190066002029054906101000a900461ffff1695508060030160016002811015156151f957fe5b601091828204019190066002029054906101000a900461ffff1694508060040160009054906101000a900460ff1693508a92508060040160019054906101000a900460ff169150509295985092959890939650565b6000600860006009600089815260200190815260200160002060009054906101000a900473ffffffffffffffffffffffffffffffffffffffff1673ffffffffffffffffffffffffffffffffffffffff1673ffffffffffffffffffffffffffffffffffffffff1681526020019081526020016000209050600181600001826001016000898152602001908152602001600020548154811015156152ec57fe5b906000526020600020906005020160040160016101000a81548160ff02191690831515021790555061531c6156e4565b60a060405190810160405280888152602001876fffffffffffffffffffffffffffffffff1681526020018667ffffffffffffffff1681526020018567ffffffffffffffff1681526020018473ffffffffffffffffffffffffffffffffffffffff1681525090506001600d82908060018154018082558091505090600182039060005260206000209060030201600090919290919091506000820151816000015560208201518160010160006101000a8154816fffffffffffffffffffffffffffffffff02191690836fffffffffffffffffffffffffffffffff16021790555060408201518160010160106101000a81548167ffffffffffffffff021916908367ffffffffffffffff16021790555060608201518160010160186101000a81548167ffffffffffffffff021916908367ffffffffffffffff16021790555060808201518160020160006101000a81548173ffffffffffffffffffffffffffffffffffffffff021916908373ffffffffffffffffffffffffffffffffffffffff160217905550505003600c6000898152602001908152602001600020819055507f6fd490b931712b637c655f609b6744971d6902d00d0cd2cd545892f57ea2c0fd87878760405180848152602001836fffffffffffffffffffffffffffffffff166fffffffffffffffffffffffffffffffff1681526020018267ffffffffffffffff1667ffffffffffffffff168152602001935050505060405180910390a150505050505050565b600080823b905060008111915050919050565b610300604051908101604052806006905b61556e615782565b8152602001906001900390816155665790505090565b60e0604051908101604052806000815260200160008152602001600061ffff1681526020016155b16157a5565b8152602001600060ff1681526020016000151581525090565b826002600f016010900481019282156156565791602002820160005b8382111561562657835183826101000a81548161ffff021916908361ffff16021790555092602001926002016020816001010492830192600103026155e6565b80156156545782816101000a81549061ffff0219169055600201602081600101049283019260010302615626565b505b50905061566391906157c7565b5090565b8154818355818111156156945760050281600502836000526020600020918201910161569391906157f8565b5b505050565b826002600f016010900481019282156156d35791600f016010900482015b828111156156d25782548255916001019190600101906156b7565b5b5090506156e091906157c7565b5090565b60a0604051908101604052806000815260200160006fffffffffffffffffffffffffffffffff168152602001600067ffffffffffffffff168152602001600067ffffffffffffffff168152602001600073ffffffffffffffffffffffffffffffffffffffff1681525090565b81548183558181111561577d5760030281600302836000526020600020918201910161577c9190615874565b5b505050565b608060405190810160405280600490602082028038833980820191505090505090565b6040805190810160405280600290602082028038833980820191505090505090565b6157f591905b808211156157f157600081816101000a81549061ffff0219169055506001016157cd565b5090565b90565b61587191905b8082111561586d5760008082016000905560018201600090556002820160006101000a81549061ffff021916905560038201600061583c919061591b565b6004820160006101000a81549060ff02191690556004820160016101000a81549060ff0219169055506005016157fe565b5090565b90565b61591891905b80821115615914576000808201600090556001820160006101000a8154906fffffffffffffffffffffffffffffffff02191690556001820160106101000a81549067ffffffffffffffff02191690556001820160186101000a81549067ffffffffffffffff02191690556002820160006101000a81549073ffffffffffffffffffffffffffffffffffffffff02191690555060030161587a565b5090565b90565b506000905556fea165627a7a723058207a0f1f2a15230f39e14696b1c84b1e941d7ea29de8f31956cc68e241eac3925a0029",
  "source": "pragma solidity 0.5.0;\r\n\r\nimport \"./ItemOwnership.sol\";\r\n\r\n\r\ncontract AuctionHouse is ItemOwnership {\r\n\r\n\r\n    /*** EVENTS ***/\r\n\r\n    ///Fired when a new auction is created\r\n    event AuctionCreated(uint256 id, uint128 price, uint64 expiration);\r\n    ///@notice Fired when an auction is purchased\r\n    event AuctionPurchased(uint256 id, uint256 price, address seller, address buyer);\r\n    ///@notice fired when an auction is either cancelled, timed out or money from purhcase withdrawn\r\n    ///cancelled if price == 0\r\n    event AuctionEnded(uint256 id, uint256 price);\r\n\r\n\r\n\r\n\r\n\r\n\r\n\r\n    /*** NAIVE METHODS ***/\r\n\r\n    ///@dev used within auction-house item transfer. Removes item from auction-house\r\n    ///and adds it to the an address\r\n    function removeAuction(uint _id, address newOwner) internal {\r\n        //store user-struct for reference\r\n        User storage auctionOwner = users[ownerOfItem[_id]];\r\n        //set bool onAuction to false\r\n        auctionOwner.items[auctionOwner.indexOfItem[_id]].onAuction = false;\r\n\r\n        //If item got a new owner, transfer ownership\r\n        if (newOwner != ownerOfItem[_id]) {\r\n            transferOwnership(ownerOfItem[_id], newOwner, _id);\r\n        }\r\n        //Store last auction to overwrite\r\n        Auction memory lastAuction = auctions[auctions.length - 1];\r\n        //Overwrite auction with last item and remove duplicate item\r\n        auctions[auctionIndexes[_id]] = lastAuction;\r\n        auctions.length--;\r\n        //correct index-table\r\n        auctionIndexes[lastAuction.id] = auctionIndexes[_id];\r\n        delete auctionIndexes[_id];\r\n    }\r\n\r\n\r\n    ///@dev Removes the item from the owners array of items. However, he is still the owner,\r\n    ///and as such will be displayed as the owner in OwnerOf.\r\n    function addAuction(\r\n        uint _id,\r\n        uint256 _price,\r\n        uint256 _duration,\r\n        uint256 _startTime,\r\n        address payable _seller\r\n    ) internal {\r\n        //Set onAuction of item to be true\r\n        User storage itemOwner = users[ownerOfItem[_id]];\r\n        itemOwner.items[itemOwner.indexOfItem[_id]].onAuction = true;\r\n\r\n        //create auction struct\r\n        Auction memory auction = Auction(\r\n            _id,\r\n            uint128(_price),  \r\n            uint64(_duration),\r\n            uint64(_startTime),\r\n            _seller\r\n        );\r\n\r\n        //Struct added to array of items and index of struct stored\r\n        auctionIndexes[_id] = auctions.push(auction) - 1;\r\n        //emit event\r\n        emit AuctionCreated(_id, uint128(_price), uint64(_duration));\r\n    }\r\n\r\n\r\n\r\n\r\n\r\n    /*** SKEPTICAL METHODS ***/\r\n\r\n    ///@notice function to create a new auction. This removes the item from the users array of items.\r\n    ///@param _id is the id of the item being put up for auction\r\n    ///@param _price is the starting price of the auction.\r\n    ///@param _duration is the time in seconds. Must be 86 400(24hr) or 172 800(48hr).\r\n    ///@param _startTime is the time the auction started\r\n    ///@param _seller is the address of the seller.\r\n    function startAuction(\r\n        uint _id,\r\n        uint256 _price,\r\n        uint256 _duration,\r\n        address payable _seller\r\n    ) external {\r\n        require(ItemOwnership.itemIsInGame(_id), \"item does not exist\");\r\n        require(\r\n            msg.sender == ownerOfItem[_id] ||\r\n            approvedForAll[ownerOfItem[_id]][msg.sender],\r\n            \"You don't have authority over that item\"\r\n        );\r\n        require(!isOnAuction(_id), \"Item is already on auction\");\r\n        require(itemApprovals[_id] == address(0), \"Item is approved for someone else\");\r\n        require(\r\n            _duration == 86400 ||\r\n            _duration == 172800,\r\n            \"Time must be 24 or 48 hours\"\r\n        );\r\n\r\n        //check that input doesnt overflow. The input-size for the values does not match struct-size\r\n        //This is done purposely to allow for a return message if input-values are too high.\r\n        require(_price == uint256(uint128(_price)), \"Too high price\");\r\n        addAuction(        \r\n            _id,\r\n            _price,\r\n            _duration,\r\n            now,\r\n            _seller\r\n        );\r\n    }\r\n\r\n    ///@notice function to cancel an active auction.\r\n    ///@param _id is the id of the item that is being cancelled\r\n    function cancelAuction(uint _id) external {\r\n        \r\n        require(isOnAuction(_id), \"Item is not on auction\");\r\n        \r\n        require(\r\n            msg.sender == ownerOfItem[_id] ||\r\n            approvedForAll[ownerOfItem[_id]][msg.sender],\r\n            \"You don't have authority over that item\"\r\n        );\r\n        //Store a pointer to the given auction\r\n        Auction storage auction = auctions[auctionIndexes[_id]];\r\n        require(auction.startTime + auction.expiration > now, \"Auction is expired\");\r\n        \r\n        //Call function to remove auction\r\n        removeAuction(_id, ownerOfItem[_id]);\r\n        //emit event that auction has been removed\r\n        emit AuctionEnded(_id, 0);\r\n    }\r\n\r\n\r\n    ///@notice function to buy item that is on auction and transfer it to msg.sender\r\n    ///@param _id is the id of the item being bought\r\n    function purchaseAuction(uint _id) external payable {\r\n        Auction storage auction = auctions[auctionIndexes[_id]];\r\n        require(isOnAuction(_id), \"That item is not on auction\");\r\n        require(auction.startTime + auction.expiration > now, \"auction is expired\");\r\n        require(msg.sender != ownerOfItem[_id]);\r\n        \r\n        //remove item from auctionhouse and transfer ownership\r\n        removeAuction(_id, msg.sender);\r\n\r\n        //We fend off re-entrancy attacks by transferring the item and taking it off the\r\n        //auction house before transferring the currency.\r\n        auction.seller.transfer(msg.value);\r\n        //send out event\r\n        emit AuctionPurchased(_id, auction.price, auction.seller, msg.sender);\r\n    }\r\n\r\n    function getAuctionByIndex(uint _index) public view returns (\r\n        uint id,\r\n        uint128 price, \r\n        address seller,\r\n        bool ended\r\n    ) {\r\n        require(_index < auctions.length, \"Index is too high\");\r\n        Auction storage auction = auctions[_index];\r\n\r\n        id = auction.id;\r\n        price = auction.price;\r\n        seller = auction.seller;\r\n        ended = (auction.startTime + auction.expiration) < now;\r\n    }\r\n\r\n    ///@notice function to get information about an auction. \r\n    ///@dev For displaying all auctions, this should be used in conjunction with getItemByID. \r\n    ///That way you can display the item alongside its auction info.\r\n    ///@param _id item to get info about\r\n    function getAuctionInfo(uint _id) external view returns (\r\n        uint id,\r\n        uint128 price, \r\n        address seller,\r\n        bool ended\r\n    ) {\r\n        require(itemIsInGame(_id), \"item does not exist\");\r\n        require(isOnAuction(_id), \"Item is not on auction\");\r\n        return getAuctionByIndex(auctionIndexes[_id]);\r\n    }\r\n\r\n    ///@notice returns how many active auctions exist\r\n    function numberOfAuctions() external view returns (uint) {\r\n        return auctions.length;\r\n    }\r\n\r\n}",
  "sourcePath": "F:/coding/test/contracts/AuctionHouse.sol",
  "compiler": {
    "name": "solc",
    "version": "0.5.0+commit.1d4f565a.Emscripten.clang"
  },
  "schemaVersion": "3.0.1",
  "updatedAt": "2019-04-05T09:04:41.277Z",
  "devdoc": {
    "methods": {
      "approve(address,uint256)": {
        "params": {
          "_id": "The item to approve.",
          "_to": "The new approved item controller."
        }
      },
      "balanceOf(address)": {
        "params": {
          "_account": "An address for whom to query the balance."
        },
        "return": "The number of items owned by `_owner`, possibly zero."
      },
      "cancelAuction(uint256)": {
        "params": {
          "_id": "is the id of the item that is being cancelled"
        }
      },
      "createItem(uint256,uint16,uint16,uint16,uint8,address)": {
        "details": "Function to mint a new item, store it in the owners array and send out events.",
        "params": {
          "_img": "the int that stores both item type and logic for what image to use.",
          "_owner": "the address of the lucky owner of this newly minted item",
          "_rarity": "the rarity of the new item",
          "_stat1": "as stat2.",
          "_stat2": "these two are the stats of the items, where they should be assigned to stat[] as follows: [_stat1, _stat2]."
        },
        "return": "returns the id of the new item"
      },
      "getApproved(uint256)": {
        "params": {
          "_id": "The item to find the approved address for."
        },
        "return": "The approved address for this item, or the zero address if there is none."
      },
      "getAuctionInfo(uint256)": {
        "params": {
          "_id": "item to get info about"
        }
      },
      "isApprovedForAll(address,address)": {
        "params": {
          "_operator": "The address that acts on behalf of the owner.",
          "_owner": "The address that owns the items."
        },
        "return": "True if `_operator` is an approved operator for `_owner`, false otherwise."
      },
      "onERC721Received(address,address,uint256,bytes)": {
        "return": "`bytes4(keccak256(\"onERC721Received(address,address,uint256,bytes)\"))`"
      },
      "ownerOf(uint256)": {
        "params": {
          "_id": "The identifier for an item."
        },
        "return": "The address of the owner of the item."
      },
      "purchaseAuction(uint256)": {
        "params": {
          "_id": "is the id of the item being bought"
        }
      },
      "safeTransferFrom(address,address,uint256)": {
        "params": {
          "_from": "The current owner of the item.",
          "_id": "The item to transfer.",
          "_to": "The new owner."
        }
      },
      "safeTransferFrom(address,address,uint256,bytes)": {
        "params": {
          "_from": "The current owner of the item.",
          "_id": "The item to transfer.",
          "_to": "The new owner.",
          "data": "Additional data with no specified format, sent in call to `_to`."
        }
      },
      "setApprovalForAll(address,bool)": {
        "params": {
          "_approved": "True if the operator is approved, false to revoke approval.",
          "_operator": "Address to add to the set of authorized operators."
        }
      },
      "startAuction(uint256,uint256,uint256,address)": {
        "params": {
          "_seller": "is the address of the seller."
        }
      },
      "supportsInterface(bytes4)": {
        "details": "Interface identification is specified in ERC-165. This function uses less than 30,000 gas.",
        "params": {
          "interfaceID": "The interface identifier, as specified in ERC-165."
        },
        "return": "`true` if the contract implements `interfaceID` and `interfaceID` is not 0xffffffff, `false` otherwise."
      },
      "totalSupply()": {
        "return": "A count of valid items tracked by this contract, where each one of  them has an assigned and queryable owner not equal to the zero address."
      },
      "transferFrom(address,address,uint256)": {
        "params": {
          "_from": "The current owner of the item.",
          "_id": "The item to transfer.",
          "_to": "The new owner."
        }
      },
      "upgradeItems(address,uint256,uint256,uint256)": {
        "details": "this is the function called when upgrading items"
      }
    }
  },
  "userdoc": {
    "methods": {
      "approve(address,uint256)": {
        "notice": "Change or reaffirm the approved address for an item."
      },
      "balanceOf(address)": {
        "notice": "Count all items assigned to an owner."
      },
      "getApproved(uint256)": {
        "notice": "Get the approved address for a single item."
      },
      "getItemByID(address,uint256)": {
        "notice": "This function can be used to iterate through all items of a user, in combination with balanceOf(_owner). This is the only way to return all items an address owns."
      },
      "getItemByIndex(address,uint256)": {
        "notice": "This function can be used to iterate through all items of a user, in combination with balanceOf(_owner). This is the only way to return all items an address owns."
      },
      "getStatInformation()": {
        "notice": "Returns a map of map. This should be accessed as follows: [type][value], where type is weapon type, and value is either 0 (statIncrement for stat1), 1(statIncrement for stat2), 2 (Lowest roll for stat1), 3(Lowest roll for stat2)."
      },
      "isApprovedForAll(address,address)": {
        "notice": "Query if an address is an authorized operator for another address."
      },
      "numberOfAuctions()": {
        "notice": "returns how many active auctions exist"
      },
      "onERC721Received(address,address,uint256,bytes)": {
        "notice": "Handle the receipt of an NFT"
      },
      "ownerOf(uint256)": {
        "notice": "Find the owner of an item."
      },
      "safeTransferFrom(address,address,uint256)": {
        "notice": "Transfers the ownership of an item from one address to another address."
      },
      "safeTransferFrom(address,address,uint256,bytes)": {
        "notice": "Transfers the ownership of an item from one address to another address."
      },
      "setApprovalForAll(address,bool)": {
        "notice": "Enable or disable approval for a third party (\"operator\") to manage  all of `msg.sender`'s assets."
      },
      "supportsInterface(bytes4)": {
        "notice": "Query if a contract implements an interface."
      },
      "totalSupply()": {
        "notice": "Count items tracked by this contract."
      },
      "transferFrom(address,address,uint256)": {
        "notice": "Transfer ownership of an item -- THE CALLER IS RESPONSIBLE  TO CONFIRM THAT `_to` IS CAPABLE OF RECEIVING ITEMS OR ELSE  THEY MAY BE PERMANENTLY LOST."
      }
    }
  }
}