{
  "contractName": "ERC165Implementation",
  "abi": [
    {
      "inputs": [],
      "payable": false,
      "stateMutability": "nonpayable",
      "type": "constructor"
    },
    {
      "constant": true,
      "inputs": [
        {
          "name": "interfaceID",
          "type": "bytes4"
        }
      ],
      "name": "supportsInterface",
      "outputs": [
        {
          "name": "",
          "type": "bool"
        }
      ],
      "payable": false,
      "stateMutability": "view",
      "type": "function"
    }
  ],
  "bytecode": "0x608060405234801561001057600080fd5b50600160008060405180807f737570706f727473496e74657266616365286279746573342900000000000000815250601901905060405180910390207bffffffffffffffffffffffffffffffffffffffffffffffffffffffff19167bffffffffffffffffffffffffffffffffffffffffffffffffffffffff1916815260200190815260200160002060006101000a81548160ff021916908315150217905550600160008060405180807f746f74616c537570706c79282900000000000000000000000000000000000000815250600d019050604051809103902060405180807f6973417070726f766564466f72416c6c28616464726573732c6164647265737381526020017f29000000000000000000000000000000000000000000000000000000000000008152506021019050604051809103902060405180807f676574417070726f7665642875696e74323536000000000000000000000000008152506013019050604051809103902060405180807f736574417070726f76616c466f72416c6c28616464726573732c626f6f6c0000815250601e019050604051809103902060405180807f617070726f766528616464726573732c75696e743235360000000000000000008152506017019050604051809103902060405180807f7472616e7366657246726f6d28616464726573732c616464726573732c75696e81526020017f74323536000000000000000000000000000000000000000000000000000000008152506024019050604051809103902060405180807f736166655472616e7366657246726f6d28616464726573732c6164647265737381526020017f2c75696e743235360000000000000000000000000000000000000000000000008152506028019050604051809103902060405180807f736166655472616e7366657246726f6d28616464726573732c6164647265737381526020017f2c75696e743235362c6279746573000000000000000000000000000000000000815250602e019050604051809103902060405180807f6f776e65724f662875696e7432353629000000000000000000000000000000008152506010019050604051809103902060405180807f62616c616e63654f662861646472657373290000000000000000000000000000815250601201905060405180910390201818181818181818187bffffffffffffffffffffffffffffffffffffffffffffffffffffffff19167bffffffffffffffffffffffffffffffffffffffffffffffffffffffff1916815260200190815260200160002060006101000a81548160ff02191690831515021790555061014b806103e36000396000f3fe608060405260043610610041576000357c0100000000000000000000000000000000000000000000000000000000900463ffffffff16806301ffc9a714610046575b600080fd5b34801561005257600080fd5b5061009e6004803603602081101561006957600080fd5b8101908080357bffffffffffffffffffffffffffffffffffffffffffffffffffffffff191690602001909291905050506100b8565b604051808215151515815260200191505060405180910390f35b6000806000837bffffffffffffffffffffffffffffffffffffffffffffffffffffffff19167bffffffffffffffffffffffffffffffffffffffffffffffffffffffff1916815260200190815260200160002060009054906101000a900460ff16905091905056fea165627a7a723058203b41b049e679d874b0ab379b2f7248dc82502dffbb470e18c3e5f208b51dee2f0029",
  "source": "pragma solidity 0.5.0;\nimport \"./ERC.sol\";\nimport \"./ItemContract.sol\";\n\n\ncontract ERC165Implementation is ERC165 {\n    constructor () public {\n        //store that contract implements ERC165\n        supportedInterfaces[bytes4(keccak256(\"supportsInterface(bytes4)\"))] = true;\n        \n        //Store that te contract implements ERC721\n        supportedInterfaces[\n        bytes4(keccak256(\"balanceOf(address)\")) ^\n        bytes4(keccak256(\"ownerOf(uint256)\")) ^\n        bytes4(keccak256(\"safeTransferFrom(address,address,uint256,bytes\")) ^\n        bytes4(keccak256(\"safeTransferFrom(address,address,uint256\")) ^\n        bytes4(keccak256(\"transferFrom(address,address,uint256\")) ^\n        bytes4(keccak256(\"approve(address,uint256\")) ^\n        bytes4(keccak256(\"setApprovalForAll(address,bool\")) ^\n        bytes4(keccak256(\"getApproved(uint256\")) ^\n        bytes4(keccak256(\"isApprovedForAll(address,address)\")) ^\n        bytes4(keccak256(\"totalSupply()\"))\n        ] = true;\n    }\n\n    //mapping to store what interfaces are supported\n    mapping (bytes4 => bool) internal supportedInterfaces;\n\n    ///@notice Query if a contract implements an interface.\n    ///@param interfaceID The interface identifier, as specified in ERC-165.\n    ///@dev Interface identification is specified in ERC-165. This function\n    /// uses less than 30,000 gas.\n    /// @return `true` if the contract implements `interfaceID` and\n    /// `interfaceID` is not 0xffffffff, `false` otherwise.\n    function supportsInterface(bytes4 interfaceID) external view returns (bool) {\n        return supportedInterfaces[interfaceID];\n    }\n}\n\n\n\n\n///@title ItemOwnership is the contract that implements all ERC721 standards.\n/// This means that the contract takes care of all that has to do with ownerships.\n///@author Håvard Pedersen, B6056952.\n///@dev This will implement and make use of\n/// functions, events, and storages defined in its parent-contracts.\ncontract ItemOwnership is ItemContract, ERC721TokenReceiver, ERC165Implementation {\n    address internal owner;\n    constructor () public {\n        owner = msg.sender;\n    }\n\n\n    /*** NAIVE METHODS ***/\n     \n    /// @notice Count all items assigned to an owner.\n    /// @param _account An address for whom to query the balance.\n    /// @return The number of items owned by `_owner`, possibly zero.\n    function balanceOf(address _account) external view returns (uint) {\n        return users[_account].items.length;\n    }\n    /// @notice Returns a map of map. This should be accessed as follows:\n    /// [type][value], where type is weapon type, and value is either\n    /// 0 (statIncrement for stat1), 1(statIncrement for stat2),\n    /// 2 (Lowest roll for stat1), 3(Lowest roll for stat2).\n    function getStatInformation() external view returns(uint8[4][6] memory) {\n        return statInformation;\n    }\n\n    /// @notice Count items tracked by this contract.\n    /// @return A count of valid items tracked by this contract, where each one of\n    ///  them has an assigned and queryable owner not equal to the zero address.\n    function totalSupply() external view returns (uint) {\n        return numberOfItems;\n    }\n\n    /// @notice Find the owner of an item.\n    /// @param _id The identifier for an item.\n    /// @return The address of the owner of the item.\n    function ownerOf(uint _id) external view returns (address) {\n        return ownerOfItem[_id];\n    }\n\n    ///@dev this might seem like a redundant function, as we also have approve. \n    ///However, this is a naive, internal call. The other approve function is external,\n    ///and checks all parameters. This is done to lower gasprice. \n    ///@notice does not trigger Approval event, as this will be done by the calling functions.\n    function _approve(address _to, uint _id) internal {\n        itemApprovals[_id] = _to;\n    }\n\n    ///@dev internal function to check if address is approved for an item.\n    function isApprovedFor(address _user, uint _id) internal view returns (bool) {\n        return itemApprovals[_id] == _user;\n    }\n\n    ///@dev check if item exists\n    function itemIsInGame(uint _id) internal view returns (bool) {\n        require(_id > 0 || _id <= ids, \"Id is not valid\");\n        require(ownerOfItem[_id] != address(0), \"Item is (no longer) in the game\");\n        return true;\n    }\n\n    //From AddressUtils.sol library.\n    ///@dev check if a given address is a contract\n    function isContract(address addr) internal view returns (bool) {\n        uint256 size;\n        assembly { size := extcodesize(addr) }\n        return size > 0;\n    }\n\n    ///@dev check if item is on auction\n    ///@param _id id of item to check\n    function isOnAuction(uint _id) internal view returns (bool) {\n        require(itemIsInGame(_id), \"item does not exist\");\n        User storage itemOwner = users[ownerOfItem[_id]];\n        return itemOwner.items[itemOwner.indexOfItem[_id]].onAuction;\n    }\n\n    /// @notice Handle the receipt of an NFT\n    /// @return `bytes4(keccak256(\"onERC721Received(address,address,uint256,bytes)\"))`\n    function onERC721Received(\n        address, \n        address, \n        uint256, \n        bytes calldata\n    )external returns(bytes4) {\n        return bytes4(keccak256(\"onERC721Received(address,address,uint256,bytes)\"));\n    }    \n\n\n\n\n\n    /*** SKEPTICAL METHODS ***/\n\n    /// @notice Change or reaffirm the approved address for an item.\n    /// @param _to The new approved item controller.\n    /// @param _id The item to approve.\n    function approve(address _to, uint _id) external payable {       \n        //Make sure its a valid id\n        require(itemIsInGame(_id));\n        require(!isOnAuction(_id));\n        //check if caller has right to approve this item to an account\n        address itemOwner = ownerOfItem[_id];\n        require(\n            itemOwner == msg.sender ||\n            approvedForAll[owner][msg.sender], \n            \"Must be owner or operator of the item\"\n        );\n        \n        //approve account\n        _approve(_to, _id);\n       \n        //emit the event\n        emit Approval(ownerOfItem[_id], _to, _id);\n    }\n\n    /// @notice Get the approved address for a single item.\n    /// @param _id The item to find the approved address for.\n    /// @return The approved address for this item, or the zero address if there is none.\n    function getApproved(uint256 _id) external view returns (address) {\n        //Make sure its a valid id\n        require(itemIsInGame(_id), \"item does not exist\");\n        return itemApprovals[_id];\n    }\n\n    /// @notice Transfer ownership of an item -- THE CALLER IS RESPONSIBLE\n    ///  TO CONFIRM THAT `_to` IS CAPABLE OF RECEIVING ITEMS OR ELSE\n    ///  THEY MAY BE PERMANENTLY LOST.\n    /// @param _from The current owner of the item.\n    /// @param _to The new owner.\n    /// @param _id The item to transfer.\n    function transferFrom (\n        address _from, \n        address _to,\n        uint256 _id\n    ) public payable {\n        address itemOwner = ownerOfItem[_id];        \n        //Make sure its a valid id\n        require(itemIsInGame(_id));\n        //make sure item is not up for auction\n        require(!isOnAuction(_id));\n\n        //Check if sender is authorized to transfer item\n        require(\n            isApprovedFor(msg.sender, _id) || \n            itemOwner == msg.sender ||\n            approvedForAll[owner][msg.sender],\n            \"Does not have authority over that item\"\n        );\n        //check if owner address matches owner parameter\n        require(itemOwner == _from, \"The item does not belong to that account\");\n        \n        //call transfer function\n        transferOwnership(_from, _to, _id);\n    }\n    \n    /// @notice Transfers the ownership of an item from one address to another address.\n    /// @param _from The current owner of the item.\n    /// @param _to The new owner.\n    /// @param _id The item to transfer.\n    /// @param data Additional data with no specified format, sent in call to `_to`.\n    function safeTransferFrom(address _from, address _to, uint256 _id, bytes calldata data) external payable {\n        \n        //call transfer function to do checks and transfer item\n        transferFrom(_from, _to, _id);\n\n        //if caller is another contract, make sure that \n        //the contract has implemented ERC721, or cancel transfer\n        if (isContract(_to)) {\n            ERC721TokenReceiver receiver = ERC721TokenReceiver(_to);\n            require(\n                receiver.onERC721Received(msg.sender, _from, _id, data) ==\n                bytes4(keccak256(\"onERC721Received(address,address,uint256,bytes)\")),\n                \"Contracts don't implement the same standard\"\n            );\n        }\n    }\n\n    /// @notice Transfers the ownership of an item from one address to another address.\n    /// @param _from The current owner of the item.\n    /// @param _to The new owner.\n    /// @param _id The item to transfer.\n    function safeTransferFrom(address _from, address _to, uint256 _id) external payable {\n        this.safeTransferFrom(_from, _to, _id, \"\");\n    }\n\n    /// @notice Query if an address is an authorized operator for another address.\n    /// @param _owner The address that owns the items.\n    /// @param _operator The address that acts on behalf of the owner.\n    /// @return True if `_operator` is an approved operator for `_owner`, false otherwise.\n    function isApprovedForAll(address _owner, address _operator) external view returns (bool) {\n        return approvedForAll[_owner][_operator];\n    }\n    \n    /// @notice Enable or disable approval for a third party (\"operator\") to manage\n    ///  all of `msg.sender`'s assets.\n    /// @param _operator Address to add to the set of authorized operators.\n    /// @param _approved True if the operator is approved, false to revoke approval.\n    function setApprovalForAll(address _operator, bool _approved) external {\n        approvedForAll[msg.sender][_operator] = _approved;\n        emit ApprovalForAll(msg.sender, _operator, _approved);\n    }\n\n    ///@notice This function can be used to iterate through all items of a user,\n    ///in combination with balanceOf(_owner). This is the only way to return all\n    ///items an address owns.\n    function getItemByIndex(address _owner, uint _index) public view \n    returns(\n        uint id,\n        uint equipmentType,\n        uint16 img,\n        uint16 stat1,\n        uint16 stat2,\n        uint8 rarity,\n        address ownerAddress,\n        bool onAuction\n    ) {\n        User storage user = users[_owner];\n        require(user.items.length >= _index, \"Owner dont have that many items.\");\n        return getItem(_owner, _index);\n\n    }\n    ///@notice This function can be used to iterate through all items of a user,\n    ///in combination with balanceOf(_owner). This is the only way to return all\n    ///items an address owns.\n    function getItemByID(address _owner, uint _id) public view \n    returns(\n        uint id,\n        uint equipmentType,\n        uint16 img,\n        uint16 stat1,\n        uint16 stat2,\n        uint8 rarity,\n        address ownerAddress,\n        bool onAuction\n    ) {\n        require(itemIsInGame(_id));\n        require(ownerOfItem[_id] == _owner, \"Thats not the owner of the item\");\n        return getItem(_owner, users[_owner].indexOfItem[_id]);\n\n    }\n    \n    function upgrade(address _owner, uint _id1, uint _id2, uint _id3) \n    external {\n        User storage user = users[_owner];\n        //check that items are all owned by the given address\n        require(\n            ownerOfItem[_id1] == ownerOfItem[_id2] &&\n            ownerOfItem[_id1] == ownerOfItem[_id3] &&\n            address(ownerOfItem[_id1]) == _owner,\n            \"All items are not owned by that address.\"\n        );\n        //Check that caller has authority over the account\n        require(\n            msg.sender == _owner ||\n            approvedForAll[_owner][msg.sender],\n            \"You dont have the authority to do that.\"\n        );\n        //Check that items are not approved for trade\n        require(\n            itemApprovals[_id1] == itemApprovals[_id2] &&\n            itemApprovals[_id1] == itemApprovals[_id3] &&\n             itemApprovals[_id1] == address(0),\n            \"Items cant be approved for trade\"\n        );\n        //check that items are not up for auction\n        require(\n            !isOnAuction(_id1) &&\n            !isOnAuction(_id2) && \n            !isOnAuction(_id3),\n            \"Cant upgrade items that are up for auction\"\n        );\n        \n        //check that items are of same rarity\n        uint8 rarity = user.items[user.indexOfItem[_id1]].rarity;\n        require(\n            rarity == user.items[user.indexOfItem[_id2]].rarity &&\n            rarity == user.items[user.indexOfItem[_id3]].rarity,\n            \"The items must be of same rarity\"\n        );        \n        //check that items are not legendary\n        require(\n            rarity != 4,\n            \"The items must not be legendary\"\n        );\n        //upgrade items\n        upgradeItems(_owner, _id1, _id2, _id3);\n    }\n\n}",
  "sourcePath": "F:\\coding\\test\\contracts\\ItemOwnership.sol",
  "compiler": {
    "name": "solc",
    "version": "0.5.0+commit.1d4f565a.Emscripten.clang"
  },
  "schemaVersion": "3.0.1",
  "updatedAt": "2019-04-13T15:18:58.477Z",
  "devdoc": {
    "methods": {
      "supportsInterface(bytes4)": {
        "details": "Interface identification is specified in ERC-165. This function uses less than 30,000 gas.",
        "params": {
          "interfaceID": "The interface identifier, as specified in ERC-165."
        },
        "return": "`true` if the contract implements `interfaceID` and `interfaceID` is not 0xffffffff, `false` otherwise."
      }
    }
  },
  "userdoc": {
    "methods": {
      "supportsInterface(bytes4)": {
        "notice": "Query if a contract implements an interface."
      }
    }
  }
}