{
  "contractName": "ItemOwnership",
  "abi": [
    {
      "constant": false,
      "inputs": [
        {
          "name": "_equipmentType",
          "type": "uint256"
        },
        {
          "name": "_img",
          "type": "uint16"
        },
        {
          "name": "_stat1",
          "type": "uint16"
        },
        {
          "name": "_stat2",
          "type": "uint16"
        },
        {
          "name": "_rarity",
          "type": "uint8"
        },
        {
          "name": "_owner",
          "type": "address"
        }
      ],
      "name": "createItem",
      "outputs": [
        {
          "name": "",
          "type": "uint256"
        }
      ],
      "payable": false,
      "stateMutability": "nonpayable",
      "type": "function",
      "signature": "0x838624d1"
    },
    {
      "constant": true,
      "inputs": [],
      "name": "numberOfItems",
      "outputs": [
        {
          "name": "",
          "type": "uint256"
        }
      ],
      "payable": false,
      "stateMutability": "view",
      "type": "function",
      "signature": "0x842296d4"
    },
    {
      "constant": true,
      "inputs": [],
      "name": "ids",
      "outputs": [
        {
          "name": "",
          "type": "uint256"
        }
      ],
      "payable": false,
      "stateMutability": "view",
      "type": "function",
      "signature": "0xe7657e15"
    },
    {
      "constant": true,
      "inputs": [
        {
          "name": "",
          "type": "uint256"
        }
      ],
      "name": "itemApprovals",
      "outputs": [
        {
          "name": "",
          "type": "address"
        }
      ],
      "payable": false,
      "stateMutability": "view",
      "type": "function",
      "signature": "0xf39e70ba"
    },
    {
      "inputs": [],
      "payable": false,
      "stateMutability": "nonpayable",
      "type": "constructor",
      "signature": "constructor"
    },
    {
      "anonymous": false,
      "inputs": [
        {
          "indexed": false,
          "name": "owner",
          "type": "address"
        },
        {
          "indexed": false,
          "name": "id",
          "type": "uint256"
        },
        {
          "indexed": false,
          "name": "equipmentType",
          "type": "uint256"
        },
        {
          "indexed": false,
          "name": "img",
          "type": "uint16"
        },
        {
          "indexed": false,
          "name": "stats",
          "type": "uint16[2]"
        },
        {
          "indexed": false,
          "name": "rarity",
          "type": "uint8"
        }
      ],
      "name": "MintItem",
      "type": "event",
      "signature": "0x8c7f49bc6bb258a4957b508717a1f0f0b1015c972c8adf7c566f1587f9ec7096"
    },
    {
      "anonymous": false,
      "inputs": [
        {
          "indexed": true,
          "name": "_from",
          "type": "address"
        },
        {
          "indexed": true,
          "name": "_to",
          "type": "address"
        },
        {
          "indexed": true,
          "name": "_tokenId",
          "type": "uint256"
        }
      ],
      "name": "Transfer",
      "type": "event",
      "signature": "0xddf252ad1be2c89b69c2b068fc378daa952ba7f163c4a11628f55a4df523b3ef"
    },
    {
      "anonymous": false,
      "inputs": [
        {
          "indexed": true,
          "name": "_owner",
          "type": "address"
        },
        {
          "indexed": true,
          "name": "_approved",
          "type": "address"
        },
        {
          "indexed": true,
          "name": "_tokenId",
          "type": "uint256"
        }
      ],
      "name": "Approval",
      "type": "event",
      "signature": "0x8c5be1e5ebec7d5bd14f71427d1e84f3dd0314c0f7b2291e5b200ac8c7c3b925"
    },
    {
      "anonymous": false,
      "inputs": [
        {
          "indexed": true,
          "name": "_owner",
          "type": "address"
        },
        {
          "indexed": true,
          "name": "_operator",
          "type": "address"
        },
        {
          "indexed": false,
          "name": "_approved",
          "type": "bool"
        }
      ],
      "name": "ApprovalForAll",
      "type": "event",
      "signature": "0x17307eab39ab6107e8899845ad3d59bd9653f200f220920489ca2b5937696c31"
    },
    {
      "constant": true,
      "inputs": [],
      "name": "getNumber",
      "outputs": [
        {
          "name": "",
          "type": "uint256"
        }
      ],
      "payable": false,
      "stateMutability": "view",
      "type": "function",
      "signature": "0xf2c9ecd8"
    },
    {
      "constant": true,
      "inputs": [
        {
          "name": "_account",
          "type": "address"
        }
      ],
      "name": "balanceOf",
      "outputs": [
        {
          "name": "",
          "type": "uint256"
        }
      ],
      "payable": false,
      "stateMutability": "view",
      "type": "function",
      "signature": "0x70a08231"
    },
    {
      "constant": true,
      "inputs": [],
      "name": "getStatInformation",
      "outputs": [
        {
          "name": "",
          "type": "uint8[4][6]"
        }
      ],
      "payable": false,
      "stateMutability": "view",
      "type": "function",
      "signature": "0x0cd904e6"
    },
    {
      "constant": true,
      "inputs": [],
      "name": "totalSupply",
      "outputs": [
        {
          "name": "",
          "type": "uint256"
        }
      ],
      "payable": false,
      "stateMutability": "view",
      "type": "function",
      "signature": "0x18160ddd"
    },
    {
      "constant": true,
      "inputs": [
        {
          "name": "_id",
          "type": "uint256"
        }
      ],
      "name": "ownerOf",
      "outputs": [
        {
          "name": "",
          "type": "address"
        }
      ],
      "payable": false,
      "stateMutability": "view",
      "type": "function",
      "signature": "0x6352211e"
    },
    {
      "constant": false,
      "inputs": [
        {
          "name": "",
          "type": "address"
        },
        {
          "name": "",
          "type": "address"
        },
        {
          "name": "",
          "type": "uint256"
        },
        {
          "name": "",
          "type": "bytes"
        }
      ],
      "name": "onERC721Received",
      "outputs": [
        {
          "name": "",
          "type": "bytes4"
        }
      ],
      "payable": false,
      "stateMutability": "nonpayable",
      "type": "function",
      "signature": "0x150b7a02"
    },
    {
      "constant": false,
      "inputs": [
        {
          "name": "_to",
          "type": "address"
        },
        {
          "name": "_id",
          "type": "uint256"
        }
      ],
      "name": "approve",
      "outputs": [],
      "payable": true,
      "stateMutability": "payable",
      "type": "function",
      "signature": "0x095ea7b3"
    },
    {
      "constant": true,
      "inputs": [
        {
          "name": "_id",
          "type": "uint256"
        }
      ],
      "name": "getApproved",
      "outputs": [
        {
          "name": "",
          "type": "address"
        }
      ],
      "payable": false,
      "stateMutability": "view",
      "type": "function",
      "signature": "0x081812fc"
    },
    {
      "constant": false,
      "inputs": [
        {
          "name": "_from",
          "type": "address"
        },
        {
          "name": "_to",
          "type": "address"
        },
        {
          "name": "_id",
          "type": "uint256"
        }
      ],
      "name": "transferFrom",
      "outputs": [],
      "payable": true,
      "stateMutability": "payable",
      "type": "function",
      "signature": "0x23b872dd"
    },
    {
      "constant": false,
      "inputs": [
        {
          "name": "_from",
          "type": "address"
        },
        {
          "name": "_to",
          "type": "address"
        },
        {
          "name": "_id",
          "type": "uint256"
        }
      ],
      "name": "safeTransferFrom",
      "outputs": [],
      "payable": true,
      "stateMutability": "payable",
      "type": "function",
      "signature": "0x42842e0e"
    },
    {
      "constant": false,
      "inputs": [
        {
          "name": "_from",
          "type": "address"
        },
        {
          "name": "_to",
          "type": "address"
        },
        {
          "name": "_id",
          "type": "uint256"
        },
        {
          "name": "data",
          "type": "bytes"
        }
      ],
      "name": "safeTransferFrom",
      "outputs": [],
      "payable": true,
      "stateMutability": "payable",
      "type": "function",
      "signature": "0xb88d4fde"
    },
    {
      "constant": true,
      "inputs": [
        {
          "name": "_owner",
          "type": "address"
        },
        {
          "name": "_operator",
          "type": "address"
        }
      ],
      "name": "isApprovedForAll",
      "outputs": [
        {
          "name": "",
          "type": "bool"
        }
      ],
      "payable": false,
      "stateMutability": "view",
      "type": "function",
      "signature": "0xe985e9c5"
    },
    {
      "constant": false,
      "inputs": [
        {
          "name": "_operator",
          "type": "address"
        },
        {
          "name": "_approved",
          "type": "bool"
        }
      ],
      "name": "setApprovalForAll",
      "outputs": [],
      "payable": false,
      "stateMutability": "nonpayable",
      "type": "function",
      "signature": "0xa22cb465"
    },
    {
      "constant": true,
      "inputs": [
        {
          "name": "_owner",
          "type": "address"
        },
        {
          "name": "_index",
          "type": "uint256"
        }
      ],
      "name": "getItemByIndex",
      "outputs": [
        {
          "name": "id",
          "type": "uint256"
        },
        {
          "name": "equipmentType",
          "type": "uint256"
        },
        {
          "name": "img",
          "type": "uint16"
        },
        {
          "name": "stat1",
          "type": "uint16"
        },
        {
          "name": "stat2",
          "type": "uint16"
        },
        {
          "name": "rarity",
          "type": "uint8"
        },
        {
          "name": "ownerAddress",
          "type": "address"
        }
      ],
      "payable": false,
      "stateMutability": "view",
      "type": "function",
      "signature": "0x5ee9221e"
    },
    {
      "constant": true,
      "inputs": [
        {
          "name": "_owner",
          "type": "address"
        },
        {
          "name": "_id",
          "type": "uint256"
        }
      ],
      "name": "getItemByID",
      "outputs": [
        {
          "name": "id",
          "type": "uint256"
        },
        {
          "name": "equipmentType",
          "type": "uint256"
        },
        {
          "name": "img",
          "type": "uint16"
        },
        {
          "name": "stat1",
          "type": "uint16"
        },
        {
          "name": "stat2",
          "type": "uint16"
        },
        {
          "name": "rarity",
          "type": "uint8"
        },
        {
          "name": "ownerAddress",
          "type": "address"
        }
      ],
      "payable": false,
      "stateMutability": "view",
      "type": "function",
      "signature": "0xd662dde4"
    },
    {
      "constant": false,
      "inputs": [
        {
          "name": "_owner",
          "type": "address"
        },
        {
          "name": "_id1",
          "type": "uint256"
        },
        {
          "name": "_id2",
          "type": "uint256"
        },
        {
          "name": "_id3",
          "type": "uint256"
        }
      ],
      "name": "upgrade",
      "outputs": [
        {
          "name": "",
          "type": "uint256"
        }
      ],
      "payable": false,
      "stateMutability": "nonpayable",
      "type": "function",
      "signature": "0xd5b4688c"
    }
  ],
  "bytecode": "0x608060405260c060405190810160405280608060405190810160405280603260ff168152602001600f60ff168152602001606460ff168152602001601e60ff168152508152602001608060405190810160405280603260ff168152602001600560ff168152602001609660ff168152602001600a60ff168152508152602001608060405190810160405280600560ff168152602001600f60ff168152602001600a60ff168152602001601e60ff168152508152602001608060405190810160405280604660ff168152602001600f60ff168152602001603260ff168152602001601460ff168152508152602001608060405190810160405280609660ff168152602001600860ff16815260200160c860ff168152602001601460ff168152508152602001608060405190810160405280606460ff168152602001600a60ff16815260200160fa60ff168152602001602360ff1681525081525060009060066200016a92919062000615565b506005600d553480156200017d57600080fd5b5033600c60006101000a81548173ffffffffffffffffffffffffffffffffffffffff021916908373ffffffffffffffffffffffffffffffffffffffff160217905550620001f660046001603260028073940819a549a6a5f5e55dab8d4c4d0c6c045fffaf620002a5640100000000026401000000009004565b506200022e60046001603260028073940819a549a6a5f5e55dab8d4c4d0c6c045fffaf620002a5640100000000026401000000009004565b506200026660046001603260028073940819a549a6a5f5e55dab8d4c4d0c6c045fffaf620002a5640100000000026401000000009004565b506200029e60046001603260028073940819a549a6a5f5e55dab8d4c4d0c6c045fffaf620002a5640100000000026401000000009004565b50620008af565b6000600660008154809291906001019190505550620002c36200066a565b60a06040519081016040528060065481526020018981526020018861ffff16815260200160408051908101604052808961ffff1661ffff1681526020018861ffff1661ffff1681525081526020018560ff1681525090506001600860008573ffffffffffffffffffffffffffffffffffffffff1673ffffffffffffffffffffffffffffffffffffffff1681526020019081526020016000206000018290806001815401808255809150509060018203906000526020600020906005020160009091929091909150600082015181600001556020820151816001015560408201518160020160006101000a81548161ffff021916908361ffff160217905550606082015181600301906002620003da929190620006a9565b5060808201518160040160006101000a81548160ff021916908360ff160217905550505003600860008573ffffffffffffffffffffffffffffffffffffffff1673ffffffffffffffffffffffffffffffffffffffff16815260200190815260200160002060010160006006548152602001908152602001600020819055508260096000600654815260200190815260200160002060006101000a81548173ffffffffffffffffffffffffffffffffffffffff021916908373ffffffffffffffffffffffffffffffffffffffff1602179055506007600081548092919060010191905055507f8c7f49bc6bb258a4957b508717a1f0f0b1015c972c8adf7c566f1587f9ec7096836006548a8a60408051908101604052808c61ffff1661ffff1681526020018b61ffff1661ffff1681525089604051808773ffffffffffffffffffffffffffffffffffffffff1673ffffffffffffffffffffffffffffffffffffffff1681526020018681526020018581526020018461ffff1661ffff16815260200183600260200280838360005b838110156200058457808201518184015260208101905062000567565b505050509050018260ff1660ff168152602001965050505050505060405180910390a16006548373ffffffffffffffffffffffffffffffffffffffff16600073ffffffffffffffffffffffffffffffffffffffff167fddf252ad1be2c89b69c2b068fc378daa952ba7f163c4a11628f55a4df523b3ef60405160405180910390a46006549150509695505050505050565b826006810192821562000657579160200282015b828111156200065657825182906004620006459291906200074d565b509160200191906001019062000629565b5b509050620006669190620007ee565b5090565b60c0604051908101604052806000815260200160008152602001600061ffff168152602001620006996200081f565b8152602001600060ff1681525090565b826002600f016010900481019282156200073a5791602002820160005b838211156200070857835183826101000a81548161ffff021916908361ffff1602179055509260200192600201602081600101049283019260010302620006c6565b8015620007385782816101000a81549061ffff021916905560020160208160010104928301926001030262000708565b505b50905062000749919062000841565b5090565b826004601f01602090048101928215620007db5791602002820160005b83821115620007aa57835183826101000a81548160ff021916908360ff16021790555092602001926001016020816000010492830192600103026200076a565b8015620007d95782816101000a81549060ff0219169055600101602081600001049283019260010302620007aa565b505b509050620007ea919062000875565b5090565b6200081c91905b808211156200081857600081816200080e9190620008a8565b50600101620007f5565b5090565b90565b6040805190810160405280600290602082028038833980820191505090505090565b6200087291905b808211156200086e57600081816101000a81549061ffff02191690555060010162000848565b5090565b90565b620008a591905b80821115620008a157600081816101000a81549060ff0219169055506001016200087c565b5090565b90565b5060009055565b613d7080620008bf6000396000f3fe608060405260043610610112576000357c0100000000000000000000000000000000000000000000000000000000900463ffffffff168063081812fc14610117578063095ea7b3146101925780630cd904e6146101e0578063150b7a021461025657806318160ddd1461037857806323b872dd146103a357806342842e0e146104115780635ee9221e1461047f5780636352211e1461056257806370a08231146105dd578063838624d114610642578063842296d4146106e8578063a22cb46514610713578063b88d4fde14610770578063d5b4688c14610833578063d662dde4146108b6578063e7657e1514610999578063e985e9c5146109c4578063f2c9ecd814610a4d578063f39e70ba14610a78575b600080fd5b34801561012357600080fd5b506101506004803603602081101561013a57600080fd5b8101908080359060200190929190505050610af3565b604051808273ffffffffffffffffffffffffffffffffffffffff1673ffffffffffffffffffffffffffffffffffffffff16815260200191505060405180910390f35b6101de600480360360408110156101a857600080fd5b81019080803573ffffffffffffffffffffffffffffffffffffffff16906020019092919080359060200190929190505050610b3a565b005b3480156101ec57600080fd5b506101f5610d95565b604051808260066000925b818410156102465782846020020151600460200280838360005b8381101561023557808201518184015260208101905061021a565b505050509050019260010192610200565b9250505091505060405180910390f35b34801561026257600080fd5b506103246004803603608081101561027957600080fd5b81019080803573ffffffffffffffffffffffffffffffffffffffff169060200190929190803573ffffffffffffffffffffffffffffffffffffffff16906020019092919080359060200190929190803590602001906401000000008111156102e057600080fd5b8201836020820111156102f257600080fd5b8035906020019184600183028401116401000000008311171561031457600080fd5b9091929391929390505050610e3b565b60405180827bffffffffffffffffffffffffffffffffffffffffffffffffffffffff19167bffffffffffffffffffffffffffffffffffffffffffffffffffffffff1916815260200191505060405180910390f35b34801561038457600080fd5b5061038d610ea4565b6040518082815260200191505060405180910390f35b61040f600480360360608110156103b957600080fd5b81019080803573ffffffffffffffffffffffffffffffffffffffff169060200190929190803573ffffffffffffffffffffffffffffffffffffffff16906020019092919080359060200190929190505050610eae565b005b61047d6004803603606081101561042757600080fd5b81019080803573ffffffffffffffffffffffffffffffffffffffff169060200190929190803573ffffffffffffffffffffffffffffffffffffffff16906020019092919080359060200190929190505050611157565b005b34801561048b57600080fd5b506104d8600480360360408110156104a257600080fd5b81019080803573ffffffffffffffffffffffffffffffffffffffff1690602001909291908035906020019092919050505061125f565b604051808881526020018781526020018661ffff1661ffff1681526020018561ffff1661ffff1681526020018461ffff1661ffff1681526020018360ff1660ff1681526020018273ffffffffffffffffffffffffffffffffffffffff1673ffffffffffffffffffffffffffffffffffffffff16815260200197505050505050505060405180910390f35b34801561056e57600080fd5b5061059b6004803603602081101561058557600080fd5b8101908080359060200190929190505050611350565b604051808273ffffffffffffffffffffffffffffffffffffffff1673ffffffffffffffffffffffffffffffffffffffff16815260200191505060405180910390f35b3480156105e957600080fd5b5061062c6004803603602081101561060057600080fd5b81019080803573ffffffffffffffffffffffffffffffffffffffff16906020019092919050505061138d565b6040518082815260200191505060405180910390f35b34801561064e57600080fd5b506106d2600480360360c081101561066557600080fd5b8101908080359060200190929190803561ffff169060200190929190803561ffff169060200190929190803561ffff169060200190929190803560ff169060200190929190803573ffffffffffffffffffffffffffffffffffffffff1690602001909291905050506113dc565b6040518082815260200191505060405180910390f35b3480156106f457600080fd5b506106fd611746565b6040518082815260200191505060405180910390f35b34801561071f57600080fd5b5061076e6004803603604081101561073657600080fd5b81019080803573ffffffffffffffffffffffffffffffffffffffff16906020019092919080351515906020019092919050505061174c565b005b6108316004803603608081101561078657600080fd5b81019080803573ffffffffffffffffffffffffffffffffffffffff169060200190929190803573ffffffffffffffffffffffffffffffffffffffff16906020019092919080359060200190929190803590602001906401000000008111156107ed57600080fd5b8201836020820111156107ff57600080fd5b8035906020019184600183028401116401000000008311171561082157600080fd5b909192939192939050505061184d565b005b34801561083f57600080fd5b506108a06004803603608081101561085657600080fd5b81019080803573ffffffffffffffffffffffffffffffffffffffff169060200190929190803590602001909291908035906020019092919080359060200190929190505050611aef565b6040518082815260200191505060405180910390f35b3480156108c257600080fd5b5061090f600480360360408110156108d957600080fd5b81019080803573ffffffffffffffffffffffffffffffffffffffff169060200190929190803590602001909291905050506122c7565b604051808881526020018781526020018661ffff1661ffff1681526020018561ffff1661ffff1681526020018461ffff1661ffff1681526020018360ff1660ff1681526020018273ffffffffffffffffffffffffffffffffffffffff1673ffffffffffffffffffffffffffffffffffffffff16815260200197505050505050505060405180910390f35b3480156109a557600080fd5b506109ae612429565b6040518082815260200191505060405180910390f35b3480156109d057600080fd5b50610a33600480360360408110156109e757600080fd5b81019080803573ffffffffffffffffffffffffffffffffffffffff169060200190929190803573ffffffffffffffffffffffffffffffffffffffff16906020019092919050505061242f565b604051808215151515815260200191505060405180910390f35b348015610a5957600080fd5b50610a626124c3565b6040518082815260200191505060405180910390f35b348015610a8457600080fd5b50610ab160048036036020811015610a9b57600080fd5b81019080803590602001909291905050506124cd565b604051808273ffffffffffffffffffffffffffffffffffffffff1673ffffffffffffffffffffffffffffffffffffffff16815260200191505060405180910390f35b6000610afe82612500565b50600a600083815260200190815260200160002060009054906101000a900473ffffffffffffffffffffffffffffffffffffffff169050919050565b610b4381612500565b5060006009600083815260200190815260200160002060009054906101000a900473ffffffffffffffffffffffffffffffffffffffff1690503373ffffffffffffffffffffffffffffffffffffffff168173ffffffffffffffffffffffffffffffffffffffff161480610c5e5750600b6000600c60009054906101000a900473ffffffffffffffffffffffffffffffffffffffff1673ffffffffffffffffffffffffffffffffffffffff1673ffffffffffffffffffffffffffffffffffffffff16815260200190815260200160002060003373ffffffffffffffffffffffffffffffffffffffff1673ffffffffffffffffffffffffffffffffffffffff16815260200190815260200160002060009054906101000a900460ff165b1515610cf8576040517f08c379a00000000000000000000000000000000000000000000000000000000081526004018080602001828103825260258152602001807f4d757374206265206f776e6572206f72206f70657261746f72206f662074686581526020017f206974656d00000000000000000000000000000000000000000000000000000081525060400191505060405180910390fd5b610d028383612663565b818373ffffffffffffffffffffffffffffffffffffffff166009600085815260200190815260200160002060009054906101000a900473ffffffffffffffffffffffffffffffffffffffff1673ffffffffffffffffffffffffffffffffffffffff167f8c5be1e5ebec7d5bd14f71427d1e84f3dd0314c0f7b2291e5b200ac8c7c3b92560405160405180910390a4505050565b610d9d613ad9565b6000600680602002604051908101604052809291906000905b82821015610e3257838201600480602002604051908101604052809291908260048015610e1e576020028201916000905b82829054906101000a900460ff1660ff1681526020019060010190602082600001049283019260010382029150808411610de75790505b505050505081526020019060010190610db6565b50505050905090565b600060405180807f6f6e455243373231526563656976656428616464726573732c6164647265737381526020017f2c75696e743235362c6279746573290000000000000000000000000000000000815250602f0190506040518091039020905095945050505050565b6000600754905090565b60006009600083815260200190815260200160002060009054906101000a900473ffffffffffffffffffffffffffffffffffffffff169050610eef82612500565b50610efa33836126b9565b80610f3057503373ffffffffffffffffffffffffffffffffffffffff168173ffffffffffffffffffffffffffffffffffffffff16145b80610fe35750600b6000600c60009054906101000a900473ffffffffffffffffffffffffffffffffffffffff1673ffffffffffffffffffffffffffffffffffffffff1673ffffffffffffffffffffffffffffffffffffffff16815260200190815260200160002060003373ffffffffffffffffffffffffffffffffffffffff1673ffffffffffffffffffffffffffffffffffffffff16815260200190815260200160002060009054906101000a900460ff165b151561107d576040517f08c379a00000000000000000000000000000000000000000000000000000000081526004018080602001828103825260268152602001807f446f6573206e6f74206861766520617574686f72697479206f7665722074686181526020017f74206974656d000000000000000000000000000000000000000000000000000081525060400191505060405180910390fd5b8373ffffffffffffffffffffffffffffffffffffffff168173ffffffffffffffffffffffffffffffffffffffff16141515611146576040517f08c379a00000000000000000000000000000000000000000000000000000000081526004018080602001828103825260288152602001807f546865206974656d20646f6573206e6f742062656c6f6e6720746f207468617481526020017f206163636f756e7400000000000000000000000000000000000000000000000081525060400191505060405180910390fd5b611151848484612725565b50505050565b3073ffffffffffffffffffffffffffffffffffffffff1663b88d4fde8484846040518463ffffffff167c0100000000000000000000000000000000000000000000000000000000028152600401808473ffffffffffffffffffffffffffffffffffffffff1673ffffffffffffffffffffffffffffffffffffffff1681526020018373ffffffffffffffffffffffffffffffffffffffff1673ffffffffffffffffffffffffffffffffffffffff16815260200182815260200180602001828103825260008152602001602001945050505050600060405180830381600087803b15801561124257600080fd5b505af1158015611256573d6000803e3d6000fd5b50505050505050565b600080600080600080600080600860008b73ffffffffffffffffffffffffffffffffffffffff1673ffffffffffffffffffffffffffffffffffffffff16815260200190815260200160002090508881600001805490501015151561132b576040517f08c379a00000000000000000000000000000000000000000000000000000000081526004018080602001828103825260208152602001807f4f776e657220646f6e7420686176652074686174206d616e79206974656d732e81525060200191505060405180910390fd5b6113358a8a612f4f565b97509750975097509750975097505092959891949750929550565b60006009600083815260200190815260200160002060009054906101000a900473ffffffffffffffffffffffffffffffffffffffff169050919050565b6000600860008373ffffffffffffffffffffffffffffffffffffffff1673ffffffffffffffffffffffffffffffffffffffff168152602001908152602001600020600001805490509050919050565b60006006600081548092919060010191905055506113f8613b08565b60a06040519081016040528060065481526020018981526020018861ffff16815260200160408051908101604052808961ffff1661ffff1681526020018861ffff1661ffff1681525081526020018560ff1681525090506001600860008573ffffffffffffffffffffffffffffffffffffffff1673ffffffffffffffffffffffffffffffffffffffff1681526020019081526020016000206000018290806001815401808255809150509060018203906000526020600020906005020160009091929091909150600082015181600001556020820151816001015560408201518160020160006101000a81548161ffff021916908361ffff16021790555060608201518160030190600261150d929190613b45565b5060808201518160040160006101000a81548160ff021916908360ff160217905550505003600860008573ffffffffffffffffffffffffffffffffffffffff1673ffffffffffffffffffffffffffffffffffffffff16815260200190815260200160002060010160006006548152602001908152602001600020819055508260096000600654815260200190815260200160002060006101000a81548173ffffffffffffffffffffffffffffffffffffffff021916908373ffffffffffffffffffffffffffffffffffffffff1602179055506007600081548092919060010191905055507f8c7f49bc6bb258a4957b508717a1f0f0b1015c972c8adf7c566f1587f9ec7096836006548a8a60408051908101604052808c61ffff1661ffff1681526020018b61ffff1661ffff1681525089604051808773ffffffffffffffffffffffffffffffffffffffff1673ffffffffffffffffffffffffffffffffffffffff1681526020018681526020018581526020018461ffff1661ffff16815260200183600260200280838360005b838110156116b557808201518184015260208101905061169a565b505050509050018260ff1660ff168152602001965050505050505060405180910390a16006548373ffffffffffffffffffffffffffffffffffffffff16600073ffffffffffffffffffffffffffffffffffffffff167fddf252ad1be2c89b69c2b068fc378daa952ba7f163c4a11628f55a4df523b3ef60405160405180910390a46006549150509695505050505050565b60075481565b80600b60003373ffffffffffffffffffffffffffffffffffffffff1673ffffffffffffffffffffffffffffffffffffffff16815260200190815260200160002060008473ffffffffffffffffffffffffffffffffffffffff1673ffffffffffffffffffffffffffffffffffffffff16815260200190815260200160002060006101000a81548160ff0219169083151502179055508173ffffffffffffffffffffffffffffffffffffffff163373ffffffffffffffffffffffffffffffffffffffff167f17307eab39ab6107e8899845ad3d59bd9653f200f220920489ca2b5937696c3183604051808215151515815260200191505060405180910390a35050565b611858858585610eae565b6118618461305d565b15611ae857600084905060405180807f6f6e455243373231526563656976656428616464726573732c6164647265737381526020017f2c75696e743235362c6279746573290000000000000000000000000000000000815250602f01905060405180910390207bffffffffffffffffffffffffffffffffffffffffffffffffffffffff19168173ffffffffffffffffffffffffffffffffffffffff1663150b7a0233898888886040518663ffffffff167c0100000000000000000000000000000000000000000000000000000000028152600401808673ffffffffffffffffffffffffffffffffffffffff1673ffffffffffffffffffffffffffffffffffffffff1681526020018573ffffffffffffffffffffffffffffffffffffffff1673ffffffffffffffffffffffffffffffffffffffff168152602001848152602001806020018281038252848482818152602001925080828437600081840152601f19601f8201169050808301925050509650505050505050602060405180830381600087803b1580156119f157600080fd5b505af1158015611a05573d6000803e3d6000fd5b505050506040513d6020811015611a1b57600080fd5b81019080805190602001909291905050507bffffffffffffffffffffffffffffffffffffffffffffffffffffffff1916141515611ae6576040517f08c379a000000000000000000000000000000000000000000000000000000000815260040180806020018281038252602b8152602001807f436f6e74726163747320646f6e277420696d706c656d656e742074686520736181526020017f6d65207374616e6461726400000000000000000000000000000000000000000081525060400191505060405180910390fd5b505b5050505050565b600080600860008773ffffffffffffffffffffffffffffffffffffffff1673ffffffffffffffffffffffffffffffffffffffff16815260200190815260200160002090506009600085815260200190815260200160002060009054906101000a900473ffffffffffffffffffffffffffffffffffffffff1673ffffffffffffffffffffffffffffffffffffffff166009600087815260200190815260200160002060009054906101000a900473ffffffffffffffffffffffffffffffffffffffff1673ffffffffffffffffffffffffffffffffffffffff16148015611c6557506009600084815260200190815260200160002060009054906101000a900473ffffffffffffffffffffffffffffffffffffffff1673ffffffffffffffffffffffffffffffffffffffff166009600087815260200190815260200160002060009054906101000a900473ffffffffffffffffffffffffffffffffffffffff1673ffffffffffffffffffffffffffffffffffffffff16145b8015611ccf57508573ffffffffffffffffffffffffffffffffffffffff166009600087815260200190815260200160002060009054906101000a900473ffffffffffffffffffffffffffffffffffffffff1673ffffffffffffffffffffffffffffffffffffffff16145b1515611d69576040517f08c379a00000000000000000000000000000000000000000000000000000000081526004018080602001828103825260288152602001807f416c6c206974656d7320617265206e6f74206f776e656420627920746861742081526020017f616464726573732e00000000000000000000000000000000000000000000000081525060400191505060405180910390fd5b8573ffffffffffffffffffffffffffffffffffffffff163373ffffffffffffffffffffffffffffffffffffffff161480611e295750600b60008773ffffffffffffffffffffffffffffffffffffffff1673ffffffffffffffffffffffffffffffffffffffff16815260200190815260200160002060003373ffffffffffffffffffffffffffffffffffffffff1673ffffffffffffffffffffffffffffffffffffffff16815260200190815260200160002060009054906101000a900460ff165b1515611ec3576040517f08c379a00000000000000000000000000000000000000000000000000000000081526004018080602001828103825260278152602001807f596f7520646f6e7420686176652074686520617574686f7269747920746f206481526020017f6f20746861742e0000000000000000000000000000000000000000000000000081525060400191505060405180910390fd5b600a600085815260200190815260200160002060009054906101000a900473ffffffffffffffffffffffffffffffffffffffff1673ffffffffffffffffffffffffffffffffffffffff16600a600087815260200190815260200160002060009054906101000a900473ffffffffffffffffffffffffffffffffffffffff1673ffffffffffffffffffffffffffffffffffffffff16148015611ff55750600a600084815260200190815260200160002060009054906101000a900473ffffffffffffffffffffffffffffffffffffffff1673ffffffffffffffffffffffffffffffffffffffff16600a600087815260200190815260200160002060009054906101000a900473ffffffffffffffffffffffffffffffffffffffff1673ffffffffffffffffffffffffffffffffffffffff16145b80156120605750600073ffffffffffffffffffffffffffffffffffffffff16600a600087815260200190815260200160002060009054906101000a900473ffffffffffffffffffffffffffffffffffffffff1673ffffffffffffffffffffffffffffffffffffffff16145b15156120d4576040517f08c379a00000000000000000000000000000000000000000000000000000000081526004018080602001828103825260208152602001807f4974656d732063616e7420626520617070726f76656420666f7220747261646581525060200191505060405180910390fd5b600081600001826001016000888152602001908152602001600020548154811015156120fc57fe5b906000526020600020906005020160040160009054906101000a900460ff169050816000018260010160008781526020019081526020016000205481548110151561214357fe5b906000526020600020906005020160040160009054906101000a900460ff1660ff168160ff161480156121bf5750816000018260010160008681526020019081526020016000205481548110151561219757fe5b906000526020600020906005020160040160009054906101000a900460ff1660ff168160ff16145b1515612233576040517f08c379a00000000000000000000000000000000000000000000000000000000081526004018080602001828103825260208152602001807f546865206974656d73206d757374206265206f662073616d652072617269747981525060200191505060405180910390fd5b60048160ff16141515156122af576040517f08c379a000000000000000000000000000000000000000000000000000000000815260040180806020018281038252601f8152602001807f546865206974656d73206d757374206e6f74206265206c6567656e646172790081525060200191505060405180910390fd5b6122bb87878787613070565b92505050949350505050565b60008060008060008060006122db88612500565b508873ffffffffffffffffffffffffffffffffffffffff16600960008a815260200190815260200160002060009054906101000a900473ffffffffffffffffffffffffffffffffffffffff1673ffffffffffffffffffffffffffffffffffffffff161415156123b2576040517f08c379a000000000000000000000000000000000000000000000000000000000815260040180806020018281038252601f8152602001807f5468617473206e6f7420746865206f776e6572206f6620746865206974656d0081525060200191505060405180910390fd5b61240f89600860008c73ffffffffffffffffffffffffffffffffffffffff1673ffffffffffffffffffffffffffffffffffffffff16815260200190815260200160002060010160008b815260200190815260200160002054612f4f565b965096509650965096509650965092959891949750929550565b60065481565b6000600b60008473ffffffffffffffffffffffffffffffffffffffff1673ffffffffffffffffffffffffffffffffffffffff16815260200190815260200160002060008373ffffffffffffffffffffffffffffffffffffffff1673ffffffffffffffffffffffffffffffffffffffff16815260200190815260200160002060009054906101000a900460ff16905092915050565b6000600d54905090565b600a6020528060005260406000206000915054906101000a900473ffffffffffffffffffffffffffffffffffffffff1681565b60008082118061251257506006548211155b1515612586576040517f08c379a000000000000000000000000000000000000000000000000000000000815260040180806020018281038252600f8152602001807f4964206973206e6f742076616c6964000000000000000000000000000000000081525060200191505060405180910390fd5b600073ffffffffffffffffffffffffffffffffffffffff166009600084815260200190815260200160002060009054906101000a900473ffffffffffffffffffffffffffffffffffffffff1673ffffffffffffffffffffffffffffffffffffffff161415151561265e576040517f08c379a000000000000000000000000000000000000000000000000000000000815260040180806020018281038252601f8152602001807f4974656d20697320286e6f206c6f6e6765722920696e207468652067616d650081525060200191505060405180910390fd5b919050565b81600a600083815260200190815260200160002060006101000a81548173ffffffffffffffffffffffffffffffffffffffff021916908373ffffffffffffffffffffffffffffffffffffffff1602179055505050565b60008273ffffffffffffffffffffffffffffffffffffffff16600a600084815260200190815260200160002060009054906101000a900473ffffffffffffffffffffffffffffffffffffffff1673ffffffffffffffffffffffffffffffffffffffff1614905092915050565b61272d613b08565b600860008573ffffffffffffffffffffffffffffffffffffffff1673ffffffffffffffffffffffffffffffffffffffff168152602001908152602001600020600001600860008673ffffffffffffffffffffffffffffffffffffffff1673ffffffffffffffffffffffffffffffffffffffff1681526020019081526020016000206001016000848152602001908152602001600020548154811015156127cf57fe5b906000526020600020906005020160a0604051908101604052908160008201548152602001600182015481526020016002820160009054906101000a900461ffff1661ffff1661ffff16815260200160038201600280602002604051908101604052809291908260028015612881576020028201916000905b82829054906101000a900461ffff1661ffff16815260200190600201906020826001010492830192600103820291508084116128485790505b505050505081526020016004820160009054906101000a900460ff1660ff1660ff168152505090506000600860008673ffffffffffffffffffffffffffffffffffffffff1673ffffffffffffffffffffffffffffffffffffffff1681526020019081526020016000206000018054905011151561298c576040517f08c379a00000000000000000000000000000000000000000000000000000000081526004018080602001828103825260288152602001807f4163636f756e74206d7573742068617665206974656d7320746f207472616e7381526020017f6665722066726f6d00000000000000000000000000000000000000000000000081525060400191505060405180910390fd5b6001600860008673ffffffffffffffffffffffffffffffffffffffff1673ffffffffffffffffffffffffffffffffffffffff168152602001908152602001600020600001805490501115612c6857600860008573ffffffffffffffffffffffffffffffffffffffff1673ffffffffffffffffffffffffffffffffffffffff1681526020019081526020016000206000016001600860008773ffffffffffffffffffffffffffffffffffffffff1673ffffffffffffffffffffffffffffffffffffffff1681526020019081526020016000206000018054905003815481101515612a7157fe5b9060005260206000209060050201600860008673ffffffffffffffffffffffffffffffffffffffff1673ffffffffffffffffffffffffffffffffffffffff168152602001908152602001600020600001600860008773ffffffffffffffffffffffffffffffffffffffff1673ffffffffffffffffffffffffffffffffffffffff168152602001908152602001600020600101600085815260200190815260200160002054815481101515612b2157fe5b906000526020600020906005020160008201548160000155600182015481600101556002820160009054906101000a900461ffff168160020160006101000a81548161ffff021916908361ffff1602179055506003820181600301906002612b8a929190613be2565b506004820160009054906101000a900460ff168160040160006101000a81548160ff021916908360ff160217905550905050600860008573ffffffffffffffffffffffffffffffffffffffff1673ffffffffffffffffffffffffffffffffffffffff168152602001908152602001600020600101600083815260200190815260200160002054600860008673ffffffffffffffffffffffffffffffffffffffff1673ffffffffffffffffffffffffffffffffffffffff1681526020019081526020016000206001016000848152602001908152602001600020819055505b600860008573ffffffffffffffffffffffffffffffffffffffff1673ffffffffffffffffffffffffffffffffffffffff168152602001908152602001600020600001805480919060019003612cbd9190613c2d565b506001600860008573ffffffffffffffffffffffffffffffffffffffff1673ffffffffffffffffffffffffffffffffffffffff1681526020019081526020016000206000018290806001815401808255809150509060018203906000526020600020906005020160009091929091909150600082015181600001556020820151816001015560408201518160020160006101000a81548161ffff021916908361ffff160217905550606082015181600301906002612d7c929190613b45565b5060808201518160040160006101000a81548160ff021916908360ff160217905550505003600860008573ffffffffffffffffffffffffffffffffffffffff1673ffffffffffffffffffffffffffffffffffffffff16815260200190815260200160002060010160006006548152602001908152602001600020819055508260096000600654815260200190815260200160002060006101000a81548173ffffffffffffffffffffffffffffffffffffffff021916908373ffffffffffffffffffffffffffffffffffffffff160217905550600073ffffffffffffffffffffffffffffffffffffffff16600a600084815260200190815260200160002060009054906101000a900473ffffffffffffffffffffffffffffffffffffffff1673ffffffffffffffffffffffffffffffffffffffff16141515612eee57600a600083815260200190815260200160002060006101000a81549073ffffffffffffffffffffffffffffffffffffffff02191690555b818373ffffffffffffffffffffffffffffffffffffffff168573ffffffffffffffffffffffffffffffffffffffff167fddf252ad1be2c89b69c2b068fc378daa952ba7f163c4a11628f55a4df523b3ef60405160405180910390a450505050565b600080600080600080600080600860008b73ffffffffffffffffffffffffffffffffffffffff1673ffffffffffffffffffffffffffffffffffffffff16815260200190815260200160002060000189815481101515612faa57fe5b9060005260206000209060050201905080600001549750806001015496508060020160009054906101000a900461ffff169550806003016000600281101515612fef57fe5b601091828204019190066002029054906101000a900461ffff16945080600301600160028110151561301d57fe5b601091828204019190066002029054906101000a900461ffff1693508060040160009054906101000a900460ff1692508991505092959891949750929550565b600080823b905060008111915050919050565b600080600860008773ffffffffffffffffffffffffffffffffffffffff1673ffffffffffffffffffffffffffffffffffffffff168152602001908152602001600020600001600860008873ffffffffffffffffffffffffffffffffffffffff1673ffffffffffffffffffffffffffffffffffffffff16815260200190815260200160002060010160008781526020019081526020016000205481548110151561311557fe5b906000526020600020906005020160040160009054906101000a900460ff1660ff16905060004233600654604051602001808481526020018373ffffffffffffffffffffffffffffffffffffffff1673ffffffffffffffffffffffffffffffffffffffff166c0100000000000000000000000002815260140182815260200193505050506040516020818303038152906040528051906020012060019004905060006003828115156131c357fe5b06905060008114156131d7578690506131ed565b60018114156131e8578590506131ec565b8490505b5b6131f5613b08565b600860008a73ffffffffffffffffffffffffffffffffffffffff1673ffffffffffffffffffffffffffffffffffffffff168152602001908152602001600020600001600860008b73ffffffffffffffffffffffffffffffffffffffff1673ffffffffffffffffffffffffffffffffffffffff16815260200190815260200160002060010160008481526020019081526020016000205481548110151561329757fe5b906000526020600020906005020160a0604051908101604052908160008201548152602001600182015481526020016002820160009054906101000a900461ffff1661ffff1661ffff16815260200160038201600280602002604051908101604052809291908260028015613349576020028201916000905b82829054906101000a900461ffff1661ffff16815260200190600201906020826001010492830192600103820291508084116133105790505b505050505081526020016004820160009054906101000a900460ff1660ff1660ff1681525050905061337b89896134e4565b61338589886134e4565b61338f89876134e4565b600080905060018514156133a657600190506133f8565b6002851480156133c2575060136064858115156133bf57fe5b06115b156133d057600190506133f7565b6003851480156133ec575060316064858115156133e957fe5b06115b156133f657600190505b5b5b80156134ce576134c7826020015183604001516000600186602001510360068110151561342157fe5b01600060048110151561343057fe5b602091828204019190069054906101000a900460ff1660ff168560600151600060028110151561345c57fe5b6020020151016000600187602001510360068110151561347857fe5b01600160048110151561348757fe5b602091828204019190069054906101000a900460ff1660ff16866060015160016002811015156134b357fe5b60200201510160018760800151018f6113dc565b95506134d3565b600095505b600095505050505050949350505050565b8173ffffffffffffffffffffffffffffffffffffffff166009600083815260200190815260200160002060009054906101000a900473ffffffffffffffffffffffffffffffffffffffff1673ffffffffffffffffffffffffffffffffffffffff161415156135ba576040517f08c379a000000000000000000000000000000000000000000000000000000000815260040180806020018281038252601b8152602001807f54686174207573657220646f6e74206f776e20746865206974656d000000000081525060200191505060405180910390fd5b6000600860008473ffffffffffffffffffffffffffffffffffffffff1673ffffffffffffffffffffffffffffffffffffffff1681526020019081526020016000206000018054905011151561369d576040517f08c379a00000000000000000000000000000000000000000000000000000000081526004018080602001828103825260268152602001807f4163636f756e74206d7573742068617665206974656d7320746f2072656d6f7681526020017f652066726f6e000000000000000000000000000000000000000000000000000081525060400191505060405180910390fd5b6001600860008473ffffffffffffffffffffffffffffffffffffffff1673ffffffffffffffffffffffffffffffffffffffff168152602001908152602001600020600001805490501115613983576000600860008473ffffffffffffffffffffffffffffffffffffffff1673ffffffffffffffffffffffffffffffffffffffff1681526020019081526020016000206000016001600860008673ffffffffffffffffffffffffffffffffffffffff1673ffffffffffffffffffffffffffffffffffffffff168152602001908152602001600020600001805490500381548110151561378457fe5b9060005260206000209060050201905080600860008573ffffffffffffffffffffffffffffffffffffffff1673ffffffffffffffffffffffffffffffffffffffff168152602001908152602001600020600001600860008673ffffffffffffffffffffffffffffffffffffffff1673ffffffffffffffffffffffffffffffffffffffff16815260200190815260200160002060010160008581526020019081526020016000205481548110151561383757fe5b906000526020600020906005020160008201548160000155600182015481600101556002820160009054906101000a900461ffff168160020160006101000a81548161ffff021916908361ffff16021790555060038201816003019060026138a0929190613be2565b506004820160009054906101000a900460ff168160040160006101000a81548160ff021916908360ff160217905550905050600860008473ffffffffffffffffffffffffffffffffffffffff1673ffffffffffffffffffffffffffffffffffffffff168152602001908152602001600020600101600083815260200190815260200160002054600860008573ffffffffffffffffffffffffffffffffffffffff1673ffffffffffffffffffffffffffffffffffffffff16815260200190815260200160002060010160008360000154815260200190815260200160002081905550505b600860008373ffffffffffffffffffffffffffffffffffffffff1673ffffffffffffffffffffffffffffffffffffffff1681526020019081526020016000206000018054809190600190036139d89190613c2d565b50600860008373ffffffffffffffffffffffffffffffffffffffff1673ffffffffffffffffffffffffffffffffffffffff1681526020019081526020016000206001016000828152602001908152602001600020600090556009600082815260200190815260200160002060006101000a81549073ffffffffffffffffffffffffffffffffffffffff02191690556007600081548092919060019003919050555080600073ffffffffffffffffffffffffffffffffffffffff168373ffffffffffffffffffffffffffffffffffffffff167fddf252ad1be2c89b69c2b068fc378daa952ba7f163c4a11628f55a4df523b3ef60405160405180910390a45050565b610300604051908101604052806006905b613af2613c5f565b815260200190600190039081613aea5790505090565b60c0604051908101604052806000815260200160008152602001600061ffff168152602001613b35613c82565b8152602001600060ff1681525090565b826002600f01601090048101928215613bd15791602002820160005b83821115613ba157835183826101000a81548161ffff021916908361ffff1602179055509260200192600201602081600101049283019260010302613b61565b8015613bcf5782816101000a81549061ffff0219169055600201602081600101049283019260010302613ba1565b505b509050613bde9190613ca4565b5090565b826002600f01601090048101928215613c1c5791600f016010900482015b82811115613c1b578254825591600101919060010190613c00565b5b509050613c299190613ca4565b5090565b815481835581811115613c5a57600502816005028360005260206000209182019101613c599190613cd5565b5b505050565b608060405190810160405280600490602082028038833980820191505090505090565b6040805190810160405280600290602082028038833980820191505090505090565b613cd291905b80821115613cce57600081816101000a81549061ffff021916905550600101613caa565b5090565b90565b613d3a91905b80821115613d365760008082016000905560018201600090556002820160006101000a81549061ffff0219169055600382016000613d199190613d3d565b6004820160006101000a81549060ff021916905550600501613cdb565b5090565b90565b506000905556fea165627a7a723058202039fb9574c4f08b1c04a3947f4da2004c28140e3f476f8d1708a53f34c470a40029",
  "source": "pragma solidity 0.5.0;\nimport \"./ERC.sol\";\nimport \"./ItemContract.sol\";\n\n\ncontract ERC165Implementation is ERC165 {\n    constructor () public {\n        //store that contract implements ERC165\n        supportedInterfaces[bytes4(keccak256(\"supportsInterface(bytes4)\"))] = true;\n        \n        //Store that te contract implements ERC721\n        supportedInterfaces[\n        bytes4(keccak256(\"balanceOf(address)\")) ^\n        bytes4(keccak256(\"ownerOf(uint256)\")) ^\n        bytes4(keccak256(\"safeTransferFrom(address,address,uint256,bytes\")) ^\n        bytes4(keccak256(\"safeTransferFrom(address,address,uint256\")) ^\n        bytes4(keccak256(\"transferFrom(address,address,uint256\")) ^\n        bytes4(keccak256(\"approve(address,uint256\")) ^\n        bytes4(keccak256(\"setApprovalForAll(address,bool\")) ^\n        bytes4(keccak256(\"getApproved(uint256\")) ^\n        bytes4(keccak256(\"isApprovedForAll(address,address)\")) ^\n        bytes4(keccak256(\"totalSupply()\"))\n        ] = true;\n    }\n\n    //mapping to store what interfaces are supported\n    mapping (bytes4 => bool) internal supportedInterfaces;\n\n    /// @notice Query if a contract implements an interface.\n    /// @param interfaceID The interface identifier, as specified in ERC-165.\n    /// @dev Interface identification is specified in ERC-165. This function\n    ///  uses less than 30,000 gas.\n    /// @return `true` if the contract implements `interfaceID` and\n    ///  `interfaceID` is not 0xffffffff, `false` otherwise.\n    function supportsInterface(bytes4 interfaceID) external view returns (bool) {\n        return supportedInterfaces[interfaceID];\n    }\n}\n\n\n\n\n///@title ItemOwnership is the contract that implements all ERC721 standards.\n/// This means that the contract takes care of all that has to do with ownerships.\n///@author Hvard Pedersen, B6056952.\n///@dev This will implement and make use of\n/// functions, events, and storages defined in its parent-contracts.\ncontract ItemOwnership is ERC721, ItemContract, ERC721TokenReceiver {\n    address internal owner;\n    constructor () public {\n        owner = msg.sender;\n        createItem(4, 1, 50, 2, 2, 0x940819A549A6A5f5E55dAb8d4C4d0C6c045FfFAf);\n        createItem(4, 1, 50, 2, 2, 0x940819A549A6A5f5E55dAb8d4C4d0C6c045FfFAf);\n        createItem(4, 1, 50, 2, 2, 0x940819A549A6A5f5E55dAb8d4C4d0C6c045FfFAf);\n        createItem(4, 1, 50, 2, 2, 0x940819A549A6A5f5E55dAb8d4C4d0C6c045FfFAf);\n    }\n\n\n\n\n    /*** test ***/\n    uint numberFive = 5;\n    \n    function getNumber() public view returns (uint) { \n        return numberFive;\n    }\n\n\n\n\n\n\n\n    /*** NAIVE METHODS ***/\n     \n    /// @notice Count all items assigned to an owner.\n    /// @param _account An address for whom to query the balance.\n    /// @return The number of items owned by `_owner`, possibly zero.\n    function balanceOf(address _account) external view returns (uint) {\n        return users[_account].items.length;\n    }\n    /// @notice Returns a map of map. This should be accessed as follows:\n    /// [type][value], where type is weapon type, and value is either\n    /// 0 (statIncrement for stat1), 1(statIncrement for stat2),\n    /// 2 (Lowest roll for stat1), 3(Lowest roll for stat2).\n    function getStatInformation() external view returns(uint8[4][6] memory) {\n        return statInformation;\n    }\n\n    /// @notice Count items tracked by this contract.\n    /// @return A count of valid items tracked by this contract, where each one of\n    ///  them has an assigned and queryable owner not equal to the zero address.\n    function totalSupply() external view returns (uint) {\n        return numberOfItems;\n    }\n\n    /// @notice Find the owner of an item.\n    /// @param _id The identifier for an item.\n    /// @return The address of the owner of the item.\n    function ownerOf(uint _id) external view returns (address) {\n        return ownerOfItem[_id];\n    }\n\n    ///@dev this might seem like a redundant function, as we also have approve. \n    ///However, this is a naive, internal call. The other approve function is external,\n    ///and checks all parameters. This is done to lower gasprice. \n    ///@notice does not trigger Approval event, as this will be done by the calling functions.\n    function _approve(address _to, uint _id) internal {\n        itemApprovals[_id] = _to;\n    }\n\n    ///@dev internal function to check if address is approved for an item.\n    function isApprovedFor(address _user, uint _id) internal view returns (bool) {\n        return itemApprovals[_id] == _user;\n    }\n\n    function itemIsInGame(uint _id) internal view returns (bool) {\n        require(_id > 0 || _id <= ids, \"Id is not valid\");\n        require(ownerOfItem[_id] != address(0), \"Item is (no longer) in the game\");\n    }\n\n    //From AddressUtils.sol library.\n    function isContract(address addr) internal view returns (bool) {\n        uint256 size;\n        assembly { size := extcodesize(addr) }\n        return size > 0;\n    }\n    /// @notice Handle the receipt of an NFT\n    /// @return `bytes4(keccak256(\"onERC721Received(address,address,uint256,bytes)\"))`\n    function onERC721Received(\n        address, \n        address, \n        uint256, \n        bytes calldata\n    )external returns(bytes4) {\n        return bytes4(keccak256(\"onERC721Received(address,address,uint256,bytes)\"));\n    }    \n\n    /*** SKEPTICAL METHODS ***/\n\n    /// @notice Change or reaffirm the approved address for an item.\n    /// @param _to The new approved item controller.\n    /// @param _id The item to approve.\n    function approve(address _to, uint _id) external payable {       \n        //Make sure its a valid id\n        itemIsInGame(_id);\n        //check if caller has right to approve this item to an account\n        address itemOwner = ownerOfItem[_id];\n        require(\n            itemOwner == msg.sender ||\n            approvedForAll[owner][msg.sender], \n            \"Must be owner or operator of the item\"\n        );\n        \n        //approve account\n        _approve(_to, _id);\n       \n        //emit the event\n        emit Approval(ownerOfItem[_id], _to, _id);\n    }\n\n    /// @notice Get the approved address for a single item.\n    /// @param _id The item to find the approved address for.\n    /// @return The approved address for this item, or the zero address if there is none.\n    function getApproved(uint256 _id) external view returns (address) {\n        //Make sure its a valid id\n        itemIsInGame(_id);\n        return itemApprovals[_id];\n    }\n\n    /// @notice Transfer ownership of an item -- THE CALLER IS RESPONSIBLE\n    ///  TO CONFIRM THAT `_to` IS CAPABLE OF RECEIVING itemS OR ELSE\n    ///  THEY MAY BE PERMANENTLY LOST.\n    /// @param _from The current owner of the item.\n    /// @param _to The new owner.\n    /// @param _id The item to transfer.\n    function transferFrom (\n        address _from, \n        address _to,\n        uint256 _id\n    ) public payable {\n        address itemOwner = ownerOfItem[_id];        \n        //Make sure its a valid id\n        itemIsInGame(_id);\n\n        //Check if sender is authorized to transfer item\n        require(\n            isApprovedFor(msg.sender, _id) || \n            itemOwner == msg.sender ||\n            approvedForAll[owner][msg.sender],\n            \"Does not have authority over that item\"\n        );\n        //check if owner address matches owner parameter\n        require(itemOwner == _from, \"The item does not belong to that account\");\n        \n        //call transfer function\n        transferOwnership(_from, _to, _id);\n    }\n    \n    /// @notice Transfers the ownership of an item from one address to another address.\n    /// @param _from The current owner of the item.\n    /// @param _to The new owner.\n    /// @param _id The item to transfer.\n    /// @param data Additional data with no specified format, sent in call to `_to`.\n    function safeTransferFrom(address _from, address _to, uint256 _id, bytes calldata data) external payable {\n        \n        //call transfer function to do checks and transfer item\n        transferFrom(_from, _to, _id);\n\n        if (isContract(_to)) {\n            ERC721TokenReceiver receiver = ERC721TokenReceiver(_to);\n            require(\n                receiver.onERC721Received(msg.sender, _from, _id, data) ==\n                bytes4(keccak256(\"onERC721Received(address,address,uint256,bytes)\")),\n                \"Contracts don't implement the same standard\"\n            );\n        }\n    }\n\n    /// @notice Transfers the ownership of an item from one address to another address.\n    /// @param _from The current owner of the item.\n    /// @param _to The new owner.\n    /// @param _id The item to transfer.\n    function safeTransferFrom(address _from, address _to, uint256 _id) external payable {\n        this.safeTransferFrom(_from, _to, _id, \"\");\n    }\n\n    /// @notice Query if an address is an authorized operator for another address.\n    /// @param _owner The address that owns the items.\n    /// @param _operator The address that acts on behalf of the owner.\n    /// @return True if `_operator` is an approved operator for `_owner`, false otherwise.\n    function isApprovedForAll(address _owner, address _operator) external view returns (bool) {\n        return approvedForAll[_owner][_operator];\n    }\n    \n    /// @notice Enable or disable approval for a third party (\"operator\") to manage\n    ///  all of `msg.sender`'s assets.\n    /// @param _operator Address to add to the set of authorized operators.\n    /// @param _approved True if the operator is approved, false to revoke approval.\n    function setApprovalForAll(address _operator, bool _approved) external {\n        approvedForAll[msg.sender][_operator] = _approved;\n        emit ApprovalForAll(msg.sender, _operator, _approved);\n    }\n\n    ///@notice This function can be used to iterate through all items of a user,\n    ///in combination with balanceOf(_owner). This is the only way to return all\n    ///items an address owns.\n    function getItemByIndex(address _owner, uint _index) external view \n    returns(\n        uint id,\n        uint equipmentType,\n        uint16 img,\n        uint16 stat1,\n        uint16 stat2,\n        uint8 rarity,\n        address ownerAddress\n    ) {\n        User storage user = users[_owner];\n        require(user.items.length >= _index, \"Owner dont have that many items.\");\n        return getItem(_owner, _index);\n\n    }\n    ///@notice This function can be used to iterate through all items of a user,\n    ///in combination with balanceOf(_owner). This is the only way to return all\n    ///items an address owns.\n    function getItemByID(address _owner, uint _id) external view \n    returns(\n        uint id,\n        uint equipmentType,\n        uint16 img,\n        uint16 stat1,\n        uint16 stat2,\n        uint8 rarity,\n        address ownerAddress\n    ) {\n        itemIsInGame(_id);\n        require(ownerOfItem[_id] == _owner, \"Thats not the owner of the item\");\n        return getItem(_owner, users[_owner].indexOfItem[_id]);\n\n    }\n    \n    function upgrade(address _owner, uint _id1, uint _id2, uint _id3) \n    external returns (uint) {\n        User storage user = users[_owner];\n        //check that items are all owned by the given address\n        require(\n            ownerOfItem[_id1] == ownerOfItem[_id2] &&\n            ownerOfItem[_id1] == ownerOfItem[_id3] &&\n            address(ownerOfItem[_id1]) == _owner,\n            \"All items are not owned by that address.\"\n        );\n        //Check that caller has authority over the account\n        require(\n            msg.sender == _owner ||\n            approvedForAll[_owner][msg.sender],\n            \"You dont have the authority to do that.\"\n        );\n        //Check that items are not approved for trade\n        require(\n            itemApprovals[_id1] == itemApprovals[_id2] &&\n            itemApprovals[_id1] == itemApprovals[_id3] &&\n             itemApprovals[_id1] == address(0),\n            \"Items cant be approved for trade\"\n        );\n        \n        //check that items are of same rarity\n        uint8 rarity = user.items[user.indexOfItem[_id1]].rarity;\n        require(\n            rarity == user.items[user.indexOfItem[_id2]].rarity &&\n            rarity == user.items[user.indexOfItem[_id3]].rarity,\n            \"The items must be of same rarity\"\n        );        \n        //check that items are not legendary\n        require(\n            rarity != 4,\n            \"The items must not be legendary\"\n        );\n        //call upgrade\n        return upgradeItems(_owner, _id1, _id2, _id3);\n    }\n\n}",
  "sourcePath": "F:/coding/test/contracts/ItemOwnership.sol",
  "compiler": {
    "name": "solc",
    "version": "0.5.0+commit.1d4f565a.Emscripten.clang"
  },
  "schemaVersion": "3.0.1",
  "updatedAt": "2019-03-19T23:46:40.733Z",
  "devdoc": {
    "author": "Hvard Pedersen, B6056952.",
    "details": "This will implement and make use of functions, events, and storages defined in its parent-contracts.",
    "methods": {
      "approve(address,uint256)": {
        "params": {
          "_id": "The item to approve.",
          "_to": "The new approved item controller."
        }
      },
      "balanceOf(address)": {
        "params": {
          "_account": "An address for whom to query the balance."
        },
        "return": "The number of items owned by `_owner`, possibly zero."
      },
      "createItem(uint256,uint16,uint16,uint16,uint8,address)": {
        "details": "Function to mint a new item, store it in the owners array and send out events.",
        "params": {
          "_img": "the int that stores both item type and logic for what image to use.",
          "_owner": "the address of the lucky owner of this newly minted item",
          "_rarity": "the rarity of the new item",
          "_stat1": "as stat2.",
          "_stat2": "these two are the stats of the items, where they should be assigned to stat[] as follows: [_stat1, _stat2]."
        },
        "return": "returns the id of the new item"
      },
      "getApproved(uint256)": {
        "params": {
          "_id": "The item to find the approved address for."
        },
        "return": "The approved address for this item, or the zero address if there is none."
      },
      "isApprovedForAll(address,address)": {
        "params": {
          "_operator": "The address that acts on behalf of the owner.",
          "_owner": "The address that owns the items."
        },
        "return": "True if `_operator` is an approved operator for `_owner`, false otherwise."
      },
      "onERC721Received(address,address,uint256,bytes)": {
        "return": "`bytes4(keccak256(\"onERC721Received(address,address,uint256,bytes)\"))`"
      },
      "ownerOf(uint256)": {
        "params": {
          "_id": "The identifier for an item."
        },
        "return": "The address of the owner of the item."
      },
      "safeTransferFrom(address,address,uint256)": {
        "params": {
          "_from": "The current owner of the item.",
          "_id": "The item to transfer.",
          "_to": "The new owner."
        }
      },
      "safeTransferFrom(address,address,uint256,bytes)": {
        "params": {
          "_from": "The current owner of the item.",
          "_id": "The item to transfer.",
          "_to": "The new owner.",
          "data": "Additional data with no specified format, sent in call to `_to`."
        }
      },
      "setApprovalForAll(address,bool)": {
        "params": {
          "_approved": "True if the operator is approved, false to revoke approval.",
          "_operator": "Address to add to the set of authorized operators."
        }
      },
      "totalSupply()": {
        "return": "A count of valid items tracked by this contract, where each one of  them has an assigned and queryable owner not equal to the zero address."
      },
      "transferFrom(address,address,uint256)": {
        "params": {
          "_from": "The current owner of the item.",
          "_id": "The item to transfer.",
          "_to": "The new owner."
        }
      }
    },
    "title": "ItemOwnership is the contract that implements all ERC721 standards. This means that the contract takes care of all that has to do with ownerships."
  },
  "userdoc": {
    "methods": {
      "approve(address,uint256)": {
        "notice": "Change or reaffirm the approved address for an item."
      },
      "balanceOf(address)": {
        "notice": "Count all items assigned to an owner."
      },
      "getApproved(uint256)": {
        "notice": "Get the approved address for a single item."
      },
      "getItemByID(address,uint256)": {
        "notice": "This function can be used to iterate through all items of a user, in combination with balanceOf(_owner). This is the only way to return all items an address owns."
      },
      "getItemByIndex(address,uint256)": {
        "notice": "This function can be used to iterate through all items of a user, in combination with balanceOf(_owner). This is the only way to return all items an address owns."
      },
      "getStatInformation()": {
        "notice": "Returns a map of map. This should be accessed as follows: [type][value], where type is weapon type, and value is either 0 (statIncrement for stat1), 1(statIncrement for stat2), 2 (Lowest roll for stat1), 3(Lowest roll for stat2)."
      },
      "isApprovedForAll(address,address)": {
        "notice": "Query if an address is an authorized operator for another address."
      },
      "onERC721Received(address,address,uint256,bytes)": {
        "notice": "Handle the receipt of an NFT"
      },
      "ownerOf(uint256)": {
        "notice": "Find the owner of an item."
      },
      "safeTransferFrom(address,address,uint256)": {
        "notice": "Transfers the ownership of an item from one address to another address."
      },
      "safeTransferFrom(address,address,uint256,bytes)": {
        "notice": "Transfers the ownership of an item from one address to another address."
      },
      "setApprovalForAll(address,bool)": {
        "notice": "Enable or disable approval for a third party (\"operator\") to manage  all of `msg.sender`'s assets."
      },
      "totalSupply()": {
        "notice": "Count items tracked by this contract."
      },
      "transferFrom(address,address,uint256)": {
        "notice": "Transfer ownership of an item -- THE CALLER IS RESPONSIBLE  TO CONFIRM THAT `_to` IS CAPABLE OF RECEIVING itemS OR ELSE  THEY MAY BE PERMANENTLY LOST."
      }
    }
  }
}