{
  "contractName": "ItemOwnership",
  "abi": [
    {
      "constant": true,
      "inputs": [
        {
          "name": "interfaceID",
          "type": "bytes4"
        }
      ],
      "name": "supportsInterface",
      "outputs": [
        {
          "name": "",
          "type": "bool"
        }
      ],
      "payable": false,
      "stateMutability": "view",
      "type": "function",
      "signature": "0x01ffc9a7"
    },
    {
      "constant": false,
      "inputs": [
        {
          "name": "_account",
          "type": "address"
        },
        {
          "name": "_id1",
          "type": "uint256"
        },
        {
          "name": "_id2",
          "type": "uint256"
        },
        {
          "name": "_id3",
          "type": "uint256"
        }
      ],
      "name": "upgradeItems",
      "outputs": [],
      "payable": false,
      "stateMutability": "nonpayable",
      "type": "function",
      "signature": "0x2670c923"
    },
    {
      "constant": false,
      "inputs": [
        {
          "name": "_equipmentType",
          "type": "uint256"
        },
        {
          "name": "_img",
          "type": "uint16"
        },
        {
          "name": "_stat1",
          "type": "uint16"
        },
        {
          "name": "_stat2",
          "type": "uint16"
        },
        {
          "name": "_rarity",
          "type": "uint8"
        },
        {
          "name": "_owner",
          "type": "address"
        }
      ],
      "name": "createItem",
      "outputs": [
        {
          "name": "",
          "type": "uint256"
        }
      ],
      "payable": false,
      "stateMutability": "nonpayable",
      "type": "function",
      "signature": "0x838624d1"
    },
    {
      "constant": true,
      "inputs": [],
      "name": "numberOfItems",
      "outputs": [
        {
          "name": "",
          "type": "uint256"
        }
      ],
      "payable": false,
      "stateMutability": "view",
      "type": "function",
      "signature": "0x842296d4"
    },
    {
      "constant": true,
      "inputs": [],
      "name": "ids",
      "outputs": [
        {
          "name": "",
          "type": "uint256"
        }
      ],
      "payable": false,
      "stateMutability": "view",
      "type": "function",
      "signature": "0xe7657e15"
    },
    {
      "constant": true,
      "inputs": [
        {
          "name": "",
          "type": "uint256"
        }
      ],
      "name": "itemApprovals",
      "outputs": [
        {
          "name": "",
          "type": "address"
        }
      ],
      "payable": false,
      "stateMutability": "view",
      "type": "function",
      "signature": "0xf39e70ba"
    },
    {
      "inputs": [],
      "payable": false,
      "stateMutability": "nonpayable",
      "type": "constructor",
      "signature": "constructor"
    },
    {
      "anonymous": false,
      "inputs": [
        {
          "indexed": false,
          "name": "owner",
          "type": "address"
        },
        {
          "indexed": false,
          "name": "id",
          "type": "uint256"
        }
      ],
      "name": "Upgrade",
      "type": "event",
      "signature": "0x318d2be9b9a887c0d168715bd2f44017dafbb3360b14cdcc2a8c0086b4e2d151"
    },
    {
      "anonymous": false,
      "inputs": [
        {
          "indexed": true,
          "name": "_from",
          "type": "address"
        },
        {
          "indexed": true,
          "name": "_to",
          "type": "address"
        },
        {
          "indexed": true,
          "name": "_tokenId",
          "type": "uint256"
        }
      ],
      "name": "Transfer",
      "type": "event",
      "signature": "0xddf252ad1be2c89b69c2b068fc378daa952ba7f163c4a11628f55a4df523b3ef"
    },
    {
      "anonymous": false,
      "inputs": [
        {
          "indexed": true,
          "name": "_owner",
          "type": "address"
        },
        {
          "indexed": true,
          "name": "_approved",
          "type": "address"
        },
        {
          "indexed": true,
          "name": "_tokenId",
          "type": "uint256"
        }
      ],
      "name": "Approval",
      "type": "event",
      "signature": "0x8c5be1e5ebec7d5bd14f71427d1e84f3dd0314c0f7b2291e5b200ac8c7c3b925"
    },
    {
      "anonymous": false,
      "inputs": [
        {
          "indexed": true,
          "name": "_owner",
          "type": "address"
        },
        {
          "indexed": true,
          "name": "_operator",
          "type": "address"
        },
        {
          "indexed": false,
          "name": "_approved",
          "type": "bool"
        }
      ],
      "name": "ApprovalForAll",
      "type": "event",
      "signature": "0x17307eab39ab6107e8899845ad3d59bd9653f200f220920489ca2b5937696c31"
    },
    {
      "constant": true,
      "inputs": [
        {
          "name": "_account",
          "type": "address"
        }
      ],
      "name": "balanceOf",
      "outputs": [
        {
          "name": "",
          "type": "uint256"
        }
      ],
      "payable": false,
      "stateMutability": "view",
      "type": "function",
      "signature": "0x70a08231"
    },
    {
      "constant": true,
      "inputs": [],
      "name": "getStatInformation",
      "outputs": [
        {
          "name": "",
          "type": "uint8[4][6]"
        }
      ],
      "payable": false,
      "stateMutability": "view",
      "type": "function",
      "signature": "0x0cd904e6"
    },
    {
      "constant": true,
      "inputs": [],
      "name": "totalSupply",
      "outputs": [
        {
          "name": "",
          "type": "uint256"
        }
      ],
      "payable": false,
      "stateMutability": "view",
      "type": "function",
      "signature": "0x18160ddd"
    },
    {
      "constant": true,
      "inputs": [
        {
          "name": "_id",
          "type": "uint256"
        }
      ],
      "name": "ownerOf",
      "outputs": [
        {
          "name": "",
          "type": "address"
        }
      ],
      "payable": false,
      "stateMutability": "view",
      "type": "function",
      "signature": "0x6352211e"
    },
    {
      "constant": false,
      "inputs": [
        {
          "name": "",
          "type": "address"
        },
        {
          "name": "",
          "type": "address"
        },
        {
          "name": "",
          "type": "uint256"
        },
        {
          "name": "",
          "type": "bytes"
        }
      ],
      "name": "onERC721Received",
      "outputs": [
        {
          "name": "",
          "type": "bytes4"
        }
      ],
      "payable": false,
      "stateMutability": "nonpayable",
      "type": "function",
      "signature": "0x150b7a02"
    },
    {
      "constant": false,
      "inputs": [
        {
          "name": "_to",
          "type": "address"
        },
        {
          "name": "_id",
          "type": "uint256"
        }
      ],
      "name": "approve",
      "outputs": [],
      "payable": true,
      "stateMutability": "payable",
      "type": "function",
      "signature": "0x095ea7b3"
    },
    {
      "constant": true,
      "inputs": [
        {
          "name": "_id",
          "type": "uint256"
        }
      ],
      "name": "getApproved",
      "outputs": [
        {
          "name": "",
          "type": "address"
        }
      ],
      "payable": false,
      "stateMutability": "view",
      "type": "function",
      "signature": "0x081812fc"
    },
    {
      "constant": false,
      "inputs": [
        {
          "name": "_from",
          "type": "address"
        },
        {
          "name": "_to",
          "type": "address"
        },
        {
          "name": "_id",
          "type": "uint256"
        }
      ],
      "name": "transferFrom",
      "outputs": [],
      "payable": true,
      "stateMutability": "payable",
      "type": "function",
      "signature": "0x23b872dd"
    },
    {
      "constant": false,
      "inputs": [
        {
          "name": "_from",
          "type": "address"
        },
        {
          "name": "_to",
          "type": "address"
        },
        {
          "name": "_id",
          "type": "uint256"
        }
      ],
      "name": "safeTransferFrom",
      "outputs": [],
      "payable": true,
      "stateMutability": "payable",
      "type": "function",
      "signature": "0x42842e0e"
    },
    {
      "constant": false,
      "inputs": [
        {
          "name": "_from",
          "type": "address"
        },
        {
          "name": "_to",
          "type": "address"
        },
        {
          "name": "_id",
          "type": "uint256"
        },
        {
          "name": "data",
          "type": "bytes"
        }
      ],
      "name": "safeTransferFrom",
      "outputs": [],
      "payable": true,
      "stateMutability": "payable",
      "type": "function",
      "signature": "0xb88d4fde"
    },
    {
      "constant": true,
      "inputs": [
        {
          "name": "_owner",
          "type": "address"
        },
        {
          "name": "_operator",
          "type": "address"
        }
      ],
      "name": "isApprovedForAll",
      "outputs": [
        {
          "name": "",
          "type": "bool"
        }
      ],
      "payable": false,
      "stateMutability": "view",
      "type": "function",
      "signature": "0xe985e9c5"
    },
    {
      "constant": false,
      "inputs": [
        {
          "name": "_operator",
          "type": "address"
        },
        {
          "name": "_approved",
          "type": "bool"
        }
      ],
      "name": "setApprovalForAll",
      "outputs": [],
      "payable": false,
      "stateMutability": "nonpayable",
      "type": "function",
      "signature": "0xa22cb465"
    },
    {
      "constant": true,
      "inputs": [
        {
          "name": "_owner",
          "type": "address"
        },
        {
          "name": "_index",
          "type": "uint256"
        }
      ],
      "name": "getItemByIndex",
      "outputs": [
        {
          "name": "id",
          "type": "uint256"
        },
        {
          "name": "equipmentType",
          "type": "uint256"
        },
        {
          "name": "img",
          "type": "uint16"
        },
        {
          "name": "stat1",
          "type": "uint16"
        },
        {
          "name": "stat2",
          "type": "uint16"
        },
        {
          "name": "rarity",
          "type": "uint8"
        },
        {
          "name": "ownerAddress",
          "type": "address"
        },
        {
          "name": "onAuction",
          "type": "bool"
        }
      ],
      "payable": false,
      "stateMutability": "view",
      "type": "function",
      "signature": "0x5ee9221e"
    },
    {
      "constant": true,
      "inputs": [
        {
          "name": "_owner",
          "type": "address"
        },
        {
          "name": "_id",
          "type": "uint256"
        }
      ],
      "name": "getItemByID",
      "outputs": [
        {
          "name": "id",
          "type": "uint256"
        },
        {
          "name": "equipmentType",
          "type": "uint256"
        },
        {
          "name": "img",
          "type": "uint16"
        },
        {
          "name": "stat1",
          "type": "uint16"
        },
        {
          "name": "stat2",
          "type": "uint16"
        },
        {
          "name": "rarity",
          "type": "uint8"
        },
        {
          "name": "ownerAddress",
          "type": "address"
        },
        {
          "name": "onAuction",
          "type": "bool"
        }
      ],
      "payable": false,
      "stateMutability": "view",
      "type": "function",
      "signature": "0xd662dde4"
    },
    {
      "constant": false,
      "inputs": [
        {
          "name": "_owner",
          "type": "address"
        },
        {
          "name": "_id1",
          "type": "uint256"
        },
        {
          "name": "_id2",
          "type": "uint256"
        },
        {
          "name": "_id3",
          "type": "uint256"
        }
      ],
      "name": "upgrade",
      "outputs": [],
      "payable": false,
      "stateMutability": "nonpayable",
      "type": "function",
      "signature": "0xd5b4688c"
    }
  ],
  "bytecode": "0x608060405260c060405190810160405280608060405190810160405280603260ff168152602001600f60ff168152602001606460ff168152602001601e60ff168152508152602001608060405190810160405280603260ff168152602001600560ff168152602001609660ff168152602001600a60ff168152508152602001608060405190810160405280600560ff168152602001600f60ff168152602001600a60ff168152602001601e60ff168152508152602001608060405190810160405280604660ff168152602001600f60ff168152602001603260ff168152602001601460ff168152508152602001608060405190810160405280609660ff168152602001600860ff16815260200160c860ff168152602001601460ff168152508152602001608060405190810160405280606460ff168152602001600a60ff16815260200160fa60ff168152602001602360ff1681525081525060009060066200016a92919062000585565b503480156200017857600080fd5b506001600e600060405180807f737570706f727473496e74657266616365286279746573342900000000000000815250601901905060405180910390207bffffffffffffffffffffffffffffffffffffffffffffffffffffffff19167bffffffffffffffffffffffffffffffffffffffffffffffffffffffff1916815260200190815260200160002060006101000a81548160ff0219169083151502179055506001600e600060405180807f746f74616c537570706c79282900000000000000000000000000000000000000815250600d019050604051809103902060405180807f6973417070726f766564466f72416c6c28616464726573732c6164647265737381526020017f29000000000000000000000000000000000000000000000000000000000000008152506021019050604051809103902060405180807f676574417070726f7665642875696e74323536000000000000000000000000008152506013019050604051809103902060405180807f736574417070726f76616c466f72416c6c28616464726573732c626f6f6c0000815250601e019050604051809103902060405180807f617070726f766528616464726573732c75696e743235360000000000000000008152506017019050604051809103902060405180807f7472616e7366657246726f6d28616464726573732c616464726573732c75696e81526020017f74323536000000000000000000000000000000000000000000000000000000008152506024019050604051809103902060405180807f736166655472616e7366657246726f6d28616464726573732c6164647265737381526020017f2c75696e743235360000000000000000000000000000000000000000000000008152506028019050604051809103902060405180807f736166655472616e7366657246726f6d28616464726573732c6164647265737381526020017f2c75696e743235362c6279746573000000000000000000000000000000000000815250602e019050604051809103902060405180807f6f776e65724f662875696e7432353629000000000000000000000000000000008152506010019050604051809103902060405180807f62616c616e63654f662861646472657373290000000000000000000000000000815250601201905060405180910390201818181818181818187bffffffffffffffffffffffffffffffffffffffffffffffffffffffff19167bffffffffffffffffffffffffffffffffffffffffffffffffffffffff1916815260200190815260200160002060006101000a81548160ff02191690831515021790555033600f60006101000a81548173ffffffffffffffffffffffffffffffffffffffff021916908373ffffffffffffffffffffffffffffffffffffffff160217905550620006e6565b8260068101928215620005c7579160200282015b82811115620005c657825182906004620005b5929190620005da565b509160200191906001019062000599565b5b509050620005d691906200067b565b5090565b826004601f01602090048101928215620006685791602002820160005b838211156200063757835183826101000a81548160ff021916908360ff1602179055509260200192600101602081600001049283019260010302620005f7565b8015620006665782816101000a81549060ff021916905560010160208160000104928301926001030262000637565b505b509050620006779190620006ac565b5090565b620006a991905b80821115620006a557600081816200069b9190620006df565b5060010162000682565b5090565b90565b620006dc91905b80821115620006d857600081816101000a81549060ff021916905550600101620006b3565b5090565b90565b5060009055565b613fe980620006f66000396000f3fe60806040526004361061011d576000357c0100000000000000000000000000000000000000000000000000000000900463ffffffff16806301ffc9a714610122578063081812fc14610194578063095ea7b31461020f5780630cd904e61461025d578063150b7a02146102d357806318160ddd146103f557806323b872dd146104205780632670c9231461048e57806342842e0e146104fd5780635ee9221e1461056b5780636352211e1461065957806370a08231146106d4578063838624d114610739578063842296d4146107df578063a22cb4651461080a578063b88d4fde14610867578063d5b4688c1461092a578063d662dde414610999578063e7657e1514610a87578063e985e9c514610ab2578063f39e70ba14610b3b575b600080fd5b34801561012e57600080fd5b5061017a6004803603602081101561014557600080fd5b8101908080357bffffffffffffffffffffffffffffffffffffffffffffffffffffffff19169060200190929190505050610bb6565b604051808215151515815260200191505060405180910390f35b3480156101a057600080fd5b506101cd600480360360208110156101b757600080fd5b8101908080359060200190929190505050610c1e565b604051808273ffffffffffffffffffffffffffffffffffffffff1673ffffffffffffffffffffffffffffffffffffffff16815260200191505060405180910390f35b61025b6004803603604081101561022557600080fd5b81019080803573ffffffffffffffffffffffffffffffffffffffff16906020019092919080359060200190929190505050610cd8565b005b34801561026957600080fd5b50610272610f52565b604051808260066000925b818410156102c35782846020020151600460200280838360005b838110156102b2578082015181840152602081019050610297565b50505050905001926001019261027d565b9250505091505060405180910390f35b3480156102df57600080fd5b506103a1600480360360808110156102f657600080fd5b81019080803573ffffffffffffffffffffffffffffffffffffffff169060200190929190803573ffffffffffffffffffffffffffffffffffffffff169060200190929190803590602001909291908035906020019064010000000081111561035d57600080fd5b82018360208201111561036f57600080fd5b8035906020019184600183028401116401000000008311171561039157600080fd5b9091929391929390505050610ff8565b60405180827bffffffffffffffffffffffffffffffffffffffffffffffffffffffff19167bffffffffffffffffffffffffffffffffffffffffffffffffffffffff1916815260200191505060405180910390f35b34801561040157600080fd5b5061040a611061565b6040518082815260200191505060405180910390f35b61048c6004803603606081101561043657600080fd5b81019080803573ffffffffffffffffffffffffffffffffffffffff169060200190929190803573ffffffffffffffffffffffffffffffffffffffff1690602001909291908035906020019092919050505061106b565b005b34801561049a57600080fd5b506104fb600480360360808110156104b157600080fd5b81019080803573ffffffffffffffffffffffffffffffffffffffff169060200190929190803590602001909291908035906020019092919080359060200190929190505050611333565b005b6105696004803603606081101561051357600080fd5b81019080803573ffffffffffffffffffffffffffffffffffffffff169060200190929190803573ffffffffffffffffffffffffffffffffffffffff16906020019092919080359060200190929190505050611894565b005b34801561057757600080fd5b506105c46004803603604081101561058e57600080fd5b81019080803573ffffffffffffffffffffffffffffffffffffffff1690602001909291908035906020019092919050505061199c565b604051808981526020018881526020018761ffff1661ffff1681526020018661ffff1661ffff1681526020018561ffff1661ffff1681526020018460ff1660ff1681526020018373ffffffffffffffffffffffffffffffffffffffff1673ffffffffffffffffffffffffffffffffffffffff168152602001821515151581526020019850505050505050505060405180910390f35b34801561066557600080fd5b506106926004803603602081101561067c57600080fd5b8101908080359060200190929190505050611a92565b604051808273ffffffffffffffffffffffffffffffffffffffff1673ffffffffffffffffffffffffffffffffffffffff16815260200191505060405180910390f35b3480156106e057600080fd5b50610723600480360360208110156106f757600080fd5b81019080803573ffffffffffffffffffffffffffffffffffffffff169060200190929190505050611acf565b6040518082815260200191505060405180910390f35b34801561074557600080fd5b506107c9600480360360c081101561075c57600080fd5b8101908080359060200190929190803561ffff169060200190929190803561ffff169060200190929190803561ffff169060200190929190803560ff169060200190929190803573ffffffffffffffffffffffffffffffffffffffff169060200190929190505050611b1e565b6040518082815260200191505060405180910390f35b3480156107eb57600080fd5b506107f4611dc8565b6040518082815260200191505060405180910390f35b34801561081657600080fd5b506108656004803603604081101561082d57600080fd5b81019080803573ffffffffffffffffffffffffffffffffffffffff169060200190929190803515159060200190929190505050611dce565b005b6109286004803603608081101561087d57600080fd5b81019080803573ffffffffffffffffffffffffffffffffffffffff169060200190929190803573ffffffffffffffffffffffffffffffffffffffff16906020019092919080359060200190929190803590602001906401000000008111156108e457600080fd5b8201836020820111156108f657600080fd5b8035906020019184600183028401116401000000008311171561091857600080fd5b9091929391929390505050611ecf565b005b34801561093657600080fd5b506109976004803603608081101561094d57600080fd5b81019080803573ffffffffffffffffffffffffffffffffffffffff169060200190929190803590602001909291908035906020019092919080359060200190929190505050612171565b005b3480156109a557600080fd5b506109f2600480360360408110156109bc57600080fd5b81019080803573ffffffffffffffffffffffffffffffffffffffff16906020019092919080359060200190929190505050612a0c565b604051808981526020018881526020018761ffff1661ffff1681526020018661ffff1661ffff1681526020018561ffff1661ffff1681526020018460ff1660ff1681526020018373ffffffffffffffffffffffffffffffffffffffff1673ffffffffffffffffffffffffffffffffffffffff168152602001821515151581526020019850505050505050505060405180910390f35b348015610a9357600080fd5b50610a9c612b7c565b6040518082815260200191505060405180910390f35b348015610abe57600080fd5b50610b2160048036036040811015610ad557600080fd5b81019080803573ffffffffffffffffffffffffffffffffffffffff169060200190929190803573ffffffffffffffffffffffffffffffffffffffff169060200190929190505050612b82565b604051808215151515815260200191505060405180910390f35b348015610b4757600080fd5b50610b7460048036036020811015610b5e57600080fd5b8101908080359060200190929190505050612c16565b604051808273ffffffffffffffffffffffffffffffffffffffff1673ffffffffffffffffffffffffffffffffffffffff16815260200191505060405180910390f35b6000600e6000837bffffffffffffffffffffffffffffffffffffffffffffffffffffffff19167bffffffffffffffffffffffffffffffffffffffffffffffffffffffff1916815260200190815260200160002060009054906101000a900460ff169050919050565b6000610c2982612c49565b1515610c9d576040517f08c379a00000000000000000000000000000000000000000000000000000000081526004018080602001828103825260138152602001807f6974656d20646f6573206e6f742065786973740000000000000000000000000081525060200191505060405180910390fd5b600a600083815260200190815260200160002060009054906101000a900473ffffffffffffffffffffffffffffffffffffffff169050919050565b610ce181612c49565b1515610cec57600080fd5b610cf581612db0565b151515610d0157600080fd5b60006009600083815260200190815260200160002060009054906101000a900473ffffffffffffffffffffffffffffffffffffffff1690503373ffffffffffffffffffffffffffffffffffffffff168173ffffffffffffffffffffffffffffffffffffffff161480610e1b5750600b6000600f60009054906101000a900473ffffffffffffffffffffffffffffffffffffffff1673ffffffffffffffffffffffffffffffffffffffff1673ffffffffffffffffffffffffffffffffffffffff16815260200190815260200160002060003373ffffffffffffffffffffffffffffffffffffffff1673ffffffffffffffffffffffffffffffffffffffff16815260200190815260200160002060009054906101000a900460ff165b1515610eb5576040517f08c379a00000000000000000000000000000000000000000000000000000000081526004018080602001828103825260258152602001807f4d757374206265206f776e6572206f72206f70657261746f72206f662074686581526020017f206974656d00000000000000000000000000000000000000000000000000000081525060400191505060405180910390fd5b610ebf8383612ef2565b818373ffffffffffffffffffffffffffffffffffffffff166009600085815260200190815260200160002060009054906101000a900473ffffffffffffffffffffffffffffffffffffffff1673ffffffffffffffffffffffffffffffffffffffff167f8c5be1e5ebec7d5bd14f71427d1e84f3dd0314c0f7b2291e5b200ac8c7c3b92560405160405180910390a4505050565b610f5a613d35565b6000600680602002604051908101604052809291906000905b82821015610fef57838201600480602002604051908101604052809291908260048015610fdb576020028201916000905b82829054906101000a900460ff1660ff1681526020019060010190602082600001049283019260010382029150808411610fa45790505b505050505081526020019060010190610f73565b50505050905090565b600060405180807f6f6e455243373231526563656976656428616464726573732c6164647265737381526020017f2c75696e743235362c6279746573290000000000000000000000000000000000815250602f0190506040518091039020905095945050505050565b6000600754905090565b60006009600083815260200190815260200160002060009054906101000a900473ffffffffffffffffffffffffffffffffffffffff1690506110ac82612c49565b15156110b757600080fd5b6110c082612db0565b1515156110cc57600080fd5b6110d63383612f48565b8061110c57503373ffffffffffffffffffffffffffffffffffffffff168173ffffffffffffffffffffffffffffffffffffffff16145b806111bf5750600b6000600f60009054906101000a900473ffffffffffffffffffffffffffffffffffffffff1673ffffffffffffffffffffffffffffffffffffffff1673ffffffffffffffffffffffffffffffffffffffff16815260200190815260200160002060003373ffffffffffffffffffffffffffffffffffffffff1673ffffffffffffffffffffffffffffffffffffffff16815260200190815260200160002060009054906101000a900460ff165b1515611259576040517f08c379a00000000000000000000000000000000000000000000000000000000081526004018080602001828103825260268152602001807f446f6573206e6f74206861766520617574686f72697479206f7665722074686181526020017f74206974656d000000000000000000000000000000000000000000000000000081525060400191505060405180910390fd5b8373ffffffffffffffffffffffffffffffffffffffff168173ffffffffffffffffffffffffffffffffffffffff16141515611322576040517f08c379a00000000000000000000000000000000000000000000000000000000081526004018080602001828103825260288152602001807f546865206974656d20646f6573206e6f742062656c6f6e6720746f207468617481526020017f206163636f756e7400000000000000000000000000000000000000000000000081525060400191505060405180910390fd5b61132d848484612fb4565b50505050565b6000600860008673ffffffffffffffffffffffffffffffffffffffff1673ffffffffffffffffffffffffffffffffffffffff168152602001908152602001600020600001600860008773ffffffffffffffffffffffffffffffffffffffff1673ffffffffffffffffffffffffffffffffffffffff1681526020019081526020016000206001016000868152602001908152602001600020548154811015156113d757fe5b906000526020600020906005020160040160009054906101000a900460ff1660ff16905060004233600654604051602001808481526020018373ffffffffffffffffffffffffffffffffffffffff1673ffffffffffffffffffffffffffffffffffffffff166c01000000000000000000000000028152601401828152602001935050505060405160208183030381529060405280519060200120600190049050600060038281151561148557fe5b0690506000811415611499578590506114af565b60018114156114aa578490506114ae565b8390505b5b8390506114ba613d64565b600860008973ffffffffffffffffffffffffffffffffffffffff1673ffffffffffffffffffffffffffffffffffffffff168152602001908152602001600020600001600860008a73ffffffffffffffffffffffffffffffffffffffff1673ffffffffffffffffffffffffffffffffffffffff16815260200190815260200160002060010160008481526020019081526020016000205481548110151561155c57fe5b906000526020600020906005020160c0604051908101604052908160008201548152602001600182015481526020016002820160009054906101000a900461ffff1661ffff1661ffff1681526020016003820160028060200260405190810160405280929190826002801561160e576020028201916000905b82829054906101000a900461ffff1661ffff16815260200190600201906020826001010492830192600103820291508084116115d55790505b505050505081526020016004820160009054906101000a900460ff1660ff1660ff1681526020016004820160019054906101000a900460ff161515151581525050905061165b88886136ec565b61166588876136ec565b61166f88866136ec565b6000809050600185141561168657600190506116d8565b6002851480156116a25750601360648581151561169f57fe5b06115b156116b057600190506116d7565b6003851480156116cc575060316064858115156116c957fe5b06115b156116d657600190505b5b5b801561181c5760006117a9836020015184604001516000600187602001510360068110151561170357fe5b01600060048110151561171257fe5b602091828204019190069054906101000a900460ff1660ff168660600151600060028110151561173e57fe5b6020020151016000600188602001510360068110151561175a57fe5b01600160048110151561176957fe5b602091828204019190069054906101000a900460ff1660ff168760600151600160028110151561179557fe5b60200201510160018860800151018f611b1e565b90507f318d2be9b9a887c0d168715bd2f44017dafbb3360b14cdcc2a8c0086b4e2d1518a82604051808373ffffffffffffffffffffffffffffffffffffffff1673ffffffffffffffffffffffffffffffffffffffff1681526020018281526020019250505060405180910390a150611889565b7f318d2be9b9a887c0d168715bd2f44017dafbb3360b14cdcc2a8c0086b4e2d151896000604051808373ffffffffffffffffffffffffffffffffffffffff1673ffffffffffffffffffffffffffffffffffffffff1681526020018281526020019250505060405180910390a15b505050505050505050565b3073ffffffffffffffffffffffffffffffffffffffff1663b88d4fde8484846040518463ffffffff167c0100000000000000000000000000000000000000000000000000000000028152600401808473ffffffffffffffffffffffffffffffffffffffff1673ffffffffffffffffffffffffffffffffffffffff1681526020018373ffffffffffffffffffffffffffffffffffffffff1673ffffffffffffffffffffffffffffffffffffffff16815260200182815260200180602001828103825260008152602001602001945050505050600060405180830381600087803b15801561197f57600080fd5b505af1158015611993573d6000803e3d6000fd5b50505050505050565b6000806000806000806000806000600860008c73ffffffffffffffffffffffffffffffffffffffff1673ffffffffffffffffffffffffffffffffffffffff168152602001908152602001600020905089816000018054905010151515611a6a576040517f08c379a00000000000000000000000000000000000000000000000000000000081526004018080602001828103825260208152602001807f4f776e657220646f6e7420686176652074686174206d616e79206974656d732e81525060200191505060405180910390fd5b611a748b8b613bfd565b98509850985098509850985098509850509295985092959890939650565b60006009600083815260200190815260200160002060009054906101000a900473ffffffffffffffffffffffffffffffffffffffff169050919050565b6000600860008373ffffffffffffffffffffffffffffffffffffffff1673ffffffffffffffffffffffffffffffffffffffff168152602001908152602001600020600001805490509050919050565b600060066000815480929190600101919050555060006006549050611b41613d64565b60c0604051908101604052808381526020018a81526020018961ffff16815260200160408051908101604052808a61ffff1661ffff1681526020018961ffff1661ffff1681525081526020018660ff1681526020016000151581525090506001600860008673ffffffffffffffffffffffffffffffffffffffff1673ffffffffffffffffffffffffffffffffffffffff1681526020019081526020016000206000018290806001815401808255809150509060018203906000526020600020906005020160009091929091909150600082015181600001556020820151816001015560408201518160020160006101000a81548161ffff021916908361ffff160217905550606082015181600301906002611c5d929190613daa565b5060808201518160040160006101000a81548160ff021916908360ff16021790555060a08201518160040160016101000a81548160ff021916908315150217905550505003600860008673ffffffffffffffffffffffffffffffffffffffff1673ffffffffffffffffffffffffffffffffffffffff168152602001908152602001600020600101600084815260200190815260200160002081905550836009600084815260200190815260200160002060006101000a81548173ffffffffffffffffffffffffffffffffffffffff021916908373ffffffffffffffffffffffffffffffffffffffff160217905550600760008154809291906001019190505550818473ffffffffffffffffffffffffffffffffffffffff16600073ffffffffffffffffffffffffffffffffffffffff167fddf252ad1be2c89b69c2b068fc378daa952ba7f163c4a11628f55a4df523b3ef60405160405180910390a481925050509695505050505050565b60075481565b80600b60003373ffffffffffffffffffffffffffffffffffffffff1673ffffffffffffffffffffffffffffffffffffffff16815260200190815260200160002060008473ffffffffffffffffffffffffffffffffffffffff1673ffffffffffffffffffffffffffffffffffffffff16815260200190815260200160002060006101000a81548160ff0219169083151502179055508173ffffffffffffffffffffffffffffffffffffffff163373ffffffffffffffffffffffffffffffffffffffff167f17307eab39ab6107e8899845ad3d59bd9653f200f220920489ca2b5937696c3183604051808215151515815260200191505060405180910390a35050565b611eda85858561106b565b611ee384613d22565b1561216a57600084905060405180807f6f6e455243373231526563656976656428616464726573732c6164647265737381526020017f2c75696e743235362c6279746573290000000000000000000000000000000000815250602f01905060405180910390207bffffffffffffffffffffffffffffffffffffffffffffffffffffffff19168173ffffffffffffffffffffffffffffffffffffffff1663150b7a0233898888886040518663ffffffff167c0100000000000000000000000000000000000000000000000000000000028152600401808673ffffffffffffffffffffffffffffffffffffffff1673ffffffffffffffffffffffffffffffffffffffff1681526020018573ffffffffffffffffffffffffffffffffffffffff1673ffffffffffffffffffffffffffffffffffffffff168152602001848152602001806020018281038252848482818152602001925080828437600081840152601f19601f8201169050808301925050509650505050505050602060405180830381600087803b15801561207357600080fd5b505af1158015612087573d6000803e3d6000fd5b505050506040513d602081101561209d57600080fd5b81019080805190602001909291905050507bffffffffffffffffffffffffffffffffffffffffffffffffffffffff1916141515612168576040517f08c379a000000000000000000000000000000000000000000000000000000000815260040180806020018281038252602b8152602001807f436f6e74726163747320646f6e277420696d706c656d656e742074686520736181526020017f6d65207374616e6461726400000000000000000000000000000000000000000081525060400191505060405180910390fd5b505b5050505050565b6000600860008673ffffffffffffffffffffffffffffffffffffffff1673ffffffffffffffffffffffffffffffffffffffff16815260200190815260200160002090506009600084815260200190815260200160002060009054906101000a900473ffffffffffffffffffffffffffffffffffffffff1673ffffffffffffffffffffffffffffffffffffffff166009600086815260200190815260200160002060009054906101000a900473ffffffffffffffffffffffffffffffffffffffff1673ffffffffffffffffffffffffffffffffffffffff161480156122e657506009600083815260200190815260200160002060009054906101000a900473ffffffffffffffffffffffffffffffffffffffff1673ffffffffffffffffffffffffffffffffffffffff166009600086815260200190815260200160002060009054906101000a900473ffffffffffffffffffffffffffffffffffffffff1673ffffffffffffffffffffffffffffffffffffffff16145b801561235057508473ffffffffffffffffffffffffffffffffffffffff166009600086815260200190815260200160002060009054906101000a900473ffffffffffffffffffffffffffffffffffffffff1673ffffffffffffffffffffffffffffffffffffffff16145b15156123ea576040517f08c379a00000000000000000000000000000000000000000000000000000000081526004018080602001828103825260288152602001807f416c6c206974656d7320617265206e6f74206f776e656420627920746861742081526020017f616464726573732e00000000000000000000000000000000000000000000000081525060400191505060405180910390fd5b8473ffffffffffffffffffffffffffffffffffffffff163373ffffffffffffffffffffffffffffffffffffffff1614806124aa5750600b60008673ffffffffffffffffffffffffffffffffffffffff1673ffffffffffffffffffffffffffffffffffffffff16815260200190815260200160002060003373ffffffffffffffffffffffffffffffffffffffff1673ffffffffffffffffffffffffffffffffffffffff16815260200190815260200160002060009054906101000a900460ff165b1515612544576040517f08c379a00000000000000000000000000000000000000000000000000000000081526004018080602001828103825260278152602001807f596f7520646f6e7420686176652074686520617574686f7269747920746f206481526020017f6f20746861742e0000000000000000000000000000000000000000000000000081525060400191505060405180910390fd5b600a600084815260200190815260200160002060009054906101000a900473ffffffffffffffffffffffffffffffffffffffff1673ffffffffffffffffffffffffffffffffffffffff16600a600086815260200190815260200160002060009054906101000a900473ffffffffffffffffffffffffffffffffffffffff1673ffffffffffffffffffffffffffffffffffffffff161480156126765750600a600083815260200190815260200160002060009054906101000a900473ffffffffffffffffffffffffffffffffffffffff1673ffffffffffffffffffffffffffffffffffffffff16600a600086815260200190815260200160002060009054906101000a900473ffffffffffffffffffffffffffffffffffffffff1673ffffffffffffffffffffffffffffffffffffffff16145b80156126e15750600073ffffffffffffffffffffffffffffffffffffffff16600a600086815260200190815260200160002060009054906101000a900473ffffffffffffffffffffffffffffffffffffffff1673ffffffffffffffffffffffffffffffffffffffff16145b1515612755576040517f08c379a00000000000000000000000000000000000000000000000000000000081526004018080602001828103825260208152602001807f4974656d732063616e7420626520617070726f76656420666f7220747261646581525060200191505060405180910390fd5b61275e84612db0565b158015612771575061276f83612db0565b155b8015612783575061278182612db0565b155b151561281d576040517f08c379a000000000000000000000000000000000000000000000000000000000815260040180806020018281038252602a8152602001807f43616e742075706772616465206974656d73207468617420617265207570206681526020017f6f722061756374696f6e0000000000000000000000000000000000000000000081525060400191505060405180910390fd5b6000816000018260010160008781526020019081526020016000205481548110151561284557fe5b906000526020600020906005020160040160009054906101000a900460ff169050816000018260010160008681526020019081526020016000205481548110151561288c57fe5b906000526020600020906005020160040160009054906101000a900460ff1660ff168160ff16148015612908575081600001826001016000858152602001908152602001600020548154811015156128e057fe5b906000526020600020906005020160040160009054906101000a900460ff1660ff168160ff16145b151561297c576040517f08c379a00000000000000000000000000000000000000000000000000000000081526004018080602001828103825260208152602001807f546865206974656d73206d757374206265206f662073616d652072617269747981525060200191505060405180910390fd5b60048160ff16141515156129f8576040517f08c379a000000000000000000000000000000000000000000000000000000000815260040180806020018281038252601f8152602001807f546865206974656d73206d757374206e6f74206265206c6567656e646172790081525060200191505060405180910390fd5b612a0486868686611333565b505050505050565b600080600080600080600080612a2189612c49565b1515612a2c57600080fd5b8973ffffffffffffffffffffffffffffffffffffffff16600960008b815260200190815260200160002060009054906101000a900473ffffffffffffffffffffffffffffffffffffffff1673ffffffffffffffffffffffffffffffffffffffff16141515612b02576040517f08c379a000000000000000000000000000000000000000000000000000000000815260040180806020018281038252601f8152602001807f5468617473206e6f7420746865206f776e6572206f6620746865206974656d0081525060200191505060405180910390fd5b612b5f8a600860008d73ffffffffffffffffffffffffffffffffffffffff1673ffffffffffffffffffffffffffffffffffffffff16815260200190815260200160002060010160008c815260200190815260200160002054613bfd565b975097509750975097509750975097509295985092959890939650565b60065481565b6000600b60008473ffffffffffffffffffffffffffffffffffffffff1673ffffffffffffffffffffffffffffffffffffffff16815260200190815260200160002060008373ffffffffffffffffffffffffffffffffffffffff1673ffffffffffffffffffffffffffffffffffffffff16815260200190815260200160002060009054906101000a900460ff16905092915050565b600a6020528060005260406000206000915054906101000a900473ffffffffffffffffffffffffffffffffffffffff1681565b600080821180612c5b57506006548211155b1515612ccf576040517f08c379a000000000000000000000000000000000000000000000000000000000815260040180806020018281038252600f8152602001807f4964206973206e6f742076616c6964000000000000000000000000000000000081525060200191505060405180910390fd5b600073ffffffffffffffffffffffffffffffffffffffff166009600084815260200190815260200160002060009054906101000a900473ffffffffffffffffffffffffffffffffffffffff1673ffffffffffffffffffffffffffffffffffffffff1614151515612da7576040517f08c379a000000000000000000000000000000000000000000000000000000000815260040180806020018281038252601f8152602001807f4974656d20697320286e6f206c6f6e6765722920696e207468652067616d650081525060200191505060405180910390fd5b60019050919050565b6000612dbb82612c49565b1515612e2f576040517f08c379a00000000000000000000000000000000000000000000000000000000081526004018080602001828103825260138152602001807f6974656d20646f6573206e6f742065786973740000000000000000000000000081525060200191505060405180910390fd5b6000600860006009600086815260200190815260200160002060009054906101000a900473ffffffffffffffffffffffffffffffffffffffff1673ffffffffffffffffffffffffffffffffffffffff1673ffffffffffffffffffffffffffffffffffffffff16815260200190815260200160002090508060000181600101600085815260200190815260200160002054815481101515612ecb57fe5b906000526020600020906005020160040160019054906101000a900460ff16915050919050565b81600a600083815260200190815260200160002060006101000a81548173ffffffffffffffffffffffffffffffffffffffff021916908373ffffffffffffffffffffffffffffffffffffffff1602179055505050565b60008273ffffffffffffffffffffffffffffffffffffffff16600a600084815260200190815260200160002060009054906101000a900473ffffffffffffffffffffffffffffffffffffffff1673ffffffffffffffffffffffffffffffffffffffff1614905092915050565b6000600860008573ffffffffffffffffffffffffffffffffffffffff1673ffffffffffffffffffffffffffffffffffffffff1681526020019081526020016000209050612fff613d64565b816000018260010160008581526020019081526020016000205481548110151561302557fe5b906000526020600020906005020160c0604051908101604052908160008201548152602001600182015481526020016002820160009054906101000a900461ffff1661ffff1661ffff168152602001600382016002806020026040519081016040528092919082600280156130d7576020028201916000905b82829054906101000a900461ffff1661ffff168152602001906002019060208260010104928301926001038202915080841161309e5790505b505050505081526020016004820160009054906101000a900460ff1660ff1660ff1681526020016004820160019054906101000a900460ff16151515158152505090506000600860008773ffffffffffffffffffffffffffffffffffffffff1673ffffffffffffffffffffffffffffffffffffffff168152602001908152602001600020600001805490501115156131fd576040517f08c379a00000000000000000000000000000000000000000000000000000000081526004018080602001828103825260288152602001807f4163636f756e74206d7573742068617665206974656d7320746f207472616e7381526020017f6665722066726f6d00000000000000000000000000000000000000000000000081525060400191505060405180910390fd5b60018260000180549050111561342257613215613d64565b82600001600184600001805490500381548110151561323057fe5b906000526020600020906005020160c0604051908101604052908160008201548152602001600182015481526020016002820160009054906101000a900461ffff1661ffff1661ffff168152602001600382016002806020026040519081016040528092919082600280156132e2576020028201916000905b82829054906101000a900461ffff1661ffff16815260200190600201906020826001010492830192600103820291508084116132a95790505b505050505081526020016004820160009054906101000a900460ff1660ff1660ff1681526020016004820160019054906101000a900460ff161515151581525050905080836000018460010160008781526020019081526020016000205481548110151561334c57fe5b9060005260206000209060050201600082015181600001556020820151816001015560408201518160020160006101000a81548161ffff021916908361ffff1602179055506060820151816003019060026133a8929190613daa565b5060808201518160040160006101000a81548160ff021916908360ff16021790555060a08201518160040160016101000a81548160ff021916908315150217905550905050826001016000858152602001908152602001600020548360010160008360000151815260200190815260200160002081905550505b816000018054809190600190036134399190613e47565b506001600860008673ffffffffffffffffffffffffffffffffffffffff1673ffffffffffffffffffffffffffffffffffffffff1681526020019081526020016000206000018290806001815401808255809150509060018203906000526020600020906005020160009091929091909150600082015181600001556020820151816001015560408201518160020160006101000a81548161ffff021916908361ffff1602179055506060820151816003019060026134f8929190613daa565b5060808201518160040160006101000a81548160ff021916908360ff16021790555060a08201518160040160016101000a81548160ff021916908315150217905550505003600860008673ffffffffffffffffffffffffffffffffffffffff1673ffffffffffffffffffffffffffffffffffffffff16815260200190815260200160002060010160006006548152602001908152602001600020819055508360096000600654815260200190815260200160002060006101000a81548173ffffffffffffffffffffffffffffffffffffffff021916908373ffffffffffffffffffffffffffffffffffffffff160217905550600073ffffffffffffffffffffffffffffffffffffffff16600a600085815260200190815260200160002060009054906101000a900473ffffffffffffffffffffffffffffffffffffffff1673ffffffffffffffffffffffffffffffffffffffff1614151561368a57600a600084815260200190815260200160002060006101000a81549073ffffffffffffffffffffffffffffffffffffffff02191690555b828473ffffffffffffffffffffffffffffffffffffffff168673ffffffffffffffffffffffffffffffffffffffff167fddf252ad1be2c89b69c2b068fc378daa952ba7f163c4a11628f55a4df523b3ef60405160405180910390a45050505050565b8173ffffffffffffffffffffffffffffffffffffffff166009600083815260200190815260200160002060009054906101000a900473ffffffffffffffffffffffffffffffffffffffff1673ffffffffffffffffffffffffffffffffffffffff161415156137c2576040517f08c379a000000000000000000000000000000000000000000000000000000000815260040180806020018281038252601b8152602001807f54686174207573657220646f6e74206f776e20746865206974656d000000000081525060200191505060405180910390fd5b6000600860008473ffffffffffffffffffffffffffffffffffffffff1673ffffffffffffffffffffffffffffffffffffffff168152602001908152602001600020600001805490501115156138a5576040517f08c379a00000000000000000000000000000000000000000000000000000000081526004018080602001828103825260268152602001807f4163636f756e74206d7573742068617665206974656d7320746f2072656d6f7681526020017f652066726f6e000000000000000000000000000000000000000000000000000081525060400191505060405180910390fd5b6000600860008473ffffffffffffffffffffffffffffffffffffffff1673ffffffffffffffffffffffffffffffffffffffff1681526020019081526020016000209050600115613aa657600081600001600183600001805490500381548110151561390c57fe5b906000526020600020906005020160000154905081600001600183600001805490500381548110151561393b57fe5b9060005260206000209060050201826000018360010160008681526020019081526020016000205481548110151561396f57fe5b906000526020600020906005020160008201548160000155600182015481600101556002820160009054906101000a900461ffff168160020160006101000a81548161ffff021916908361ffff16021790555060038201816003019060026139d8929190613e79565b506004820160009054906101000a900460ff168160040160006101000a81548160ff021916908360ff1602179055506004820160019054906101000a900460ff168160040160016101000a81548160ff021916908315150217905550905050600860008573ffffffffffffffffffffffffffffffffffffffff1673ffffffffffffffffffffffffffffffffffffffff16815260200190815260200160002060010160008481526020019081526020016000205482600101600083815260200190815260200160002081905550505b600860008473ffffffffffffffffffffffffffffffffffffffff1673ffffffffffffffffffffffffffffffffffffffff168152602001908152602001600020600001805480919060019003613afb9190613e47565b50600860008473ffffffffffffffffffffffffffffffffffffffff1673ffffffffffffffffffffffffffffffffffffffff1681526020019081526020016000206001016000838152602001908152602001600020600090556009600083815260200190815260200160002060006101000a81549073ffffffffffffffffffffffffffffffffffffffff02191690556007600081548092919060019003919050555081600073ffffffffffffffffffffffffffffffffffffffff168473ffffffffffffffffffffffffffffffffffffffff167fddf252ad1be2c89b69c2b068fc378daa952ba7f163c4a11628f55a4df523b3ef60405160405180910390a4505050565b6000806000806000806000806000600860008c73ffffffffffffffffffffffffffffffffffffffff1673ffffffffffffffffffffffffffffffffffffffff1681526020019081526020016000206000018a815481101515613c5a57fe5b9060005260206000209060050201905080600001549850806001015497508060020160009054906101000a900461ffff169650806003016000600281101515613c9f57fe5b601091828204019190066002029054906101000a900461ffff169550806003016001600281101515613ccd57fe5b601091828204019190066002029054906101000a900461ffff1694508060040160009054906101000a900460ff1693508a92508060040160019054906101000a900460ff169150509295985092959890939650565b600080823b905060008111915050919050565b610300604051908101604052806006905b613d4e613ec4565b815260200190600190039081613d465790505090565b60e0604051908101604052806000815260200160008152602001600061ffff168152602001613d91613ee7565b8152602001600060ff1681526020016000151581525090565b826002600f01601090048101928215613e365791602002820160005b83821115613e0657835183826101000a81548161ffff021916908361ffff1602179055509260200192600201602081600101049283019260010302613dc6565b8015613e345782816101000a81549061ffff0219169055600201602081600101049283019260010302613e06565b505b509050613e439190613f09565b5090565b815481835581811115613e7457600502816005028360005260206000209182019101613e739190613f3a565b5b505050565b826002600f01601090048101928215613eb35791600f016010900482015b82811115613eb2578254825591600101919060010190613e97565b5b509050613ec09190613f09565b5090565b608060405190810160405280600490602082028038833980820191505090505090565b6040805190810160405280600290602082028038833980820191505090505090565b613f3791905b80821115613f3357600081816101000a81549061ffff021916905550600101613f0f565b5090565b90565b613fb391905b80821115613faf5760008082016000905560018201600090556002820160006101000a81549061ffff0219169055600382016000613f7e9190613fb6565b6004820160006101000a81549060ff02191690556004820160016101000a81549060ff021916905550600501613f40565b5090565b90565b506000905556fea165627a7a723058202b81bfc47cf7d6f16586d8b20ff111e829f78bec94a281310a2a682aea07ff710029",
  "source": "pragma solidity 0.5.0;\nimport \"./ERC.sol\";\nimport \"./ItemContract.sol\";\n\n\ncontract ERC165Implementation is ERC165 {\n    constructor () public {\n        //store that contract implements ERC165\n        supportedInterfaces[bytes4(keccak256(\"supportsInterface(bytes4)\"))] = true;\n        \n        //Store that te contract implements ERC721\n        supportedInterfaces[\n        bytes4(keccak256(\"balanceOf(address)\")) ^\n        bytes4(keccak256(\"ownerOf(uint256)\")) ^\n        bytes4(keccak256(\"safeTransferFrom(address,address,uint256,bytes\")) ^\n        bytes4(keccak256(\"safeTransferFrom(address,address,uint256\")) ^\n        bytes4(keccak256(\"transferFrom(address,address,uint256\")) ^\n        bytes4(keccak256(\"approve(address,uint256\")) ^\n        bytes4(keccak256(\"setApprovalForAll(address,bool\")) ^\n        bytes4(keccak256(\"getApproved(uint256\")) ^\n        bytes4(keccak256(\"isApprovedForAll(address,address)\")) ^\n        bytes4(keccak256(\"totalSupply()\"))\n        ] = true;\n    }\n\n    //mapping to store what interfaces are supported\n    mapping (bytes4 => bool) internal supportedInterfaces;\n\n    ///@notice Query if a contract implements an interface.\n    ///@param interfaceID The interface identifier, as specified in ERC-165.\n    ///@dev Interface identification is specified in ERC-165. This function\n    /// uses less than 30,000 gas.\n    /// @return `true` if the contract implements `interfaceID` and\n    /// `interfaceID` is not 0xffffffff, `false` otherwise.\n    function supportsInterface(bytes4 interfaceID) external view returns (bool) {\n        return supportedInterfaces[interfaceID];\n    }\n}\n\n\n\n\n///@title ItemOwnership is the contract that implements all ERC721 standards.\n/// This means that the contract takes care of all that has to do with ownerships.\n///@author Hvard Pedersen, B6056952.\n///@dev This will implement and make use of\n/// functions, events, and storages defined in its parent-contracts.\ncontract ItemOwnership is ERC721, ItemContract, ERC721TokenReceiver, ERC165Implementation {\n    address internal owner;\n    constructor () public {\n        owner = msg.sender;\n    }\n\n\n    /*** NAIVE METHODS ***/\n     \n    /// @notice Count all items assigned to an owner.\n    /// @param _account An address for whom to query the balance.\n    /// @return The number of items owned by `_owner`, possibly zero.\n    function balanceOf(address _account) external view returns (uint) {\n        return users[_account].items.length;\n    }\n    /// @notice Returns a map of map. This should be accessed as follows:\n    /// [type][value], where type is weapon type, and value is either\n    /// 0 (statIncrement for stat1), 1(statIncrement for stat2),\n    /// 2 (Lowest roll for stat1), 3(Lowest roll for stat2).\n    function getStatInformation() external view returns(uint8[4][6] memory) {\n        return statInformation;\n    }\n\n    /// @notice Count items tracked by this contract.\n    /// @return A count of valid items tracked by this contract, where each one of\n    ///  them has an assigned and queryable owner not equal to the zero address.\n    function totalSupply() external view returns (uint) {\n        return numberOfItems;\n    }\n\n    /// @notice Find the owner of an item.\n    /// @param _id The identifier for an item.\n    /// @return The address of the owner of the item.\n    function ownerOf(uint _id) external view returns (address) {\n        return ownerOfItem[_id];\n    }\n\n    ///@dev this might seem like a redundant function, as we also have approve. \n    ///However, this is a naive, internal call. The other approve function is external,\n    ///and checks all parameters. This is done to lower gasprice. \n    ///@notice does not trigger Approval event, as this will be done by the calling functions.\n    function _approve(address _to, uint _id) internal {\n        itemApprovals[_id] = _to;\n    }\n\n    ///@dev internal function to check if address is approved for an item.\n    function isApprovedFor(address _user, uint _id) internal view returns (bool) {\n        return itemApprovals[_id] == _user;\n    }\n\n    ///@dev check if item exists\n    function itemIsInGame(uint _id) internal view returns (bool) {\n        require(_id > 0 || _id <= ids, \"Id is not valid\");\n        require(ownerOfItem[_id] != address(0), \"Item is (no longer) in the game\");\n        return true;\n    }\n\n    //From AddressUtils.sol library.\n    ///@dev check if a given address is a contract\n    function isContract(address addr) internal view returns (bool) {\n        uint256 size;\n        assembly { size := extcodesize(addr) }\n        return size > 0;\n    }\n\n    ///@dev check if item is on auction\n    ///@param _id id of item to check\n    function isOnAuction(uint _id) internal view returns (bool) {\n        require(itemIsInGame(_id), \"item does not exist\");\n        User storage itemOwner = users[ownerOfItem[_id]];\n        return itemOwner.items[itemOwner.indexOfItem[_id]].onAuction;\n    }\n\n    /// @notice Handle the receipt of an NFT\n    /// @return `bytes4(keccak256(\"onERC721Received(address,address,uint256,bytes)\"))`\n    function onERC721Received(\n        address, \n        address, \n        uint256, \n        bytes calldata\n    )external returns(bytes4) {\n        return bytes4(keccak256(\"onERC721Received(address,address,uint256,bytes)\"));\n    }    \n\n\n\n\n\n    /*** SKEPTICAL METHODS ***/\n\n    /// @notice Change or reaffirm the approved address for an item.\n    /// @param _to The new approved item controller.\n    /// @param _id The item to approve.\n    function approve(address _to, uint _id) external payable {       \n        //Make sure its a valid id\n        require(itemIsInGame(_id));\n        require(!isOnAuction(_id));\n        //check if caller has right to approve this item to an account\n        address itemOwner = ownerOfItem[_id];\n        require(\n            itemOwner == msg.sender ||\n            approvedForAll[owner][msg.sender], \n            \"Must be owner or operator of the item\"\n        );\n        \n        //approve account\n        _approve(_to, _id);\n       \n        //emit the event\n        emit Approval(ownerOfItem[_id], _to, _id);\n    }\n\n    /// @notice Get the approved address for a single item.\n    /// @param _id The item to find the approved address for.\n    /// @return The approved address for this item, or the zero address if there is none.\n    function getApproved(uint256 _id) external view returns (address) {\n        //Make sure its a valid id\n        require(itemIsInGame(_id), \"item does not exist\");\n        return itemApprovals[_id];\n    }\n\n    /// @notice Transfer ownership of an item -- THE CALLER IS RESPONSIBLE\n    ///  TO CONFIRM THAT `_to` IS CAPABLE OF RECEIVING ITEMS OR ELSE\n    ///  THEY MAY BE PERMANENTLY LOST.\n    /// @param _from The current owner of the item.\n    /// @param _to The new owner.\n    /// @param _id The item to transfer.\n    function transferFrom (\n        address _from, \n        address _to,\n        uint256 _id\n    ) public payable {\n        address itemOwner = ownerOfItem[_id];        \n        //Make sure its a valid id\n        require(itemIsInGame(_id));\n        //make sure item is not up for auction\n        require(!isOnAuction(_id));\n\n        //Check if sender is authorized to transfer item\n        require(\n            isApprovedFor(msg.sender, _id) || \n            itemOwner == msg.sender ||\n            approvedForAll[owner][msg.sender],\n            \"Does not have authority over that item\"\n        );\n        //check if owner address matches owner parameter\n        require(itemOwner == _from, \"The item does not belong to that account\");\n        \n        //call transfer function\n        transferOwnership(_from, _to, _id);\n    }\n    \n    /// @notice Transfers the ownership of an item from one address to another address.\n    /// @param _from The current owner of the item.\n    /// @param _to The new owner.\n    /// @param _id The item to transfer.\n    /// @param data Additional data with no specified format, sent in call to `_to`.\n    function safeTransferFrom(address _from, address _to, uint256 _id, bytes calldata data) external payable {\n        \n        //call transfer function to do checks and transfer item\n        transferFrom(_from, _to, _id);\n\n        //if caller is another contract, make sure that \n        //the contract has implemented ERC721, or cancel transfer\n        if (isContract(_to)) {\n            ERC721TokenReceiver receiver = ERC721TokenReceiver(_to);\n            require(\n                receiver.onERC721Received(msg.sender, _from, _id, data) ==\n                bytes4(keccak256(\"onERC721Received(address,address,uint256,bytes)\")),\n                \"Contracts don't implement the same standard\"\n            );\n        }\n    }\n\n    /// @notice Transfers the ownership of an item from one address to another address.\n    /// @param _from The current owner of the item.\n    /// @param _to The new owner.\n    /// @param _id The item to transfer.\n    function safeTransferFrom(address _from, address _to, uint256 _id) external payable {\n        this.safeTransferFrom(_from, _to, _id, \"\");\n    }\n\n    /// @notice Query if an address is an authorized operator for another address.\n    /// @param _owner The address that owns the items.\n    /// @param _operator The address that acts on behalf of the owner.\n    /// @return True if `_operator` is an approved operator for `_owner`, false otherwise.\n    function isApprovedForAll(address _owner, address _operator) external view returns (bool) {\n        return approvedForAll[_owner][_operator];\n    }\n    \n    /// @notice Enable or disable approval for a third party (\"operator\") to manage\n    ///  all of `msg.sender`'s assets.\n    /// @param _operator Address to add to the set of authorized operators.\n    /// @param _approved True if the operator is approved, false to revoke approval.\n    function setApprovalForAll(address _operator, bool _approved) external {\n        approvedForAll[msg.sender][_operator] = _approved;\n        emit ApprovalForAll(msg.sender, _operator, _approved);\n    }\n\n    ///@notice This function can be used to iterate through all items of a user,\n    ///in combination with balanceOf(_owner). This is the only way to return all\n    ///items an address owns.\n    function getItemByIndex(address _owner, uint _index) public view \n    returns(\n        uint id,\n        uint equipmentType,\n        uint16 img,\n        uint16 stat1,\n        uint16 stat2,\n        uint8 rarity,\n        address ownerAddress,\n        bool onAuction\n    ) {\n        User storage user = users[_owner];\n        require(user.items.length >= _index, \"Owner dont have that many items.\");\n        return getItem(_owner, _index);\n\n    }\n    ///@notice This function can be used to iterate through all items of a user,\n    ///in combination with balanceOf(_owner). This is the only way to return all\n    ///items an address owns.\n    function getItemByID(address _owner, uint _id) public view \n    returns(\n        uint id,\n        uint equipmentType,\n        uint16 img,\n        uint16 stat1,\n        uint16 stat2,\n        uint8 rarity,\n        address ownerAddress,\n        bool onAuction\n    ) {\n        require(itemIsInGame(_id));\n        require(ownerOfItem[_id] == _owner, \"Thats not the owner of the item\");\n        return getItem(_owner, users[_owner].indexOfItem[_id]);\n\n    }\n    \n    function upgrade(address _owner, uint _id1, uint _id2, uint _id3) \n    external {\n        User storage user = users[_owner];\n        //check that items are all owned by the given address\n        require(\n            ownerOfItem[_id1] == ownerOfItem[_id2] &&\n            ownerOfItem[_id1] == ownerOfItem[_id3] &&\n            address(ownerOfItem[_id1]) == _owner,\n            \"All items are not owned by that address.\"\n        );\n        //Check that caller has authority over the account\n        require(\n            msg.sender == _owner ||\n            approvedForAll[_owner][msg.sender],\n            \"You dont have the authority to do that.\"\n        );\n        //Check that items are not approved for trade\n        require(\n            itemApprovals[_id1] == itemApprovals[_id2] &&\n            itemApprovals[_id1] == itemApprovals[_id3] &&\n             itemApprovals[_id1] == address(0),\n            \"Items cant be approved for trade\"\n        );\n        //check that items are not up for auction\n        require(\n            !isOnAuction(_id1) &&\n            !isOnAuction(_id2) && \n            !isOnAuction(_id3),\n            \"Cant upgrade items that are up for auction\"\n        );\n        \n        //check that items are of same rarity\n        uint8 rarity = user.items[user.indexOfItem[_id1]].rarity;\n        require(\n            rarity == user.items[user.indexOfItem[_id2]].rarity &&\n            rarity == user.items[user.indexOfItem[_id3]].rarity,\n            \"The items must be of same rarity\"\n        );        \n        //check that items are not legendary\n        require(\n            rarity != 4,\n            \"The items must not be legendary\"\n        );\n        //upgrade items\n        upgradeItems(_owner, _id1, _id2, _id3);\n    }\n\n}",
  "sourcePath": "F:\\coding\\test\\contracts\\ItemOwnership.sol",
  "compiler": {
    "name": "solc",
    "version": "0.5.0+commit.1d4f565a.Emscripten.clang"
  },
  "schemaVersion": "3.0.1",
  "updatedAt": "2019-03-27T22:01:49.427Z",
  "devdoc": {
    "author": "Hvard Pedersen, B6056952.",
    "details": "This will implement and make use of functions, events, and storages defined in its parent-contracts.",
    "methods": {
      "approve(address,uint256)": {
        "params": {
          "_id": "The item to approve.",
          "_to": "The new approved item controller."
        }
      },
      "balanceOf(address)": {
        "params": {
          "_account": "An address for whom to query the balance."
        },
        "return": "The number of items owned by `_owner`, possibly zero."
      },
      "createItem(uint256,uint16,uint16,uint16,uint8,address)": {
        "details": "Function to mint a new item, store it in the owners array and send out events.",
        "params": {
          "_img": "the int that stores both item type and logic for what image to use.",
          "_owner": "the address of the lucky owner of this newly minted item",
          "_rarity": "the rarity of the new item",
          "_stat1": "as stat2.",
          "_stat2": "these two are the stats of the items, where they should be assigned to stat[] as follows: [_stat1, _stat2]."
        },
        "return": "returns the id of the new item"
      },
      "getApproved(uint256)": {
        "params": {
          "_id": "The item to find the approved address for."
        },
        "return": "The approved address for this item, or the zero address if there is none."
      },
      "isApprovedForAll(address,address)": {
        "params": {
          "_operator": "The address that acts on behalf of the owner.",
          "_owner": "The address that owns the items."
        },
        "return": "True if `_operator` is an approved operator for `_owner`, false otherwise."
      },
      "onERC721Received(address,address,uint256,bytes)": {
        "return": "`bytes4(keccak256(\"onERC721Received(address,address,uint256,bytes)\"))`"
      },
      "ownerOf(uint256)": {
        "params": {
          "_id": "The identifier for an item."
        },
        "return": "The address of the owner of the item."
      },
      "safeTransferFrom(address,address,uint256)": {
        "params": {
          "_from": "The current owner of the item.",
          "_id": "The item to transfer.",
          "_to": "The new owner."
        }
      },
      "safeTransferFrom(address,address,uint256,bytes)": {
        "params": {
          "_from": "The current owner of the item.",
          "_id": "The item to transfer.",
          "_to": "The new owner.",
          "data": "Additional data with no specified format, sent in call to `_to`."
        }
      },
      "setApprovalForAll(address,bool)": {
        "params": {
          "_approved": "True if the operator is approved, false to revoke approval.",
          "_operator": "Address to add to the set of authorized operators."
        }
      },
      "supportsInterface(bytes4)": {
        "details": "Interface identification is specified in ERC-165. This function uses less than 30,000 gas.",
        "params": {
          "interfaceID": "The interface identifier, as specified in ERC-165."
        },
        "return": "`true` if the contract implements `interfaceID` and `interfaceID` is not 0xffffffff, `false` otherwise."
      },
      "totalSupply()": {
        "return": "A count of valid items tracked by this contract, where each one of  them has an assigned and queryable owner not equal to the zero address."
      },
      "transferFrom(address,address,uint256)": {
        "params": {
          "_from": "The current owner of the item.",
          "_id": "The item to transfer.",
          "_to": "The new owner."
        }
      },
      "upgradeItems(address,uint256,uint256,uint256)": {
        "details": "this is the function called when upgrading items"
      }
    },
    "title": "ItemOwnership is the contract that implements all ERC721 standards. This means that the contract takes care of all that has to do with ownerships."
  },
  "userdoc": {
    "methods": {
      "approve(address,uint256)": {
        "notice": "Change or reaffirm the approved address for an item."
      },
      "balanceOf(address)": {
        "notice": "Count all items assigned to an owner."
      },
      "getApproved(uint256)": {
        "notice": "Get the approved address for a single item."
      },
      "getItemByID(address,uint256)": {
        "notice": "This function can be used to iterate through all items of a user, in combination with balanceOf(_owner). This is the only way to return all items an address owns."
      },
      "getItemByIndex(address,uint256)": {
        "notice": "This function can be used to iterate through all items of a user, in combination with balanceOf(_owner). This is the only way to return all items an address owns."
      },
      "getStatInformation()": {
        "notice": "Returns a map of map. This should be accessed as follows: [type][value], where type is weapon type, and value is either 0 (statIncrement for stat1), 1(statIncrement for stat2), 2 (Lowest roll for stat1), 3(Lowest roll for stat2)."
      },
      "isApprovedForAll(address,address)": {
        "notice": "Query if an address is an authorized operator for another address."
      },
      "onERC721Received(address,address,uint256,bytes)": {
        "notice": "Handle the receipt of an NFT"
      },
      "ownerOf(uint256)": {
        "notice": "Find the owner of an item."
      },
      "safeTransferFrom(address,address,uint256)": {
        "notice": "Transfers the ownership of an item from one address to another address."
      },
      "safeTransferFrom(address,address,uint256,bytes)": {
        "notice": "Transfers the ownership of an item from one address to another address."
      },
      "setApprovalForAll(address,bool)": {
        "notice": "Enable or disable approval for a third party (\"operator\") to manage  all of `msg.sender`'s assets."
      },
      "supportsInterface(bytes4)": {
        "notice": "Query if a contract implements an interface."
      },
      "totalSupply()": {
        "notice": "Count items tracked by this contract."
      },
      "transferFrom(address,address,uint256)": {
        "notice": "Transfer ownership of an item -- THE CALLER IS RESPONSIBLE  TO CONFIRM THAT `_to` IS CAPABLE OF RECEIVING ITEMS OR ELSE  THEY MAY BE PERMANENTLY LOST."
      }
    }
  }
}