{
  "contractName": "ERC165Implementation",
  "abi": [
    {
      "inputs": [],
      "payable": false,
      "stateMutability": "nonpayable",
      "type": "constructor"
    },
    {
      "constant": true,
      "inputs": [
        {
          "name": "interfaceID",
          "type": "bytes4"
        }
      ],
      "name": "supportsInterface",
      "outputs": [
        {
          "name": "",
          "type": "bool"
        }
      ],
      "payable": false,
      "stateMutability": "view",
      "type": "function"
    }
  ],
  "bytecode": "0x608060405234801561001057600080fd5b50600160008060405180807f737570706f727473496e74657266616365286279746573342900000000000000815250601901905060405180910390207bffffffffffffffffffffffffffffffffffffffffffffffffffffffff19167bffffffffffffffffffffffffffffffffffffffffffffffffffffffff1916815260200190815260200160002060006101000a81548160ff021916908315150217905550600160008060405180807f746f74616c537570706c79282900000000000000000000000000000000000000815250600d019050604051809103902060405180807f6973417070726f766564466f72416c6c28616464726573732c6164647265737381526020017f29000000000000000000000000000000000000000000000000000000000000008152506021019050604051809103902060405180807f676574417070726f7665642875696e74323536000000000000000000000000008152506013019050604051809103902060405180807f736574417070726f76616c466f72416c6c28616464726573732c626f6f6c0000815250601e019050604051809103902060405180807f617070726f766528616464726573732c75696e743235360000000000000000008152506017019050604051809103902060405180807f7472616e7366657246726f6d28616464726573732c616464726573732c75696e81526020017f74323536000000000000000000000000000000000000000000000000000000008152506024019050604051809103902060405180807f736166655472616e7366657246726f6d28616464726573732c6164647265737381526020017f2c75696e743235360000000000000000000000000000000000000000000000008152506028019050604051809103902060405180807f736166655472616e7366657246726f6d28616464726573732c6164647265737381526020017f2c75696e743235362c6279746573000000000000000000000000000000000000815250602e019050604051809103902060405180807f6f776e65724f662875696e7432353629000000000000000000000000000000008152506010019050604051809103902060405180807f62616c616e63654f662861646472657373290000000000000000000000000000815250601201905060405180910390201818181818181818187bffffffffffffffffffffffffffffffffffffffffffffffffffffffff19167bffffffffffffffffffffffffffffffffffffffffffffffffffffffff1916815260200190815260200160002060006101000a81548160ff02191690831515021790555061014b806103e36000396000f3fe608060405260043610610041576000357c0100000000000000000000000000000000000000000000000000000000900463ffffffff16806301ffc9a714610046575b600080fd5b34801561005257600080fd5b5061009e6004803603602081101561006957600080fd5b8101908080357bffffffffffffffffffffffffffffffffffffffffffffffffffffffff191690602001909291905050506100b8565b604051808215151515815260200191505060405180910390f35b6000806000837bffffffffffffffffffffffffffffffffffffffffffffffffffffffff19167bffffffffffffffffffffffffffffffffffffffffffffffffffffffff1916815260200190815260200160002060009054906101000a900460ff16905091905056fea165627a7a7230582082e4dbb8f197a078826c5fcc77b40779c1ca02fb2d1ead6798e86f5b1820a6fb0029",
  "source": "pragma solidity 0.5.0;\r\nimport \"./ERC.sol\";\r\nimport \"./ItemContract.sol\";\r\n\r\n\r\ncontract ERC165Implementation is ERC165 {\r\n    constructor () public {\r\n        //store that contract implements ERC165\r\n        supportedInterfaces[bytes4(keccak256(\"supportsInterface(bytes4)\"))] = true;\r\n        \r\n        //Store that te contract implements ERC721\r\n        supportedInterfaces[\r\n        bytes4(keccak256(\"balanceOf(address)\")) ^\r\n        bytes4(keccak256(\"ownerOf(uint256)\")) ^\r\n        bytes4(keccak256(\"safeTransferFrom(address,address,uint256,bytes\")) ^\r\n        bytes4(keccak256(\"safeTransferFrom(address,address,uint256\")) ^\r\n        bytes4(keccak256(\"transferFrom(address,address,uint256\")) ^\r\n        bytes4(keccak256(\"approve(address,uint256\")) ^\r\n        bytes4(keccak256(\"setApprovalForAll(address,bool\")) ^\r\n        bytes4(keccak256(\"getApproved(uint256\")) ^\r\n        bytes4(keccak256(\"isApprovedForAll(address,address)\")) ^\r\n        bytes4(keccak256(\"totalSupply()\"))\r\n        ] = true;\r\n    }\r\n\r\n    //mapping to store what interfaces are supported\r\n    mapping (bytes4 => bool) internal supportedInterfaces;\r\n\r\n    /// @notice Query if a contract implements an interface.\r\n    /// @param interfaceID The interface identifier, as specified in ERC-165.\r\n    /// @dev Interface identification is specified in ERC-165. This function\r\n    ///  uses less than 30,000 gas.\r\n    /// @return `true` if the contract implements `interfaceID` and\r\n    ///  `interfaceID` is not 0xffffffff, `false` otherwise.\r\n    function supportsInterface(bytes4 interfaceID) external view returns (bool) {\r\n        return supportedInterfaces[interfaceID];\r\n    }\r\n}\r\n\r\n\r\n\r\n\r\n///@title ItemOwnership is the contract that implements all ERC721 standards.\r\n/// This means that the contract takes care of all that has to do with ownerships.\r\n///@author Håvard Pedersen, B6056952.\r\n///@dev This will implement and make use of\r\n/// functions, events, and storages defined in its parent-contracts.\r\ncontract ItemOwnership is ERC721, ItemContract, ERC721TokenReceiver {\r\n    address internal owner;\r\n    constructor () public {\r\n        owner = msg.sender;\r\n    }\r\n\r\n    /*** ERC IMPLEMENTATIONS ***/\r\n\r\n\r\n    /*** NAIVE METHODS ***/\r\n     \r\n    /// @notice Count all items assigned to an owner.\r\n    /// @param _owner An address for whom to query the balance.\r\n    /// @return The number of items owned by `_owner`, possibly zero.\r\n    function balanceOf(address _account) external view returns (uint) {\r\n        return users[_account].items.length;\r\n    }\r\n    /// @notice Returns a map of map. This should be accessed as follows:\r\n    /// [type][value], where type is weapon type, and value is either\r\n    /// 0 (statIncrement for stat1), 1(statIncrement for stat2),\r\n    /// 2 (Lowest roll for stat1), 3(Lowest roll for stat2).\r\n    function getStatInformation() external view returns(uint8[4][6] memory){\r\n        return statInformation;\r\n    }\r\n\r\n    /// @notice Count items tracked by this contract.\r\n    /// @return A count of valid items tracked by this contract, where each one of\r\n    ///  them has an assigned and queryable owner not equal to the zero address.\r\n    function totalSupply() external view returns (uint) {\r\n        return numberOfItems;\r\n    }\r\n\r\n    /// @notice Find the owner of an item.\r\n    /// @param _id The identifier for an item.\r\n    /// @return The address of the owner of the item.\r\n    function ownerOf(uint _id) external view returns (address) {\r\n        return ownerOfItem[_id];\r\n    }\r\n\r\n    ///@dev this might seem like a redundant function, as we also have approve. \r\n    ///However, this is a naive, internal call. The other approve function is external,\r\n    ///and checks all parameters. This is done to lower gasprice. \r\n    ///@notice does not trigger Approval event, as this will be done by the calling functions.\r\n    function _approve(address _to, uint _id) internal {\r\n        itemApprovals[_id] = _to;\r\n    }\r\n\r\n    ///@dev internal function to check if address is approved for an item.\r\n    function isApprovedFor(address _user, uint _id) internal view returns (bool) {\r\n        return itemApprovals[_id] == _user;\r\n    }\r\n\r\n    function itemIsInGame(uint _id) internal view returns (bool) {\r\n        require(_id > 0 || _id <= ids, \"Id is not valid\");\r\n        require(ownerOfItem[_id] != address(0), \"Item is (no longer) in the game\");\r\n    }\r\n\r\n    //From AddressUtils.sol library.\r\n    function isContract(address addr) internal view returns (bool) {\r\n        uint256 size;\r\n        assembly { size := extcodesize(addr) }\r\n        return size > 0;\r\n    }\r\n    /// @notice Handle the receipt of an NFT\r\n    /// @param _operator The address which called `safeTransferFrom` function\r\n    /// @param _from The address which previously owned the token\r\n    /// @param _tokenId The NFT identifier which is being transferred\r\n    /// @param _data Additional data with no specified format\r\n    /// @return `bytes4(keccak256(\"onERC721Received(address,address,uint256,bytes)\"))`\r\n    ///  unless throwing\r\n    function onERC721Received(\r\n        address _operator, \r\n        address _from, \r\n        uint256 _tokenId, \r\n        bytes calldata _data\r\n    )external returns(bytes4){\r\n        return bytes4(keccak256(\"onERC721Received(address,address,uint256,bytes)\"));\r\n    }    \r\n\r\n    /*** SKEPTICAL METHODS ***/\r\n\r\n    /// @notice Change or reaffirm the approved address for an item.\r\n    /// @param _approved The new approved item controller.\r\n    /// @param _id The item to approve.\r\n    function approve(address _to, uint _id) external payable {       \r\n        //Make sure its a valid id\r\n        itemIsInGame(_id);\r\n        //check if caller has right to approve this item to an account\r\n        address itemOwner = ownerOfItem[_id];\r\n        require(\r\n            itemOwner == msg.sender ||\r\n            approvedForAll[owner][msg.sender], \r\n            \"Must be owner or operator of the item\"\r\n        );\r\n        \r\n        //approve account\r\n        _approve(_to, _id);\r\n       \r\n        //emit the event\r\n        emit Approval(ownerOfItem[_id], _to, _id);\r\n    }\r\n\r\n    /// @notice Get the approved address for a single item.\r\n    /// @param _id The item to find the approved address for.\r\n    /// @return The approved address for this item, or the zero address if there is none.\r\n    function getApproved(uint256 _id) external view returns (address) {\r\n        //Make sure its a valid id\r\n        itemIsInGame(_id);\r\n        return itemApprovals[_id];\r\n    }\r\n\r\n    /// @notice Transfer ownership of an item -- THE CALLER IS RESPONSIBLE\r\n    ///  TO CONFIRM THAT `_to` IS CAPABLE OF RECEIVING itemS OR ELSE\r\n    ///  THEY MAY BE PERMANENTLY LOST.\r\n    /// @param _from The current owner of the item.\r\n    /// @param _to The new owner.\r\n    /// @param _id The item to transfer.\r\n    function transferFrom (\r\n        address _from, \r\n        address _to,\r\n        uint256 _id\r\n    ) public payable{\r\n        address itemOwner = ownerOfItem[_id];        \r\n        //Make sure its a valid id\r\n        itemIsInGame(_id);\r\n\r\n        //Check if sender is authorized to transfer item\r\n        require(\r\n            isApprovedFor(msg.sender, _id) || \r\n            itemOwner == msg.sender ||\r\n            approvedForAll[owner][msg.sender],\r\n            \"Does not have authority over that item\"\r\n        );\r\n        //check if owner address matches owner parameter\r\n        require(itemOwner == _from, \"The item does not belong to that account\");\r\n        \r\n        //call transfer function\r\n        transferOwnership(_from, _to, _id);\r\n    }\r\n    \r\n    /// @notice Transfers the ownership of an item from one address to another address.\r\n    /// @param _from The current owner of the item.\r\n    /// @param _to The new owner.\r\n    /// @param _id The item to transfer.\r\n    /// @param data Additional data with no specified format, sent in call to `_to`.\r\n    function safeTransferFrom(address _from, address _to, uint256 _id, bytes calldata data) external payable {\r\n        \r\n        //call transfer function to do checks and transfer item\r\n        transferFrom(_from, _to, _id);\r\n\r\n        if (isContract(_to)) {\r\n            ERC721TokenReceiver receiver = ERC721TokenReceiver(_to);\r\n            require(\r\n                receiver.onERC721Received(msg.sender, _from, _id, data) ==\r\n                bytes4(keccak256(\"onERC721Received(address,address,uint256,bytes)\")),\r\n                \"Contracts don't implement the same standard\"\r\n            );\r\n        }\r\n    }\r\n\r\n    /// @notice Transfers the ownership of an item from one address to another address.\r\n    /// @param _from The current owner of the item.\r\n    /// @param _to The new owner.\r\n    /// @param _id The item to transfer.\r\n    function safeTransferFrom(address _from, address _to, uint256 _id) external payable {\r\n        this.safeTransferFrom(_from, _to, _id, \"\");\r\n    }\r\n\r\n    /// @notice Query if an address is an authorized operator for another address.\r\n    /// @param _owner The address that owns the items.\r\n    /// @param _operator The address that acts on behalf of the owner.\r\n    /// @return True if `_operator` is an approved operator for `_owner`, false otherwise.\r\n    function isApprovedForAll(address _owner, address _operator) external view returns (bool) {\r\n        return approvedForAll[_owner][_operator];\r\n    }\r\n    \r\n    /// @notice Enable or disable approval for a third party (\"operator\") to manage\r\n    ///  all of `msg.sender`'s assets.\r\n    /// @param _operator Address to add to the set of authorized operators.\r\n    /// @param _approved True if the operator is approved, false to revoke approval.\r\n    function setApprovalForAll(address _operator, bool _approved) external {\r\n        approvedForAll[msg.sender][_operator] = _approved;\r\n        emit ApprovalForAll(msg.sender, _operator, _approved);\r\n    }\r\n\r\n    ///@notice This function can be used to iterate through all items of a user,\r\n    ///in combination with balanceOf(_owner). This is the only way to return all\r\n    ///items an address owns.\r\n    function getItemByIndex(address _owner, uint _index) external view \r\n    returns(\r\n        uint id,\r\n        uint equipmentType,\r\n        uint16 img,\r\n        uint16 stat1,\r\n        uint16 stat2,\r\n        uint8 rarity,\r\n        address ownerAddress\r\n    ) {\r\n        User storage user = users[_owner];\r\n        require(user.items.length >= _index, \"Owner dont have that many items.\");\r\n        return getItem(_owner, _index);\r\n\r\n    }\r\n    ///@notice This function can be used to iterate through all items of a user,\r\n    ///in combination with balanceOf(_owner). This is the only way to return all\r\n    ///items an address owns.\r\n    function getItemByID(address _owner, uint _id) external view \r\n    returns(\r\n        uint id,\r\n        uint equipmentType,\r\n        uint16 img,\r\n        uint16 stat1,\r\n        uint16 stat2,\r\n        uint8 rarity,\r\n        address ownerAddress\r\n    ) {\r\n        itemIsInGame(_id);\r\n        require(ownerOfItem[_id] == _owner, \"Thats not the owner of the item\");\r\n        return getItem(_owner, users[_owner].indexOfItem[_id]);\r\n\r\n    }\r\n    \r\n    function upgrade(address _owner, uint _id1, uint _id2, uint _id3) \r\n    external returns (uint) {\r\n        User storage user = users[_owner];\r\n        //check that items are all owned by the given address\r\n        require(\r\n            ownerOfItem[_id1] == ownerOfItem[_id2] &&\r\n            ownerOfItem[_id1] == ownerOfItem[_id3] &&\r\n            address(ownerOfItem[_id1]) == _owner,\r\n            \"All items are not owned by that address.\"\r\n        );\r\n        //Check that caller has authority over the account\r\n        require(\r\n            msg.sender == _owner ||\r\n            approvedForAll[_owner][msg.sender],\r\n            \"You dont have the authority to do that.\"\r\n        );\r\n        //Check that items are not approved for trade\r\n        require(\r\n            itemApprovals[_id1] == itemApprovals[_id2] &&\r\n            itemApprovals[_id1] == itemApprovals[_id3] &&\r\n             itemApprovals[_id1] == address(0),\r\n            \"Items cant be approved for trade\"\r\n        );\r\n        \r\n        //check that items are of same rarity\r\n        uint8 rarity = user.items[user.indexOfItem[_id1]].rarity;\r\n        require(\r\n            rarity == user.items[user.indexOfItem[_id2]].rarity &&\r\n            rarity == user.items[user.indexOfItem[_id3]].rarity,\r\n            \"The items must be of same rarity\"\r\n        );        \r\n        //check that items are not legendary\r\n        require(\r\n            rarity != 4,\r\n            \"The items must not be legendary\"\r\n        );\r\n        //call upgrade\r\n        return upgradeItems(_owner, _id1, _id2, _id3);\r\n    }\r\n\r\n}",
  "sourcePath": "F:/coding/test/contracts/ItemOwnership.sol",
  "compiler": {
    "name": "solc",
    "version": "0.5.0+commit.1d4f565a.Emscripten.clang"
  },
  "schemaVersion": "3.0.1",
  "updatedAt": "2019-03-17T18:37:57.051Z",
  "devdoc": {
    "methods": {}
  },
  "userdoc": {
    "methods": {
      "supportsInterface(bytes4)": {
        "notice": "`interfaceID` is not 0xffffffff, `false` otherwise."
      }
    }
  }
}