{
  "contractName": "ItemOwnership",
  "abi": [
    {
      "constant": false,
      "inputs": [
        {
          "name": "_equipmentType",
          "type": "uint256"
        },
        {
          "name": "_img",
          "type": "uint16"
        },
        {
          "name": "_stat1",
          "type": "uint16"
        },
        {
          "name": "_stat2",
          "type": "uint16"
        },
        {
          "name": "_rarity",
          "type": "uint8"
        },
        {
          "name": "_owner",
          "type": "address"
        }
      ],
      "name": "createItem",
      "outputs": [
        {
          "name": "",
          "type": "uint256"
        }
      ],
      "payable": false,
      "stateMutability": "nonpayable",
      "type": "function"
    },
    {
      "constant": true,
      "inputs": [],
      "name": "numberOfItems",
      "outputs": [
        {
          "name": "",
          "type": "uint256"
        }
      ],
      "payable": false,
      "stateMutability": "view",
      "type": "function"
    },
    {
      "constant": true,
      "inputs": [],
      "name": "ids",
      "outputs": [
        {
          "name": "",
          "type": "uint256"
        }
      ],
      "payable": false,
      "stateMutability": "view",
      "type": "function"
    },
    {
      "constant": true,
      "inputs": [
        {
          "name": "",
          "type": "uint256"
        }
      ],
      "name": "itemApprovals",
      "outputs": [
        {
          "name": "",
          "type": "address"
        }
      ],
      "payable": false,
      "stateMutability": "view",
      "type": "function"
    },
    {
      "inputs": [],
      "payable": false,
      "stateMutability": "nonpayable",
      "type": "constructor"
    },
    {
      "anonymous": false,
      "inputs": [
        {
          "indexed": false,
          "name": "owner",
          "type": "address"
        },
        {
          "indexed": false,
          "name": "id",
          "type": "uint256"
        },
        {
          "indexed": false,
          "name": "equipmentType",
          "type": "uint256"
        },
        {
          "indexed": false,
          "name": "img",
          "type": "uint16"
        },
        {
          "indexed": false,
          "name": "stats",
          "type": "uint16[2]"
        },
        {
          "indexed": false,
          "name": "rarity",
          "type": "uint8"
        }
      ],
      "name": "MintItem",
      "type": "event"
    },
    {
      "anonymous": false,
      "inputs": [
        {
          "indexed": true,
          "name": "_from",
          "type": "address"
        },
        {
          "indexed": true,
          "name": "_to",
          "type": "address"
        },
        {
          "indexed": true,
          "name": "_tokenId",
          "type": "uint256"
        }
      ],
      "name": "Transfer",
      "type": "event"
    },
    {
      "anonymous": false,
      "inputs": [
        {
          "indexed": true,
          "name": "_owner",
          "type": "address"
        },
        {
          "indexed": true,
          "name": "_approved",
          "type": "address"
        },
        {
          "indexed": true,
          "name": "_tokenId",
          "type": "uint256"
        }
      ],
      "name": "Approval",
      "type": "event"
    },
    {
      "anonymous": false,
      "inputs": [
        {
          "indexed": true,
          "name": "_owner",
          "type": "address"
        },
        {
          "indexed": true,
          "name": "_operator",
          "type": "address"
        },
        {
          "indexed": false,
          "name": "_approved",
          "type": "bool"
        }
      ],
      "name": "ApprovalForAll",
      "type": "event"
    },
    {
      "constant": true,
      "inputs": [
        {
          "name": "_account",
          "type": "address"
        }
      ],
      "name": "balanceOf",
      "outputs": [
        {
          "name": "",
          "type": "uint256"
        }
      ],
      "payable": false,
      "stateMutability": "view",
      "type": "function"
    },
    {
      "constant": true,
      "inputs": [],
      "name": "getStatInformation",
      "outputs": [
        {
          "name": "",
          "type": "uint8[4][6]"
        }
      ],
      "payable": false,
      "stateMutability": "view",
      "type": "function"
    },
    {
      "constant": true,
      "inputs": [],
      "name": "totalSupply",
      "outputs": [
        {
          "name": "",
          "type": "uint256"
        }
      ],
      "payable": false,
      "stateMutability": "view",
      "type": "function"
    },
    {
      "constant": true,
      "inputs": [
        {
          "name": "_id",
          "type": "uint256"
        }
      ],
      "name": "ownerOf",
      "outputs": [
        {
          "name": "",
          "type": "address"
        }
      ],
      "payable": false,
      "stateMutability": "view",
      "type": "function"
    },
    {
      "constant": false,
      "inputs": [
        {
          "name": "",
          "type": "address"
        },
        {
          "name": "",
          "type": "address"
        },
        {
          "name": "",
          "type": "uint256"
        },
        {
          "name": "",
          "type": "bytes"
        }
      ],
      "name": "onERC721Received",
      "outputs": [
        {
          "name": "",
          "type": "bytes4"
        }
      ],
      "payable": false,
      "stateMutability": "nonpayable",
      "type": "function"
    },
    {
      "constant": false,
      "inputs": [
        {
          "name": "_to",
          "type": "address"
        },
        {
          "name": "_id",
          "type": "uint256"
        }
      ],
      "name": "approve",
      "outputs": [],
      "payable": true,
      "stateMutability": "payable",
      "type": "function"
    },
    {
      "constant": true,
      "inputs": [
        {
          "name": "_id",
          "type": "uint256"
        }
      ],
      "name": "getApproved",
      "outputs": [
        {
          "name": "",
          "type": "address"
        }
      ],
      "payable": false,
      "stateMutability": "view",
      "type": "function"
    },
    {
      "constant": false,
      "inputs": [
        {
          "name": "_from",
          "type": "address"
        },
        {
          "name": "_to",
          "type": "address"
        },
        {
          "name": "_id",
          "type": "uint256"
        }
      ],
      "name": "transferFrom",
      "outputs": [],
      "payable": true,
      "stateMutability": "payable",
      "type": "function"
    },
    {
      "constant": false,
      "inputs": [
        {
          "name": "_from",
          "type": "address"
        },
        {
          "name": "_to",
          "type": "address"
        },
        {
          "name": "_id",
          "type": "uint256"
        }
      ],
      "name": "safeTransferFrom",
      "outputs": [],
      "payable": true,
      "stateMutability": "payable",
      "type": "function"
    },
    {
      "constant": false,
      "inputs": [
        {
          "name": "_from",
          "type": "address"
        },
        {
          "name": "_to",
          "type": "address"
        },
        {
          "name": "_id",
          "type": "uint256"
        },
        {
          "name": "data",
          "type": "bytes"
        }
      ],
      "name": "safeTransferFrom",
      "outputs": [],
      "payable": true,
      "stateMutability": "payable",
      "type": "function"
    },
    {
      "constant": true,
      "inputs": [
        {
          "name": "_owner",
          "type": "address"
        },
        {
          "name": "_operator",
          "type": "address"
        }
      ],
      "name": "isApprovedForAll",
      "outputs": [
        {
          "name": "",
          "type": "bool"
        }
      ],
      "payable": false,
      "stateMutability": "view",
      "type": "function"
    },
    {
      "constant": false,
      "inputs": [
        {
          "name": "_operator",
          "type": "address"
        },
        {
          "name": "_approved",
          "type": "bool"
        }
      ],
      "name": "setApprovalForAll",
      "outputs": [],
      "payable": false,
      "stateMutability": "nonpayable",
      "type": "function"
    },
    {
      "constant": true,
      "inputs": [
        {
          "name": "_owner",
          "type": "address"
        },
        {
          "name": "_index",
          "type": "uint256"
        }
      ],
      "name": "getItemByIndex",
      "outputs": [
        {
          "name": "id",
          "type": "uint256"
        },
        {
          "name": "equipmentType",
          "type": "uint256"
        },
        {
          "name": "img",
          "type": "uint16"
        },
        {
          "name": "stat1",
          "type": "uint16"
        },
        {
          "name": "stat2",
          "type": "uint16"
        },
        {
          "name": "rarity",
          "type": "uint8"
        },
        {
          "name": "ownerAddress",
          "type": "address"
        }
      ],
      "payable": false,
      "stateMutability": "view",
      "type": "function"
    },
    {
      "constant": true,
      "inputs": [
        {
          "name": "_owner",
          "type": "address"
        },
        {
          "name": "_id",
          "type": "uint256"
        }
      ],
      "name": "getItemByID",
      "outputs": [
        {
          "name": "id",
          "type": "uint256"
        },
        {
          "name": "equipmentType",
          "type": "uint256"
        },
        {
          "name": "img",
          "type": "uint16"
        },
        {
          "name": "stat1",
          "type": "uint16"
        },
        {
          "name": "stat2",
          "type": "uint16"
        },
        {
          "name": "rarity",
          "type": "uint8"
        },
        {
          "name": "ownerAddress",
          "type": "address"
        }
      ],
      "payable": false,
      "stateMutability": "view",
      "type": "function"
    },
    {
      "constant": false,
      "inputs": [
        {
          "name": "_owner",
          "type": "address"
        },
        {
          "name": "_id1",
          "type": "uint256"
        },
        {
          "name": "_id2",
          "type": "uint256"
        },
        {
          "name": "_id3",
          "type": "uint256"
        }
      ],
      "name": "upgrade",
      "outputs": [
        {
          "name": "",
          "type": "uint256"
        }
      ],
      "payable": false,
      "stateMutability": "nonpayable",
      "type": "function"
    }
  ],
  "bytecode": "0x608060405260c060405190810160405280608060405190810160405280603260ff168152602001600f60ff168152602001606460ff168152602001601e60ff168152508152602001608060405190810160405280603260ff168152602001600560ff168152602001609660ff168152602001600a60ff168152508152602001608060405190810160405280600560ff168152602001600f60ff168152602001600a60ff168152602001601e60ff168152508152602001608060405190810160405280604660ff168152602001600f60ff168152602001603260ff168152602001601460ff168152508152602001608060405190810160405280609660ff168152602001600860ff16815260200160c860ff168152602001601460ff168152508152602001608060405190810160405280606460ff168152602001600a60ff16815260200160fa60ff168152602001602360ff1681525081525060009060066200016a92919062000610565b503480156200017857600080fd5b5033600c60006101000a81548173ffffffffffffffffffffffffffffffffffffffff021916908373ffffffffffffffffffffffffffffffffffffffff160217905550620001f160046001603260028073940819a549a6a5f5e55dab8d4c4d0c6c045fffaf620002a0640100000000026401000000009004565b506200022960046001603260028073940819a549a6a5f5e55dab8d4c4d0c6c045fffaf620002a0640100000000026401000000009004565b506200026160046001603260028073940819a549a6a5f5e55dab8d4c4d0c6c045fffaf620002a0640100000000026401000000009004565b506200029960046001603260028073940819a549a6a5f5e55dab8d4c4d0c6c045fffaf620002a0640100000000026401000000009004565b50620008aa565b6000600660008154809291906001019190505550620002be62000665565b60a06040519081016040528060065481526020018981526020018861ffff16815260200160408051908101604052808961ffff1661ffff1681526020018861ffff1661ffff1681525081526020018560ff1681525090506001600860008573ffffffffffffffffffffffffffffffffffffffff1673ffffffffffffffffffffffffffffffffffffffff1681526020019081526020016000206000018290806001815401808255809150509060018203906000526020600020906005020160009091929091909150600082015181600001556020820151816001015560408201518160020160006101000a81548161ffff021916908361ffff160217905550606082015181600301906002620003d5929190620006a4565b5060808201518160040160006101000a81548160ff021916908360ff160217905550505003600860008573ffffffffffffffffffffffffffffffffffffffff1673ffffffffffffffffffffffffffffffffffffffff16815260200190815260200160002060010160006006548152602001908152602001600020819055508260096000600654815260200190815260200160002060006101000a81548173ffffffffffffffffffffffffffffffffffffffff021916908373ffffffffffffffffffffffffffffffffffffffff1602179055506007600081548092919060010191905055507f8c7f49bc6bb258a4957b508717a1f0f0b1015c972c8adf7c566f1587f9ec7096836006548a8a60408051908101604052808c61ffff1661ffff1681526020018b61ffff1661ffff1681525089604051808773ffffffffffffffffffffffffffffffffffffffff1673ffffffffffffffffffffffffffffffffffffffff1681526020018681526020018581526020018461ffff1661ffff16815260200183600260200280838360005b838110156200057f57808201518184015260208101905062000562565b505050509050018260ff1660ff168152602001965050505050505060405180910390a16006548373ffffffffffffffffffffffffffffffffffffffff16600073ffffffffffffffffffffffffffffffffffffffff167fddf252ad1be2c89b69c2b068fc378daa952ba7f163c4a11628f55a4df523b3ef60405160405180910390a46006549150509695505050505050565b826006810192821562000652579160200282015b8281111562000651578251829060046200064092919062000748565b509160200191906001019062000624565b5b509050620006619190620007e9565b5090565b60c0604051908101604052806000815260200160008152602001600061ffff168152602001620006946200081a565b8152602001600060ff1681525090565b826002600f01601090048101928215620007355791602002820160005b838211156200070357835183826101000a81548161ffff021916908361ffff1602179055509260200192600201602081600101049283019260010302620006c1565b8015620007335782816101000a81549061ffff021916905560020160208160010104928301926001030262000703565b505b5090506200074491906200083c565b5090565b826004601f01602090048101928215620007d65791602002820160005b83821115620007a557835183826101000a81548160ff021916908360ff160217905550926020019260010160208160000104928301926001030262000765565b8015620007d45782816101000a81549060ff0219169055600101602081600001049283019260010302620007a5565b505b509050620007e5919062000870565b5090565b6200081791905b80821115620008135760008181620008099190620008a3565b50600101620007f0565b5090565b90565b6040805190810160405280600290602082028038833980820191505090505090565b6200086d91905b808211156200086957600081816101000a81549061ffff02191690555060010162000843565b5090565b90565b620008a091905b808211156200089c57600081816101000a81549060ff02191690555060010162000877565b5090565b90565b5060009055565b613d3080620008ba6000396000f3fe608060405260043610610107576000357c0100000000000000000000000000000000000000000000000000000000900463ffffffff168063081812fc1461010c578063095ea7b3146101875780630cd904e6146101d5578063150b7a021461024b57806318160ddd1461036d57806323b872dd1461039857806342842e0e146104065780635ee9221e146104745780636352211e1461055757806370a08231146105d2578063838624d114610637578063842296d4146106dd578063a22cb46514610708578063b88d4fde14610765578063d5b4688c14610828578063d662dde4146108ab578063e7657e151461098e578063e985e9c5146109b9578063f39e70ba14610a42575b600080fd5b34801561011857600080fd5b506101456004803603602081101561012f57600080fd5b8101908080359060200190929190505050610abd565b604051808273ffffffffffffffffffffffffffffffffffffffff1673ffffffffffffffffffffffffffffffffffffffff16815260200191505060405180910390f35b6101d36004803603604081101561019d57600080fd5b81019080803573ffffffffffffffffffffffffffffffffffffffff16906020019092919080359060200190929190505050610b04565b005b3480156101e157600080fd5b506101ea610d5f565b604051808260066000925b8184101561023b5782846020020151600460200280838360005b8381101561022a57808201518184015260208101905061020f565b5050505090500192600101926101f5565b9250505091505060405180910390f35b34801561025757600080fd5b506103196004803603608081101561026e57600080fd5b81019080803573ffffffffffffffffffffffffffffffffffffffff169060200190929190803573ffffffffffffffffffffffffffffffffffffffff16906020019092919080359060200190929190803590602001906401000000008111156102d557600080fd5b8201836020820111156102e757600080fd5b8035906020019184600183028401116401000000008311171561030957600080fd5b9091929391929390505050610e05565b60405180827bffffffffffffffffffffffffffffffffffffffffffffffffffffffff19167bffffffffffffffffffffffffffffffffffffffffffffffffffffffff1916815260200191505060405180910390f35b34801561037957600080fd5b50610382610e6e565b6040518082815260200191505060405180910390f35b610404600480360360608110156103ae57600080fd5b81019080803573ffffffffffffffffffffffffffffffffffffffff169060200190929190803573ffffffffffffffffffffffffffffffffffffffff16906020019092919080359060200190929190505050610e78565b005b6104726004803603606081101561041c57600080fd5b81019080803573ffffffffffffffffffffffffffffffffffffffff169060200190929190803573ffffffffffffffffffffffffffffffffffffffff16906020019092919080359060200190929190505050611121565b005b34801561048057600080fd5b506104cd6004803603604081101561049757600080fd5b81019080803573ffffffffffffffffffffffffffffffffffffffff16906020019092919080359060200190929190505050611229565b604051808881526020018781526020018661ffff1661ffff1681526020018561ffff1661ffff1681526020018461ffff1661ffff1681526020018360ff1660ff1681526020018273ffffffffffffffffffffffffffffffffffffffff1673ffffffffffffffffffffffffffffffffffffffff16815260200197505050505050505060405180910390f35b34801561056357600080fd5b506105906004803603602081101561057a57600080fd5b810190808035906020019092919050505061131a565b604051808273ffffffffffffffffffffffffffffffffffffffff1673ffffffffffffffffffffffffffffffffffffffff16815260200191505060405180910390f35b3480156105de57600080fd5b50610621600480360360208110156105f557600080fd5b81019080803573ffffffffffffffffffffffffffffffffffffffff169060200190929190505050611357565b6040518082815260200191505060405180910390f35b34801561064357600080fd5b506106c7600480360360c081101561065a57600080fd5b8101908080359060200190929190803561ffff169060200190929190803561ffff169060200190929190803561ffff169060200190929190803560ff169060200190929190803573ffffffffffffffffffffffffffffffffffffffff1690602001909291905050506113a6565b6040518082815260200191505060405180910390f35b3480156106e957600080fd5b506106f2611710565b6040518082815260200191505060405180910390f35b34801561071457600080fd5b506107636004803603604081101561072b57600080fd5b81019080803573ffffffffffffffffffffffffffffffffffffffff169060200190929190803515159060200190929190505050611716565b005b6108266004803603608081101561077b57600080fd5b81019080803573ffffffffffffffffffffffffffffffffffffffff169060200190929190803573ffffffffffffffffffffffffffffffffffffffff16906020019092919080359060200190929190803590602001906401000000008111156107e257600080fd5b8201836020820111156107f457600080fd5b8035906020019184600183028401116401000000008311171561081657600080fd5b9091929391929390505050611817565b005b34801561083457600080fd5b506108956004803603608081101561084b57600080fd5b81019080803573ffffffffffffffffffffffffffffffffffffffff169060200190929190803590602001909291908035906020019092919080359060200190929190505050611ab9565b6040518082815260200191505060405180910390f35b3480156108b757600080fd5b50610904600480360360408110156108ce57600080fd5b81019080803573ffffffffffffffffffffffffffffffffffffffff16906020019092919080359060200190929190505050612291565b604051808881526020018781526020018661ffff1661ffff1681526020018561ffff1661ffff1681526020018461ffff1661ffff1681526020018360ff1660ff1681526020018273ffffffffffffffffffffffffffffffffffffffff1673ffffffffffffffffffffffffffffffffffffffff16815260200197505050505050505060405180910390f35b34801561099a57600080fd5b506109a36123f3565b6040518082815260200191505060405180910390f35b3480156109c557600080fd5b50610a28600480360360408110156109dc57600080fd5b81019080803573ffffffffffffffffffffffffffffffffffffffff169060200190929190803573ffffffffffffffffffffffffffffffffffffffff1690602001909291905050506123f9565b604051808215151515815260200191505060405180910390f35b348015610a4e57600080fd5b50610a7b60048036036020811015610a6557600080fd5b810190808035906020019092919050505061248d565b604051808273ffffffffffffffffffffffffffffffffffffffff1673ffffffffffffffffffffffffffffffffffffffff16815260200191505060405180910390f35b6000610ac8826124c0565b50600a600083815260200190815260200160002060009054906101000a900473ffffffffffffffffffffffffffffffffffffffff169050919050565b610b0d816124c0565b5060006009600083815260200190815260200160002060009054906101000a900473ffffffffffffffffffffffffffffffffffffffff1690503373ffffffffffffffffffffffffffffffffffffffff168173ffffffffffffffffffffffffffffffffffffffff161480610c285750600b6000600c60009054906101000a900473ffffffffffffffffffffffffffffffffffffffff1673ffffffffffffffffffffffffffffffffffffffff1673ffffffffffffffffffffffffffffffffffffffff16815260200190815260200160002060003373ffffffffffffffffffffffffffffffffffffffff1673ffffffffffffffffffffffffffffffffffffffff16815260200190815260200160002060009054906101000a900460ff165b1515610cc2576040517f08c379a00000000000000000000000000000000000000000000000000000000081526004018080602001828103825260258152602001807f4d757374206265206f776e6572206f72206f70657261746f72206f662074686581526020017f206974656d00000000000000000000000000000000000000000000000000000081525060400191505060405180910390fd5b610ccc8383612623565b818373ffffffffffffffffffffffffffffffffffffffff166009600085815260200190815260200160002060009054906101000a900473ffffffffffffffffffffffffffffffffffffffff1673ffffffffffffffffffffffffffffffffffffffff167f8c5be1e5ebec7d5bd14f71427d1e84f3dd0314c0f7b2291e5b200ac8c7c3b92560405160405180910390a4505050565b610d67613a99565b6000600680602002604051908101604052809291906000905b82821015610dfc57838201600480602002604051908101604052809291908260048015610de8576020028201916000905b82829054906101000a900460ff1660ff1681526020019060010190602082600001049283019260010382029150808411610db15790505b505050505081526020019060010190610d80565b50505050905090565b600060405180807f6f6e455243373231526563656976656428616464726573732c6164647265737381526020017f2c75696e743235362c6279746573290000000000000000000000000000000000815250602f0190506040518091039020905095945050505050565b6000600754905090565b60006009600083815260200190815260200160002060009054906101000a900473ffffffffffffffffffffffffffffffffffffffff169050610eb9826124c0565b50610ec43383612679565b80610efa57503373ffffffffffffffffffffffffffffffffffffffff168173ffffffffffffffffffffffffffffffffffffffff16145b80610fad5750600b6000600c60009054906101000a900473ffffffffffffffffffffffffffffffffffffffff1673ffffffffffffffffffffffffffffffffffffffff1673ffffffffffffffffffffffffffffffffffffffff16815260200190815260200160002060003373ffffffffffffffffffffffffffffffffffffffff1673ffffffffffffffffffffffffffffffffffffffff16815260200190815260200160002060009054906101000a900460ff165b1515611047576040517f08c379a00000000000000000000000000000000000000000000000000000000081526004018080602001828103825260268152602001807f446f6573206e6f74206861766520617574686f72697479206f7665722074686181526020017f74206974656d000000000000000000000000000000000000000000000000000081525060400191505060405180910390fd5b8373ffffffffffffffffffffffffffffffffffffffff168173ffffffffffffffffffffffffffffffffffffffff16141515611110576040517f08c379a00000000000000000000000000000000000000000000000000000000081526004018080602001828103825260288152602001807f546865206974656d20646f6573206e6f742062656c6f6e6720746f207468617481526020017f206163636f756e7400000000000000000000000000000000000000000000000081525060400191505060405180910390fd5b61111b8484846126e5565b50505050565b3073ffffffffffffffffffffffffffffffffffffffff1663b88d4fde8484846040518463ffffffff167c0100000000000000000000000000000000000000000000000000000000028152600401808473ffffffffffffffffffffffffffffffffffffffff1673ffffffffffffffffffffffffffffffffffffffff1681526020018373ffffffffffffffffffffffffffffffffffffffff1673ffffffffffffffffffffffffffffffffffffffff16815260200182815260200180602001828103825260008152602001602001945050505050600060405180830381600087803b15801561120c57600080fd5b505af1158015611220573d6000803e3d6000fd5b50505050505050565b600080600080600080600080600860008b73ffffffffffffffffffffffffffffffffffffffff1673ffffffffffffffffffffffffffffffffffffffff1681526020019081526020016000209050888160000180549050101515156112f5576040517f08c379a00000000000000000000000000000000000000000000000000000000081526004018080602001828103825260208152602001807f4f776e657220646f6e7420686176652074686174206d616e79206974656d732e81525060200191505060405180910390fd5b6112ff8a8a612f0f565b97509750975097509750975097505092959891949750929550565b60006009600083815260200190815260200160002060009054906101000a900473ffffffffffffffffffffffffffffffffffffffff169050919050565b6000600860008373ffffffffffffffffffffffffffffffffffffffff1673ffffffffffffffffffffffffffffffffffffffff168152602001908152602001600020600001805490509050919050565b60006006600081548092919060010191905055506113c2613ac8565b60a06040519081016040528060065481526020018981526020018861ffff16815260200160408051908101604052808961ffff1661ffff1681526020018861ffff1661ffff1681525081526020018560ff1681525090506001600860008573ffffffffffffffffffffffffffffffffffffffff1673ffffffffffffffffffffffffffffffffffffffff1681526020019081526020016000206000018290806001815401808255809150509060018203906000526020600020906005020160009091929091909150600082015181600001556020820151816001015560408201518160020160006101000a81548161ffff021916908361ffff1602179055506060820151816003019060026114d7929190613b05565b5060808201518160040160006101000a81548160ff021916908360ff160217905550505003600860008573ffffffffffffffffffffffffffffffffffffffff1673ffffffffffffffffffffffffffffffffffffffff16815260200190815260200160002060010160006006548152602001908152602001600020819055508260096000600654815260200190815260200160002060006101000a81548173ffffffffffffffffffffffffffffffffffffffff021916908373ffffffffffffffffffffffffffffffffffffffff1602179055506007600081548092919060010191905055507f8c7f49bc6bb258a4957b508717a1f0f0b1015c972c8adf7c566f1587f9ec7096836006548a8a60408051908101604052808c61ffff1661ffff1681526020018b61ffff1661ffff1681525089604051808773ffffffffffffffffffffffffffffffffffffffff1673ffffffffffffffffffffffffffffffffffffffff1681526020018681526020018581526020018461ffff1661ffff16815260200183600260200280838360005b8381101561167f578082015181840152602081019050611664565b505050509050018260ff1660ff168152602001965050505050505060405180910390a16006548373ffffffffffffffffffffffffffffffffffffffff16600073ffffffffffffffffffffffffffffffffffffffff167fddf252ad1be2c89b69c2b068fc378daa952ba7f163c4a11628f55a4df523b3ef60405160405180910390a46006549150509695505050505050565b60075481565b80600b60003373ffffffffffffffffffffffffffffffffffffffff1673ffffffffffffffffffffffffffffffffffffffff16815260200190815260200160002060008473ffffffffffffffffffffffffffffffffffffffff1673ffffffffffffffffffffffffffffffffffffffff16815260200190815260200160002060006101000a81548160ff0219169083151502179055508173ffffffffffffffffffffffffffffffffffffffff163373ffffffffffffffffffffffffffffffffffffffff167f17307eab39ab6107e8899845ad3d59bd9653f200f220920489ca2b5937696c3183604051808215151515815260200191505060405180910390a35050565b611822858585610e78565b61182b8461301d565b15611ab257600084905060405180807f6f6e455243373231526563656976656428616464726573732c6164647265737381526020017f2c75696e743235362c6279746573290000000000000000000000000000000000815250602f01905060405180910390207bffffffffffffffffffffffffffffffffffffffffffffffffffffffff19168173ffffffffffffffffffffffffffffffffffffffff1663150b7a0233898888886040518663ffffffff167c0100000000000000000000000000000000000000000000000000000000028152600401808673ffffffffffffffffffffffffffffffffffffffff1673ffffffffffffffffffffffffffffffffffffffff1681526020018573ffffffffffffffffffffffffffffffffffffffff1673ffffffffffffffffffffffffffffffffffffffff168152602001848152602001806020018281038252848482818152602001925080828437600081840152601f19601f8201169050808301925050509650505050505050602060405180830381600087803b1580156119bb57600080fd5b505af11580156119cf573d6000803e3d6000fd5b505050506040513d60208110156119e557600080fd5b81019080805190602001909291905050507bffffffffffffffffffffffffffffffffffffffffffffffffffffffff1916141515611ab0576040517f08c379a000000000000000000000000000000000000000000000000000000000815260040180806020018281038252602b8152602001807f436f6e74726163747320646f6e277420696d706c656d656e742074686520736181526020017f6d65207374616e6461726400000000000000000000000000000000000000000081525060400191505060405180910390fd5b505b5050505050565b600080600860008773ffffffffffffffffffffffffffffffffffffffff1673ffffffffffffffffffffffffffffffffffffffff16815260200190815260200160002090506009600085815260200190815260200160002060009054906101000a900473ffffffffffffffffffffffffffffffffffffffff1673ffffffffffffffffffffffffffffffffffffffff166009600087815260200190815260200160002060009054906101000a900473ffffffffffffffffffffffffffffffffffffffff1673ffffffffffffffffffffffffffffffffffffffff16148015611c2f57506009600084815260200190815260200160002060009054906101000a900473ffffffffffffffffffffffffffffffffffffffff1673ffffffffffffffffffffffffffffffffffffffff166009600087815260200190815260200160002060009054906101000a900473ffffffffffffffffffffffffffffffffffffffff1673ffffffffffffffffffffffffffffffffffffffff16145b8015611c9957508573ffffffffffffffffffffffffffffffffffffffff166009600087815260200190815260200160002060009054906101000a900473ffffffffffffffffffffffffffffffffffffffff1673ffffffffffffffffffffffffffffffffffffffff16145b1515611d33576040517f08c379a00000000000000000000000000000000000000000000000000000000081526004018080602001828103825260288152602001807f416c6c206974656d7320617265206e6f74206f776e656420627920746861742081526020017f616464726573732e00000000000000000000000000000000000000000000000081525060400191505060405180910390fd5b8573ffffffffffffffffffffffffffffffffffffffff163373ffffffffffffffffffffffffffffffffffffffff161480611df35750600b60008773ffffffffffffffffffffffffffffffffffffffff1673ffffffffffffffffffffffffffffffffffffffff16815260200190815260200160002060003373ffffffffffffffffffffffffffffffffffffffff1673ffffffffffffffffffffffffffffffffffffffff16815260200190815260200160002060009054906101000a900460ff165b1515611e8d576040517f08c379a00000000000000000000000000000000000000000000000000000000081526004018080602001828103825260278152602001807f596f7520646f6e7420686176652074686520617574686f7269747920746f206481526020017f6f20746861742e0000000000000000000000000000000000000000000000000081525060400191505060405180910390fd5b600a600085815260200190815260200160002060009054906101000a900473ffffffffffffffffffffffffffffffffffffffff1673ffffffffffffffffffffffffffffffffffffffff16600a600087815260200190815260200160002060009054906101000a900473ffffffffffffffffffffffffffffffffffffffff1673ffffffffffffffffffffffffffffffffffffffff16148015611fbf5750600a600084815260200190815260200160002060009054906101000a900473ffffffffffffffffffffffffffffffffffffffff1673ffffffffffffffffffffffffffffffffffffffff16600a600087815260200190815260200160002060009054906101000a900473ffffffffffffffffffffffffffffffffffffffff1673ffffffffffffffffffffffffffffffffffffffff16145b801561202a5750600073ffffffffffffffffffffffffffffffffffffffff16600a600087815260200190815260200160002060009054906101000a900473ffffffffffffffffffffffffffffffffffffffff1673ffffffffffffffffffffffffffffffffffffffff16145b151561209e576040517f08c379a00000000000000000000000000000000000000000000000000000000081526004018080602001828103825260208152602001807f4974656d732063616e7420626520617070726f76656420666f7220747261646581525060200191505060405180910390fd5b600081600001826001016000888152602001908152602001600020548154811015156120c657fe5b906000526020600020906005020160040160009054906101000a900460ff169050816000018260010160008781526020019081526020016000205481548110151561210d57fe5b906000526020600020906005020160040160009054906101000a900460ff1660ff168160ff161480156121895750816000018260010160008681526020019081526020016000205481548110151561216157fe5b906000526020600020906005020160040160009054906101000a900460ff1660ff168160ff16145b15156121fd576040517f08c379a00000000000000000000000000000000000000000000000000000000081526004018080602001828103825260208152602001807f546865206974656d73206d757374206265206f662073616d652072617269747981525060200191505060405180910390fd5b60048160ff1614151515612279576040517f08c379a000000000000000000000000000000000000000000000000000000000815260040180806020018281038252601f8152602001807f546865206974656d73206d757374206e6f74206265206c6567656e646172790081525060200191505060405180910390fd5b61228587878787613030565b92505050949350505050565b60008060008060008060006122a5886124c0565b508873ffffffffffffffffffffffffffffffffffffffff16600960008a815260200190815260200160002060009054906101000a900473ffffffffffffffffffffffffffffffffffffffff1673ffffffffffffffffffffffffffffffffffffffff1614151561237c576040517f08c379a000000000000000000000000000000000000000000000000000000000815260040180806020018281038252601f8152602001807f5468617473206e6f7420746865206f776e6572206f6620746865206974656d0081525060200191505060405180910390fd5b6123d989600860008c73ffffffffffffffffffffffffffffffffffffffff1673ffffffffffffffffffffffffffffffffffffffff16815260200190815260200160002060010160008b815260200190815260200160002054612f0f565b965096509650965096509650965092959891949750929550565b60065481565b6000600b60008473ffffffffffffffffffffffffffffffffffffffff1673ffffffffffffffffffffffffffffffffffffffff16815260200190815260200160002060008373ffffffffffffffffffffffffffffffffffffffff1673ffffffffffffffffffffffffffffffffffffffff16815260200190815260200160002060009054906101000a900460ff16905092915050565b600a6020528060005260406000206000915054906101000a900473ffffffffffffffffffffffffffffffffffffffff1681565b6000808211806124d257506006548211155b1515612546576040517f08c379a000000000000000000000000000000000000000000000000000000000815260040180806020018281038252600f8152602001807f4964206973206e6f742076616c6964000000000000000000000000000000000081525060200191505060405180910390fd5b600073ffffffffffffffffffffffffffffffffffffffff166009600084815260200190815260200160002060009054906101000a900473ffffffffffffffffffffffffffffffffffffffff1673ffffffffffffffffffffffffffffffffffffffff161415151561261e576040517f08c379a000000000000000000000000000000000000000000000000000000000815260040180806020018281038252601f8152602001807f4974656d20697320286e6f206c6f6e6765722920696e207468652067616d650081525060200191505060405180910390fd5b919050565b81600a600083815260200190815260200160002060006101000a81548173ffffffffffffffffffffffffffffffffffffffff021916908373ffffffffffffffffffffffffffffffffffffffff1602179055505050565b60008273ffffffffffffffffffffffffffffffffffffffff16600a600084815260200190815260200160002060009054906101000a900473ffffffffffffffffffffffffffffffffffffffff1673ffffffffffffffffffffffffffffffffffffffff1614905092915050565b6126ed613ac8565b600860008573ffffffffffffffffffffffffffffffffffffffff1673ffffffffffffffffffffffffffffffffffffffff168152602001908152602001600020600001600860008673ffffffffffffffffffffffffffffffffffffffff1673ffffffffffffffffffffffffffffffffffffffff16815260200190815260200160002060010160008481526020019081526020016000205481548110151561278f57fe5b906000526020600020906005020160a0604051908101604052908160008201548152602001600182015481526020016002820160009054906101000a900461ffff1661ffff1661ffff16815260200160038201600280602002604051908101604052809291908260028015612841576020028201916000905b82829054906101000a900461ffff1661ffff16815260200190600201906020826001010492830192600103820291508084116128085790505b505050505081526020016004820160009054906101000a900460ff1660ff1660ff168152505090506000600860008673ffffffffffffffffffffffffffffffffffffffff1673ffffffffffffffffffffffffffffffffffffffff1681526020019081526020016000206000018054905011151561294c576040517f08c379a00000000000000000000000000000000000000000000000000000000081526004018080602001828103825260288152602001807f4163636f756e74206d7573742068617665206974656d7320746f207472616e7381526020017f6665722066726f6d00000000000000000000000000000000000000000000000081525060400191505060405180910390fd5b6001600860008673ffffffffffffffffffffffffffffffffffffffff1673ffffffffffffffffffffffffffffffffffffffff168152602001908152602001600020600001805490501115612c2857600860008573ffffffffffffffffffffffffffffffffffffffff1673ffffffffffffffffffffffffffffffffffffffff1681526020019081526020016000206000016001600860008773ffffffffffffffffffffffffffffffffffffffff1673ffffffffffffffffffffffffffffffffffffffff1681526020019081526020016000206000018054905003815481101515612a3157fe5b9060005260206000209060050201600860008673ffffffffffffffffffffffffffffffffffffffff1673ffffffffffffffffffffffffffffffffffffffff168152602001908152602001600020600001600860008773ffffffffffffffffffffffffffffffffffffffff1673ffffffffffffffffffffffffffffffffffffffff168152602001908152602001600020600101600085815260200190815260200160002054815481101515612ae157fe5b906000526020600020906005020160008201548160000155600182015481600101556002820160009054906101000a900461ffff168160020160006101000a81548161ffff021916908361ffff1602179055506003820181600301906002612b4a929190613ba2565b506004820160009054906101000a900460ff168160040160006101000a81548160ff021916908360ff160217905550905050600860008573ffffffffffffffffffffffffffffffffffffffff1673ffffffffffffffffffffffffffffffffffffffff168152602001908152602001600020600101600083815260200190815260200160002054600860008673ffffffffffffffffffffffffffffffffffffffff1673ffffffffffffffffffffffffffffffffffffffff1681526020019081526020016000206001016000848152602001908152602001600020819055505b600860008573ffffffffffffffffffffffffffffffffffffffff1673ffffffffffffffffffffffffffffffffffffffff168152602001908152602001600020600001805480919060019003612c7d9190613bed565b506001600860008573ffffffffffffffffffffffffffffffffffffffff1673ffffffffffffffffffffffffffffffffffffffff1681526020019081526020016000206000018290806001815401808255809150509060018203906000526020600020906005020160009091929091909150600082015181600001556020820151816001015560408201518160020160006101000a81548161ffff021916908361ffff160217905550606082015181600301906002612d3c929190613b05565b5060808201518160040160006101000a81548160ff021916908360ff160217905550505003600860008573ffffffffffffffffffffffffffffffffffffffff1673ffffffffffffffffffffffffffffffffffffffff16815260200190815260200160002060010160006006548152602001908152602001600020819055508260096000600654815260200190815260200160002060006101000a81548173ffffffffffffffffffffffffffffffffffffffff021916908373ffffffffffffffffffffffffffffffffffffffff160217905550600073ffffffffffffffffffffffffffffffffffffffff16600a600084815260200190815260200160002060009054906101000a900473ffffffffffffffffffffffffffffffffffffffff1673ffffffffffffffffffffffffffffffffffffffff16141515612eae57600a600083815260200190815260200160002060006101000a81549073ffffffffffffffffffffffffffffffffffffffff02191690555b818373ffffffffffffffffffffffffffffffffffffffff168573ffffffffffffffffffffffffffffffffffffffff167fddf252ad1be2c89b69c2b068fc378daa952ba7f163c4a11628f55a4df523b3ef60405160405180910390a450505050565b600080600080600080600080600860008b73ffffffffffffffffffffffffffffffffffffffff1673ffffffffffffffffffffffffffffffffffffffff16815260200190815260200160002060000189815481101515612f6a57fe5b9060005260206000209060050201905080600001549750806001015496508060020160009054906101000a900461ffff169550806003016000600281101515612faf57fe5b601091828204019190066002029054906101000a900461ffff169450806003016001600281101515612fdd57fe5b601091828204019190066002029054906101000a900461ffff1693508060040160009054906101000a900460ff1692508991505092959891949750929550565b600080823b905060008111915050919050565b600080600860008773ffffffffffffffffffffffffffffffffffffffff1673ffffffffffffffffffffffffffffffffffffffff168152602001908152602001600020600001600860008873ffffffffffffffffffffffffffffffffffffffff1673ffffffffffffffffffffffffffffffffffffffff1681526020019081526020016000206001016000878152602001908152602001600020548154811015156130d557fe5b906000526020600020906005020160040160009054906101000a900460ff1660ff16905060004233600654604051602001808481526020018373ffffffffffffffffffffffffffffffffffffffff1673ffffffffffffffffffffffffffffffffffffffff166c01000000000000000000000000028152601401828152602001935050505060405160208183030381529060405280519060200120600190049050600060038281151561318357fe5b0690506000811415613197578690506131ad565b60018114156131a8578590506131ac565b8490505b5b6131b5613ac8565b600860008a73ffffffffffffffffffffffffffffffffffffffff1673ffffffffffffffffffffffffffffffffffffffff168152602001908152602001600020600001600860008b73ffffffffffffffffffffffffffffffffffffffff1673ffffffffffffffffffffffffffffffffffffffff16815260200190815260200160002060010160008481526020019081526020016000205481548110151561325757fe5b906000526020600020906005020160a0604051908101604052908160008201548152602001600182015481526020016002820160009054906101000a900461ffff1661ffff1661ffff16815260200160038201600280602002604051908101604052809291908260028015613309576020028201916000905b82829054906101000a900461ffff1661ffff16815260200190600201906020826001010492830192600103820291508084116132d05790505b505050505081526020016004820160009054906101000a900460ff1660ff1660ff1681525050905061333b89896134a4565b61334589886134a4565b61334f89876134a4565b6000809050600185141561336657600190506133b8565b6002851480156133825750601360648581151561337f57fe5b06115b1561339057600190506133b7565b6003851480156133ac575060316064858115156133a957fe5b06115b156133b657600190505b5b5b801561348e5761348782602001518360400151600060018660200151036006811015156133e157fe5b0160006004811015156133f057fe5b602091828204019190069054906101000a900460ff1660ff168560600151600060028110151561341c57fe5b6020020151016000600187602001510360068110151561343857fe5b01600160048110151561344757fe5b602091828204019190069054906101000a900460ff1660ff168660600151600160028110151561347357fe5b60200201510160018760800151018f6113a6565b9550613493565b600095505b600095505050505050949350505050565b8173ffffffffffffffffffffffffffffffffffffffff166009600083815260200190815260200160002060009054906101000a900473ffffffffffffffffffffffffffffffffffffffff1673ffffffffffffffffffffffffffffffffffffffff1614151561357a576040517f08c379a000000000000000000000000000000000000000000000000000000000815260040180806020018281038252601b8152602001807f54686174207573657220646f6e74206f776e20746865206974656d000000000081525060200191505060405180910390fd5b6000600860008473ffffffffffffffffffffffffffffffffffffffff1673ffffffffffffffffffffffffffffffffffffffff1681526020019081526020016000206000018054905011151561365d576040517f08c379a00000000000000000000000000000000000000000000000000000000081526004018080602001828103825260268152602001807f4163636f756e74206d7573742068617665206974656d7320746f2072656d6f7681526020017f652066726f6e000000000000000000000000000000000000000000000000000081525060400191505060405180910390fd5b6001600860008473ffffffffffffffffffffffffffffffffffffffff1673ffffffffffffffffffffffffffffffffffffffff168152602001908152602001600020600001805490501115613943576000600860008473ffffffffffffffffffffffffffffffffffffffff1673ffffffffffffffffffffffffffffffffffffffff1681526020019081526020016000206000016001600860008673ffffffffffffffffffffffffffffffffffffffff1673ffffffffffffffffffffffffffffffffffffffff168152602001908152602001600020600001805490500381548110151561374457fe5b9060005260206000209060050201905080600860008573ffffffffffffffffffffffffffffffffffffffff1673ffffffffffffffffffffffffffffffffffffffff168152602001908152602001600020600001600860008673ffffffffffffffffffffffffffffffffffffffff1673ffffffffffffffffffffffffffffffffffffffff1681526020019081526020016000206001016000858152602001908152602001600020548154811015156137f757fe5b906000526020600020906005020160008201548160000155600182015481600101556002820160009054906101000a900461ffff168160020160006101000a81548161ffff021916908361ffff1602179055506003820181600301906002613860929190613ba2565b506004820160009054906101000a900460ff168160040160006101000a81548160ff021916908360ff160217905550905050600860008473ffffffffffffffffffffffffffffffffffffffff1673ffffffffffffffffffffffffffffffffffffffff168152602001908152602001600020600101600083815260200190815260200160002054600860008573ffffffffffffffffffffffffffffffffffffffff1673ffffffffffffffffffffffffffffffffffffffff16815260200190815260200160002060010160008360000154815260200190815260200160002081905550505b600860008373ffffffffffffffffffffffffffffffffffffffff1673ffffffffffffffffffffffffffffffffffffffff1681526020019081526020016000206000018054809190600190036139989190613bed565b50600860008373ffffffffffffffffffffffffffffffffffffffff1673ffffffffffffffffffffffffffffffffffffffff1681526020019081526020016000206001016000828152602001908152602001600020600090556009600082815260200190815260200160002060006101000a81549073ffffffffffffffffffffffffffffffffffffffff02191690556007600081548092919060019003919050555080600073ffffffffffffffffffffffffffffffffffffffff168373ffffffffffffffffffffffffffffffffffffffff167fddf252ad1be2c89b69c2b068fc378daa952ba7f163c4a11628f55a4df523b3ef60405160405180910390a45050565b610300604051908101604052806006905b613ab2613c1f565b815260200190600190039081613aaa5790505090565b60c0604051908101604052806000815260200160008152602001600061ffff168152602001613af5613c42565b8152602001600060ff1681525090565b826002600f01601090048101928215613b915791602002820160005b83821115613b6157835183826101000a81548161ffff021916908361ffff1602179055509260200192600201602081600101049283019260010302613b21565b8015613b8f5782816101000a81549061ffff0219169055600201602081600101049283019260010302613b61565b505b509050613b9e9190613c64565b5090565b826002600f01601090048101928215613bdc5791600f016010900482015b82811115613bdb578254825591600101919060010190613bc0565b5b509050613be99190613c64565b5090565b815481835581811115613c1a57600502816005028360005260206000209182019101613c199190613c95565b5b505050565b608060405190810160405280600490602082028038833980820191505090505090565b6040805190810160405280600290602082028038833980820191505090505090565b613c9291905b80821115613c8e57600081816101000a81549061ffff021916905550600101613c6a565b5090565b90565b613cfa91905b80821115613cf65760008082016000905560018201600090556002820160006101000a81549061ffff0219169055600382016000613cd99190613cfd565b6004820160006101000a81549060ff021916905550600501613c9b565b5090565b90565b506000905556fea165627a7a72305820266247e5eb44ecb4dc7bd9465bf59b109843a003751245c5111ae5b7cb2178700029",
  "source": "pragma solidity 0.5.0;\nimport \"./ERC.sol\";\nimport \"./ItemContract.sol\";\n\n\ncontract ERC165Implementation is ERC165 {\n    constructor () public {\n        //store that contract implements ERC165\n        supportedInterfaces[bytes4(keccak256(\"supportsInterface(bytes4)\"))] = true;\n        \n        //Store that te contract implements ERC721\n        supportedInterfaces[\n        bytes4(keccak256(\"balanceOf(address)\")) ^\n        bytes4(keccak256(\"ownerOf(uint256)\")) ^\n        bytes4(keccak256(\"safeTransferFrom(address,address,uint256,bytes\")) ^\n        bytes4(keccak256(\"safeTransferFrom(address,address,uint256\")) ^\n        bytes4(keccak256(\"transferFrom(address,address,uint256\")) ^\n        bytes4(keccak256(\"approve(address,uint256\")) ^\n        bytes4(keccak256(\"setApprovalForAll(address,bool\")) ^\n        bytes4(keccak256(\"getApproved(uint256\")) ^\n        bytes4(keccak256(\"isApprovedForAll(address,address)\")) ^\n        bytes4(keccak256(\"totalSupply()\"))\n        ] = true;\n    }\n\n    //mapping to store what interfaces are supported\n    mapping (bytes4 => bool) internal supportedInterfaces;\n\n    /// @notice Query if a contract implements an interface.\n    /// @param interfaceID The interface identifier, as specified in ERC-165.\n    /// @dev Interface identification is specified in ERC-165. This function\n    ///  uses less than 30,000 gas.\n    /// @return `true` if the contract implements `interfaceID` and\n    ///  `interfaceID` is not 0xffffffff, `false` otherwise.\n    function supportsInterface(bytes4 interfaceID) external view returns (bool) {\n        return supportedInterfaces[interfaceID];\n    }\n}\n\n\n\n\n///@title ItemOwnership is the contract that implements all ERC721 standards.\n/// This means that the contract takes care of all that has to do with ownerships.\n///@author Hvard Pedersen, B6056952.\n///@dev This will implement and make use of\n/// functions, events, and storages defined in its parent-contracts.\ncontract ItemOwnership is ERC721, ItemContract, ERC721TokenReceiver {\n    address internal owner;\n    constructor () public {\n        owner = msg.sender;\n        createItem(4, 1, 50, 2, 2, 0x940819A549A6A5f5E55dAb8d4C4d0C6c045FfFAf);\n        createItem(4, 1, 50, 2, 2, 0x940819A549A6A5f5E55dAb8d4C4d0C6c045FfFAf);\n        createItem(4, 1, 50, 2, 2, 0x940819A549A6A5f5E55dAb8d4C4d0C6c045FfFAf);\n        createItem(4, 1, 50, 2, 2, 0x940819A549A6A5f5E55dAb8d4C4d0C6c045FfFAf);\n    }\n\n\n\n\n\n    /*** NAIVE METHODS ***/\n     \n    /// @notice Count all items assigned to an owner.\n    /// @param _account An address for whom to query the balance.\n    /// @return The number of items owned by `_owner`, possibly zero.\n    function balanceOf(address _account) external view returns (uint) {\n        return users[_account].items.length;\n    }\n    /// @notice Returns a map of map. This should be accessed as follows:\n    /// [type][value], where type is weapon type, and value is either\n    /// 0 (statIncrement for stat1), 1(statIncrement for stat2),\n    /// 2 (Lowest roll for stat1), 3(Lowest roll for stat2).\n    function getStatInformation() external view returns(uint8[4][6] memory) {\n        return statInformation;\n    }\n\n    /// @notice Count items tracked by this contract.\n    /// @return A count of valid items tracked by this contract, where each one of\n    ///  them has an assigned and queryable owner not equal to the zero address.\n    function totalSupply() external view returns (uint) {\n        return numberOfItems;\n    }\n\n    /// @notice Find the owner of an item.\n    /// @param _id The identifier for an item.\n    /// @return The address of the owner of the item.\n    function ownerOf(uint _id) external view returns (address) {\n        return ownerOfItem[_id];\n    }\n\n    ///@dev this might seem like a redundant function, as we also have approve. \n    ///However, this is a naive, internal call. The other approve function is external,\n    ///and checks all parameters. This is done to lower gasprice. \n    ///@notice does not trigger Approval event, as this will be done by the calling functions.\n    function _approve(address _to, uint _id) internal {\n        itemApprovals[_id] = _to;\n    }\n\n    ///@dev internal function to check if address is approved for an item.\n    function isApprovedFor(address _user, uint _id) internal view returns (bool) {\n        return itemApprovals[_id] == _user;\n    }\n\n    function itemIsInGame(uint _id) internal view returns (bool) {\n        require(_id > 0 || _id <= ids, \"Id is not valid\");\n        require(ownerOfItem[_id] != address(0), \"Item is (no longer) in the game\");\n    }\n\n    //From AddressUtils.sol library.\n    function isContract(address addr) internal view returns (bool) {\n        uint256 size;\n        assembly { size := extcodesize(addr) }\n        return size > 0;\n    }\n    /// @notice Handle the receipt of an NFT\n    /// @return `bytes4(keccak256(\"onERC721Received(address,address,uint256,bytes)\"))`\n    function onERC721Received(\n        address, \n        address, \n        uint256, \n        bytes calldata\n    )external returns(bytes4) {\n        return bytes4(keccak256(\"onERC721Received(address,address,uint256,bytes)\"));\n    }    \n\n    /*** SKEPTICAL METHODS ***/\n\n    /// @notice Change or reaffirm the approved address for an item.\n    /// @param _to The new approved item controller.\n    /// @param _id The item to approve.\n    function approve(address _to, uint _id) external payable {       \n        //Make sure its a valid id\n        itemIsInGame(_id);\n        //check if caller has right to approve this item to an account\n        address itemOwner = ownerOfItem[_id];\n        require(\n            itemOwner == msg.sender ||\n            approvedForAll[owner][msg.sender], \n            \"Must be owner or operator of the item\"\n        );\n        \n        //approve account\n        _approve(_to, _id);\n       \n        //emit the event\n        emit Approval(ownerOfItem[_id], _to, _id);\n    }\n\n    /// @notice Get the approved address for a single item.\n    /// @param _id The item to find the approved address for.\n    /// @return The approved address for this item, or the zero address if there is none.\n    function getApproved(uint256 _id) external view returns (address) {\n        //Make sure its a valid id\n        itemIsInGame(_id);\n        return itemApprovals[_id];\n    }\n\n    /// @notice Transfer ownership of an item -- THE CALLER IS RESPONSIBLE\n    ///  TO CONFIRM THAT `_to` IS CAPABLE OF RECEIVING itemS OR ELSE\n    ///  THEY MAY BE PERMANENTLY LOST.\n    /// @param _from The current owner of the item.\n    /// @param _to The new owner.\n    /// @param _id The item to transfer.\n    function transferFrom (\n        address _from, \n        address _to,\n        uint256 _id\n    ) public payable {\n        address itemOwner = ownerOfItem[_id];        \n        //Make sure its a valid id\n        itemIsInGame(_id);\n\n        //Check if sender is authorized to transfer item\n        require(\n            isApprovedFor(msg.sender, _id) || \n            itemOwner == msg.sender ||\n            approvedForAll[owner][msg.sender],\n            \"Does not have authority over that item\"\n        );\n        //check if owner address matches owner parameter\n        require(itemOwner == _from, \"The item does not belong to that account\");\n        \n        //call transfer function\n        transferOwnership(_from, _to, _id);\n    }\n    \n    /// @notice Transfers the ownership of an item from one address to another address.\n    /// @param _from The current owner of the item.\n    /// @param _to The new owner.\n    /// @param _id The item to transfer.\n    /// @param data Additional data with no specified format, sent in call to `_to`.\n    function safeTransferFrom(address _from, address _to, uint256 _id, bytes calldata data) external payable {\n        \n        //call transfer function to do checks and transfer item\n        transferFrom(_from, _to, _id);\n\n        if (isContract(_to)) {\n            ERC721TokenReceiver receiver = ERC721TokenReceiver(_to);\n            require(\n                receiver.onERC721Received(msg.sender, _from, _id, data) ==\n                bytes4(keccak256(\"onERC721Received(address,address,uint256,bytes)\")),\n                \"Contracts don't implement the same standard\"\n            );\n        }\n    }\n\n    /// @notice Transfers the ownership of an item from one address to another address.\n    /// @param _from The current owner of the item.\n    /// @param _to The new owner.\n    /// @param _id The item to transfer.\n    function safeTransferFrom(address _from, address _to, uint256 _id) external payable {\n        this.safeTransferFrom(_from, _to, _id, \"\");\n    }\n\n    /// @notice Query if an address is an authorized operator for another address.\n    /// @param _owner The address that owns the items.\n    /// @param _operator The address that acts on behalf of the owner.\n    /// @return True if `_operator` is an approved operator for `_owner`, false otherwise.\n    function isApprovedForAll(address _owner, address _operator) external view returns (bool) {\n        return approvedForAll[_owner][_operator];\n    }\n    \n    /// @notice Enable or disable approval for a third party (\"operator\") to manage\n    ///  all of `msg.sender`'s assets.\n    /// @param _operator Address to add to the set of authorized operators.\n    /// @param _approved True if the operator is approved, false to revoke approval.\n    function setApprovalForAll(address _operator, bool _approved) external {\n        approvedForAll[msg.sender][_operator] = _approved;\n        emit ApprovalForAll(msg.sender, _operator, _approved);\n    }\n\n    ///@notice This function can be used to iterate through all items of a user,\n    ///in combination with balanceOf(_owner). This is the only way to return all\n    ///items an address owns.\n    function getItemByIndex(address _owner, uint _index) external view \n    returns(\n        uint id,\n        uint equipmentType,\n        uint16 img,\n        uint16 stat1,\n        uint16 stat2,\n        uint8 rarity,\n        address ownerAddress\n    ) {\n        User storage user = users[_owner];\n        require(user.items.length >= _index, \"Owner dont have that many items.\");\n        return getItem(_owner, _index);\n\n    }\n    ///@notice This function can be used to iterate through all items of a user,\n    ///in combination with balanceOf(_owner). This is the only way to return all\n    ///items an address owns.\n    function getItemByID(address _owner, uint _id) external view \n    returns(\n        uint id,\n        uint equipmentType,\n        uint16 img,\n        uint16 stat1,\n        uint16 stat2,\n        uint8 rarity,\n        address ownerAddress\n    ) {\n        itemIsInGame(_id);\n        require(ownerOfItem[_id] == _owner, \"Thats not the owner of the item\");\n        return getItem(_owner, users[_owner].indexOfItem[_id]);\n\n    }\n    \n    function upgrade(address _owner, uint _id1, uint _id2, uint _id3) \n    external returns (uint) {\n        User storage user = users[_owner];\n        //check that items are all owned by the given address\n        require(\n            ownerOfItem[_id1] == ownerOfItem[_id2] &&\n            ownerOfItem[_id1] == ownerOfItem[_id3] &&\n            address(ownerOfItem[_id1]) == _owner,\n            \"All items are not owned by that address.\"\n        );\n        //Check that caller has authority over the account\n        require(\n            msg.sender == _owner ||\n            approvedForAll[_owner][msg.sender],\n            \"You dont have the authority to do that.\"\n        );\n        //Check that items are not approved for trade\n        require(\n            itemApprovals[_id1] == itemApprovals[_id2] &&\n            itemApprovals[_id1] == itemApprovals[_id3] &&\n             itemApprovals[_id1] == address(0),\n            \"Items cant be approved for trade\"\n        );\n        \n        //check that items are of same rarity\n        uint8 rarity = user.items[user.indexOfItem[_id1]].rarity;\n        require(\n            rarity == user.items[user.indexOfItem[_id2]].rarity &&\n            rarity == user.items[user.indexOfItem[_id3]].rarity,\n            \"The items must be of same rarity\"\n        );        \n        //check that items are not legendary\n        require(\n            rarity != 4,\n            \"The items must not be legendary\"\n        );\n        //call upgrade\n        return upgradeItems(_owner, _id1, _id2, _id3);\n    }\n\n}",
  "sourcePath": "F:/coding/test/contracts/ItemOwnership.sol",
  "compiler": {
    "name": "solc",
    "version": "0.5.0+commit.1d4f565a.Emscripten.clang"
  },
  "schemaVersion": "3.0.1",
  "updatedAt": "2019-03-20T00:22:13.342Z",
  "devdoc": {
    "author": "Hvard Pedersen, B6056952.",
    "details": "This will implement and make use of functions, events, and storages defined in its parent-contracts.",
    "methods": {
      "approve(address,uint256)": {
        "params": {
          "_id": "The item to approve.",
          "_to": "The new approved item controller."
        }
      },
      "balanceOf(address)": {
        "params": {
          "_account": "An address for whom to query the balance."
        },
        "return": "The number of items owned by `_owner`, possibly zero."
      },
      "createItem(uint256,uint16,uint16,uint16,uint8,address)": {
        "details": "Function to mint a new item, store it in the owners array and send out events.",
        "params": {
          "_img": "the int that stores both item type and logic for what image to use.",
          "_owner": "the address of the lucky owner of this newly minted item",
          "_rarity": "the rarity of the new item",
          "_stat1": "as stat2.",
          "_stat2": "these two are the stats of the items, where they should be assigned to stat[] as follows: [_stat1, _stat2]."
        },
        "return": "returns the id of the new item"
      },
      "getApproved(uint256)": {
        "params": {
          "_id": "The item to find the approved address for."
        },
        "return": "The approved address for this item, or the zero address if there is none."
      },
      "isApprovedForAll(address,address)": {
        "params": {
          "_operator": "The address that acts on behalf of the owner.",
          "_owner": "The address that owns the items."
        },
        "return": "True if `_operator` is an approved operator for `_owner`, false otherwise."
      },
      "onERC721Received(address,address,uint256,bytes)": {
        "return": "`bytes4(keccak256(\"onERC721Received(address,address,uint256,bytes)\"))`"
      },
      "ownerOf(uint256)": {
        "params": {
          "_id": "The identifier for an item."
        },
        "return": "The address of the owner of the item."
      },
      "safeTransferFrom(address,address,uint256)": {
        "params": {
          "_from": "The current owner of the item.",
          "_id": "The item to transfer.",
          "_to": "The new owner."
        }
      },
      "safeTransferFrom(address,address,uint256,bytes)": {
        "params": {
          "_from": "The current owner of the item.",
          "_id": "The item to transfer.",
          "_to": "The new owner.",
          "data": "Additional data with no specified format, sent in call to `_to`."
        }
      },
      "setApprovalForAll(address,bool)": {
        "params": {
          "_approved": "True if the operator is approved, false to revoke approval.",
          "_operator": "Address to add to the set of authorized operators."
        }
      },
      "totalSupply()": {
        "return": "A count of valid items tracked by this contract, where each one of  them has an assigned and queryable owner not equal to the zero address."
      },
      "transferFrom(address,address,uint256)": {
        "params": {
          "_from": "The current owner of the item.",
          "_id": "The item to transfer.",
          "_to": "The new owner."
        }
      }
    },
    "title": "ItemOwnership is the contract that implements all ERC721 standards. This means that the contract takes care of all that has to do with ownerships."
  },
  "userdoc": {
    "methods": {
      "approve(address,uint256)": {
        "notice": "Change or reaffirm the approved address for an item."
      },
      "balanceOf(address)": {
        "notice": "Count all items assigned to an owner."
      },
      "getApproved(uint256)": {
        "notice": "Get the approved address for a single item."
      },
      "getItemByID(address,uint256)": {
        "notice": "This function can be used to iterate through all items of a user, in combination with balanceOf(_owner). This is the only way to return all items an address owns."
      },
      "getItemByIndex(address,uint256)": {
        "notice": "This function can be used to iterate through all items of a user, in combination with balanceOf(_owner). This is the only way to return all items an address owns."
      },
      "getStatInformation()": {
        "notice": "Returns a map of map. This should be accessed as follows: [type][value], where type is weapon type, and value is either 0 (statIncrement for stat1), 1(statIncrement for stat2), 2 (Lowest roll for stat1), 3(Lowest roll for stat2)."
      },
      "isApprovedForAll(address,address)": {
        "notice": "Query if an address is an authorized operator for another address."
      },
      "onERC721Received(address,address,uint256,bytes)": {
        "notice": "Handle the receipt of an NFT"
      },
      "ownerOf(uint256)": {
        "notice": "Find the owner of an item."
      },
      "safeTransferFrom(address,address,uint256)": {
        "notice": "Transfers the ownership of an item from one address to another address."
      },
      "safeTransferFrom(address,address,uint256,bytes)": {
        "notice": "Transfers the ownership of an item from one address to another address."
      },
      "setApprovalForAll(address,bool)": {
        "notice": "Enable or disable approval for a third party (\"operator\") to manage  all of `msg.sender`'s assets."
      },
      "totalSupply()": {
        "notice": "Count items tracked by this contract."
      },
      "transferFrom(address,address,uint256)": {
        "notice": "Transfer ownership of an item -- THE CALLER IS RESPONSIBLE  TO CONFIRM THAT `_to` IS CAPABLE OF RECEIVING itemS OR ELSE  THEY MAY BE PERMANENTLY LOST."
      }
    }
  }
}