{
  "contractName": "ItemContract",
  "abi": [
    {
      "constant": true,
      "inputs": [
        {
          "name": "",
          "type": "uint256"
        }
      ],
      "name": "ownerOf",
      "outputs": [
        {
          "name": "",
          "type": "address"
        }
      ],
      "payable": false,
      "stateMutability": "view",
      "type": "function",
      "signature": "0x6352211e"
    },
    {
      "constant": true,
      "inputs": [],
      "name": "numberOfItems",
      "outputs": [
        {
          "name": "",
          "type": "uint256"
        }
      ],
      "payable": false,
      "stateMutability": "view",
      "type": "function",
      "signature": "0x842296d4"
    },
    {
      "constant": true,
      "inputs": [
        {
          "name": "",
          "type": "uint256"
        }
      ],
      "name": "itemApprovals",
      "outputs": [
        {
          "name": "",
          "type": "address"
        }
      ],
      "payable": false,
      "stateMutability": "view",
      "type": "function",
      "signature": "0xf39e70ba"
    },
    {
      "anonymous": false,
      "inputs": [
        {
          "indexed": false,
          "name": "owner",
          "type": "address"
        },
        {
          "indexed": false,
          "name": "id",
          "type": "uint256"
        },
        {
          "indexed": false,
          "name": "img",
          "type": "uint16"
        },
        {
          "indexed": false,
          "name": "stats",
          "type": "uint16[2]"
        },
        {
          "indexed": false,
          "name": "rarity",
          "type": "uint8"
        }
      ],
      "name": "MintItem",
      "type": "event",
      "signature": "0xaa234737db2bef9b290aa1de59bfddfca0b393699ffea5946aeddedc321705f8"
    },
    {
      "anonymous": false,
      "inputs": [
        {
          "indexed": false,
          "name": "from",
          "type": "address"
        },
        {
          "indexed": false,
          "name": "to",
          "type": "address"
        },
        {
          "indexed": false,
          "name": "id",
          "type": "uint256"
        }
      ],
      "name": "Transfer",
      "type": "event",
      "signature": "0xddf252ad1be2c89b69c2b068fc378daa952ba7f163c4a11628f55a4df523b3ef"
    },
    {
      "anonymous": false,
      "inputs": [
        {
          "indexed": false,
          "name": "from",
          "type": "address"
        },
        {
          "indexed": false,
          "name": "id",
          "type": "uint256"
        }
      ],
      "name": "Delete",
      "type": "event",
      "signature": "0xd5f8e8e971a13eefd39d2b144a79e89a46c05e862e0e165e058de3bbedb27b60"
    },
    {
      "constant": true,
      "inputs": [
        {
          "name": "_account",
          "type": "address"
        }
      ],
      "name": "balanceOf",
      "outputs": [
        {
          "name": "",
          "type": "uint256"
        }
      ],
      "payable": false,
      "stateMutability": "view",
      "type": "function",
      "signature": "0x70a08231"
    },
    {
      "constant": true,
      "inputs": [
        {
          "name": "_id",
          "type": "uint256"
        }
      ],
      "name": "getItem",
      "outputs": [
        {
          "name": "",
          "type": "uint256"
        },
        {
          "name": "",
          "type": "uint16"
        },
        {
          "name": "",
          "type": "uint16"
        },
        {
          "name": "",
          "type": "uint16"
        },
        {
          "name": "",
          "type": "uint8"
        }
      ],
      "payable": false,
      "stateMutability": "view",
      "type": "function",
      "signature": "0x3129e773"
    },
    {
      "constant": false,
      "inputs": [
        {
          "name": "_img",
          "type": "uint16"
        },
        {
          "name": "_stat1",
          "type": "uint16"
        },
        {
          "name": "_stat2",
          "type": "uint16"
        },
        {
          "name": "_rarity",
          "type": "uint8"
        },
        {
          "name": "_owner",
          "type": "address"
        }
      ],
      "name": "createItem",
      "outputs": [
        {
          "name": "",
          "type": "uint256"
        }
      ],
      "payable": false,
      "stateMutability": "nonpayable",
      "type": "function",
      "signature": "0xdeaa1070"
    },
    {
      "constant": false,
      "inputs": [
        {
          "name": "_owner",
          "type": "address"
        },
        {
          "name": "_id",
          "type": "uint256"
        }
      ],
      "name": "deleteItem",
      "outputs": [],
      "payable": false,
      "stateMutability": "nonpayable",
      "type": "function",
      "signature": "0x37a14668"
    },
    {
      "constant": false,
      "inputs": [
        {
          "name": "_account",
          "type": "address"
        },
        {
          "name": "_id1",
          "type": "uint256"
        },
        {
          "name": "_id2",
          "type": "uint256"
        },
        {
          "name": "_id3",
          "type": "uint256"
        }
      ],
      "name": "upgradeItems",
      "outputs": [],
      "payable": false,
      "stateMutability": "nonpayable",
      "type": "function",
      "signature": "0x2670c923"
    }
  ],
  "bytecode": "0x608060405234801561001057600080fd5b506112a6806100206000396000f3fe60806040526004361061008e576000357c0100000000000000000000000000000000000000000000000000000000900463ffffffff1680632670c923146100935780633129e7731461010257806337a146681461018b5780636352211e146101e657806370a0823114610261578063842296d4146102c6578063deaa1070146102f1578063f39e70ba1461038d575b600080fd5b34801561009f57600080fd5b50610100600480360360808110156100b657600080fd5b81019080803573ffffffffffffffffffffffffffffffffffffffff169060200190929190803590602001909291908035906020019092919080359060200190929190505050610408565b005b34801561010e57600080fd5b5061013b6004803603602081101561012557600080fd5b81019080803590602001909291905050506105f4565b604051808681526020018561ffff1661ffff1681526020018461ffff1661ffff1681526020018361ffff1661ffff1681526020018260ff1660ff1681526020019550505050505060405180910390f35b34801561019757600080fd5b506101e4600480360360408110156101ae57600080fd5b81019080803573ffffffffffffffffffffffffffffffffffffffff16906020019092919080359060200190929190505050610801565b005b3480156101f257600080fd5b5061021f6004803603602081101561020957600080fd5b8101908080359060200190929190505050610c26565b604051808273ffffffffffffffffffffffffffffffffffffffff1673ffffffffffffffffffffffffffffffffffffffff16815260200191505060405180910390f35b34801561026d57600080fd5b506102b06004803603602081101561028457600080fd5b81019080803573ffffffffffffffffffffffffffffffffffffffff169060200190929190505050610c59565b6040518082815260200191505060405180910390f35b3480156102d257600080fd5b506102db610ca8565b6040518082815260200191505060405180910390f35b3480156102fd57600080fd5b50610377600480360360a081101561031457600080fd5b81019080803561ffff169060200190929190803561ffff169060200190929190803561ffff169060200190929190803560ff169060200190929190803573ffffffffffffffffffffffffffffffffffffffff169060200190929190505050610cae565b6040518082815260200191505060405180910390f35b34801561039957600080fd5b506103c6600480360360208110156103b057600080fd5b810190808035906020019092919050505061103d565b604051808273ffffffffffffffffffffffffffffffffffffffff1673ffffffffffffffffffffffffffffffffffffffff16815260200191505060405180910390f35b610410611070565b600260008673ffffffffffffffffffffffffffffffffffffffff1673ffffffffffffffffffffffffffffffffffffffff168152602001908152602001600020600001600260008773ffffffffffffffffffffffffffffffffffffffff1673ffffffffffffffffffffffffffffffffffffffff1681526020019081526020016000206001016000868152602001908152602001600020548154811015156104b257fe5b906000526020600020906004020160806040519081016040529081600082015481526020016001820160009054906101000a900461ffff1661ffff1661ffff1681526020016002820160028060200260405190810160405280929190826002801561055a576020028201916000905b82829054906101000a900461ffff1661ffff16815260200190600201906020826001010492830192600103820291508084116105215790505b505050505081526020016003820160009054906101000a900460ff1660ff1660ff168152505090506105ce816020015160328360400151600060028110151561059f57fe5b6020020151016001846040015160016002811015156105ba57fe5b602002015101600185606001510189610cae565b506105d98585610801565b6105e38584610801565b6105ed8583610801565b5050505050565b6000806000806000806003600088815260200190815260200160002060009054906101000a900473ffffffffffffffffffffffffffffffffffffffff16905061063b611070565b600260008373ffffffffffffffffffffffffffffffffffffffff1673ffffffffffffffffffffffffffffffffffffffff168152602001908152602001600020600001600260008473ffffffffffffffffffffffffffffffffffffffff1673ffffffffffffffffffffffffffffffffffffffff16815260200190815260200160002060010160008a8152602001908152602001600020548154811015156106dd57fe5b906000526020600020906004020160806040519081016040529081600082015481526020016001820160009054906101000a900461ffff1661ffff1661ffff16815260200160028201600280602002604051908101604052809291908260028015610785576020028201916000905b82829054906101000a900461ffff1661ffff168152602001906002019060208260010104928301926001038202915080841161074c5790505b505050505081526020016003820160009054906101000a900460ff1660ff1660ff1681525050905080600001518160200151826040015160006002811015156107ca57fe5b6020020151836040015160016002811015156107e257fe5b6020020151846060015196509650965096509650505091939590929450565b8173ffffffffffffffffffffffffffffffffffffffff166003600083815260200190815260200160002060009054906101000a900473ffffffffffffffffffffffffffffffffffffffff1673ffffffffffffffffffffffffffffffffffffffff161415156108d7576040517f08c379a000000000000000000000000000000000000000000000000000000000815260040180806020018281038252601b8152602001807f54686174207573657220646f6e74206f776e20746865206974656d000000000081525060200191505060405180910390fd5b60016108e283610c59565b1115610ac157600260008373ffffffffffffffffffffffffffffffffffffffff1673ffffffffffffffffffffffffffffffffffffffff1681526020019081526020016000206000016001600260008573ffffffffffffffffffffffffffffffffffffffff1673ffffffffffffffffffffffffffffffffffffffff168152602001908152602001600020600001805490500381548110151561097f57fe5b9060005260206000209060040201600260008473ffffffffffffffffffffffffffffffffffffffff1673ffffffffffffffffffffffffffffffffffffffff168152602001908152602001600020600001600260008573ffffffffffffffffffffffffffffffffffffffff1673ffffffffffffffffffffffffffffffffffffffff168152602001908152602001600020600101600084815260200190815260200160002054815481101515610a2f57fe5b9060005260206000209060040201600082015481600001556001820160009054906101000a900461ffff168160010160006101000a81548161ffff021916908361ffff1602179055506002820181600201906002610a8e9291906110a6565b506003820160009054906101000a900460ff168160030160006101000a81548160ff021916908360ff1602179055509050505b600260008373ffffffffffffffffffffffffffffffffffffffff1673ffffffffffffffffffffffffffffffffffffffff168152602001908152602001600020600001805480919060019003610b1691906110f1565b50600260008373ffffffffffffffffffffffffffffffffffffffff1673ffffffffffffffffffffffffffffffffffffffff1681526020019081526020016000206001016000828152602001908152602001600020600090556003600082815260200190815260200160002060006101000a81549073ffffffffffffffffffffffffffffffffffffffff0219169055600160008154809291906001900391905055507fd5f8e8e971a13eefd39d2b144a79e89a46c05e862e0e165e058de3bbedb27b608282604051808373ffffffffffffffffffffffffffffffffffffffff1673ffffffffffffffffffffffffffffffffffffffff1681526020018281526020019250505060405180910390a15050565b60036020528060005260406000206000915054906101000a900473ffffffffffffffffffffffffffffffffffffffff1681565b6000600260008373ffffffffffffffffffffffffffffffffffffffff1673ffffffffffffffffffffffffffffffffffffffff168152602001908152602001600020600001805490509050919050565b60015481565b60008060008154809291906001019190505550610cc9611070565b60806040519081016040528060005481526020018861ffff16815260200160408051908101604052808961ffff1661ffff1681526020018861ffff1661ffff1681525081526020018560ff168152509050600260008473ffffffffffffffffffffffffffffffffffffffff1673ffffffffffffffffffffffffffffffffffffffff16815260200190815260200160002060000181908060018154018082558091505090600182039060005260206000209060040201600090919290919091506000820151816000015560208201518160010160006101000a81548161ffff021916908361ffff160217905550604082015181600201906002610dcc929190611123565b5060608201518160030160006101000a81548160ff021916908360ff1602179055505050600260008573ffffffffffffffffffffffffffffffffffffffff1673ffffffffffffffffffffffffffffffffffffffff1681526020019081526020016000206001016000805481526020019081526020016000208190555082600360008054815260200190815260200160002060006101000a81548173ffffffffffffffffffffffffffffffffffffffff021916908373ffffffffffffffffffffffffffffffffffffffff1602179055506001600081548092919060010191905055507faa234737db2bef9b290aa1de59bfddfca0b393699ffea5946aeddedc321705f8836000548960408051908101604052808b61ffff1661ffff1681526020018a61ffff1661ffff1681525088604051808673ffffffffffffffffffffffffffffffffffffffff1673ffffffffffffffffffffffffffffffffffffffff1681526020018581526020018461ffff1661ffff16815260200183600260200280838360005b83811015610f6a578082015181840152602081019050610f4f565b505050509050018260ff1660ff1681526020019550505050505060405180910390a17fddf252ad1be2c89b69c2b068fc378daa952ba7f163c4a11628f55a4df523b3ef600084600054604051808473ffffffffffffffffffffffffffffffffffffffff1673ffffffffffffffffffffffffffffffffffffffff1681526020018373ffffffffffffffffffffffffffffffffffffffff1673ffffffffffffffffffffffffffffffffffffffff168152602001828152602001935050505060405180910390a160005491505095945050505050565b60046020528060005260406000206000915054906101000a900473ffffffffffffffffffffffffffffffffffffffff1681565b60a06040519081016040528060008152602001600061ffff1681526020016110966111c0565b8152602001600060ff1681525090565b826002600f016010900481019282156110e05791600f016010900482015b828111156110df5782548255916001019190600101906110c4565b5b5090506110ed91906111e2565b5090565b81548183558181111561111e5760040281600402836000526020600020918201910161111d9190611213565b5b505050565b826002600f016010900481019282156111af5791602002820160005b8382111561117f57835183826101000a81548161ffff021916908361ffff160217905550926020019260020160208160010104928301926001030261113f565b80156111ad5782816101000a81549061ffff021916905560020160208160010104928301926001030261117f565b505b5090506111bc91906111e2565b5090565b6040805190810160405280600290602082028038833980820191505090505090565b61121091905b8082111561120c57600081816101000a81549061ffff0219169055506001016111e8565b5090565b90565b61127091905b8082111561126c576000808201600090556001820160006101000a81549061ffff021916905560028201600061124f9190611273565b6003820160006101000a81549060ff021916905550600401611219565b5090565b90565b506000905556fea165627a7a7230582032d48a73e8dd015dbb98222e85fe68eb9745e86b0daab67a648570fa4a1983b40029",
  "source": "pragma solidity ^0.5.0;\r\n\r\nimport \"./ERC721.sol\";\r\n\r\n/// @title ItemBase contract. Holds all types and events\r\n/// @author Håvard Pedersen\r\ncontract ItemContract{\r\n\r\n    /*What is required:\r\n        Struct Item\r\n        Struct User\r\n        variable ids\r\n        variable numberOfItems\r\n        Users: Map Address -> User\r\n        ownerOf: Map Item id -> Address\r\n        itemApprovals: Map Item id -> address\r\n        Function BalanceOf\r\n        Function transfer\r\n        Function createItem\r\n        Function deleteItem\r\n        Function UpgradeItem\r\n    */\r\n\r\n\r\n\r\n\r\n\r\n\r\n\r\n     /*** EVENTS ***/\r\n\r\n    ///@dev mintEvent is called whenever a new item is created. This includes createItem or \r\n    /// upgradeItem.\r\n    event MintItem(address owner, uint id, uint16 img, uint16[2] stats, uint8 rarity);\r\n\r\n\r\n    ///@dev In line with ERC721 standards, an event that is fired off any time an item\r\n    /// changes owner. This will also be called right after a new item is created, to assign it\r\n    /// to its rightfull owner.\r\n    ///@param id This is the id of the item that is being transferred.\r\n    event Transfer(address from, address to, uint id);\r\n\r\n\r\n    ///@dev Delete is an event that is initiated when an item is deleted from address\r\n    event Delete(address from, uint id);\r\n\r\n\r\n\r\n\r\n\r\n    /*** TYPES ***/\r\n\r\n    ///@dev The struct for the item token. Each item is an instance of this struct.\r\n    struct Item {\r\n        uint id;\r\n        uint16 img; // (000 000) = (TYPE INDEX)\r\n        uint16[2] stats; //[Damage/defense, HP/aps]\r\n        uint8 rarity; //1-4 => common, rare, epic, legendary      \r\n        /*\r\n        img type:\r\n        001 - amulet\r\n        002 - helmet\r\n        003 - talisman\r\n        004 - weapon\r\n        005 - body \r\n        006 - shield\r\n        */\r\n    }\r\n\r\n\r\n    ///@dev The user struct. Stores Users items an a map of items to index\r\n    struct User{\r\n        Item[] items;\r\n        mapping(uint => uint) indexOfItem;\r\n    }   \r\n\r\n\r\n\r\n\r\n\r\n    /*** STORAGE ***/\r\n    \r\n\r\n    ///@dev stores current highest id of item\r\n    uint ids; \r\n    \r\n\r\n    ///@dev store current amount of items\r\n    uint public numberOfItems;\r\n    \r\n\r\n    ///@dev Maps an account address to a user-struct for that user\r\n    mapping(address => User) internal users; \r\n\r\n\r\n    ///@dev maps item id to its owner\r\n    mapping(uint => address) public ownerOf;\r\n\r\n\r\n    ///@dev stores which account address an item is approved for\r\n    mapping(uint => address) public itemApprovals;\r\n\r\n\r\n\r\n\r\n\r\n    /*** Functions ***/\r\n\r\n    ///@dev Returns how many items an account has, given account address\r\n    ///@param _account the account in question\r\n    function balanceOf(address _account) public view returns (uint){\r\n        return users[_account].items.length;\r\n    }\r\n    \r\n\r\n    ///@dev Function to return an item given an item\r\n    ///@param _id Id of the item in question\r\n    ///@return returns an array of the stats of the item\r\n    ///@return [id, img, stats1, stats2, rarity]\r\n    function getItem(uint _id) external view\r\n    returns (uint, uint16, uint16, uint16, uint8 ){\r\n        address itemOwner = ownerOf[_id];\r\n        Item memory item = users[itemOwner].items[users[itemOwner].indexOfItem[_id]];\r\n        return (item.id, item.img, item.stats[0], item.stats[1], item.rarity); \r\n    }\r\n\r\n\r\n    ///@dev Function to mint a new item, store it in the owners array and send out events.\r\n    ///@param _img the int that stores both item type and logic for what image to use.\r\n    ///@param _stat these two are the stats of the items, where they should be assigned to\r\n    /// stat[] as follows: [_stat1, _stat2].\r\n    ///@param _rarity the rarity of the new item\r\n    ///@param _owner the address of the lucky owner of this newly minted item\r\n    ///@return returns the id of the new item\r\n    function createItem(\r\n        uint16 _img,\r\n        uint16 _stat1, \r\n        uint16 _stat2, \r\n        uint8 _rarity,\r\n        address _owner\r\n    ) public returns (uint){\r\n        //Increment highest id in game. \r\n        //This will be the id of the new item\r\n        ids ++;\r\n        \r\n        //Locally store an item-struct with the given params\r\n        Item memory item = Item(ids, _img, [_stat1, _stat2], _rarity);\r\n\r\n        //Push item onto owners list of items and store the index to the item\r\n        users[_owner].indexOfItem[ids] = users[_owner].items.push(item);\r\n\r\n        //Set owner of item\r\n        ownerOf[ids] = _owner;\r\n\r\n        //Increment how many items currently exists\r\n        numberOfItems++;\r\n\r\n        //Trigger mintItem-event to let listeners know new item was created\r\n        emit MintItem(\r\n            _owner,\r\n            ids,\r\n            _img,\r\n            [_stat1, _stat2],\r\n            _rarity\r\n        );\r\n        emit Transfer(address(0), _owner, ids);\r\n        return ids;\r\n    }\r\n\r\n    ///@dev This function is used to remove an item from the game\r\n    ///@param _owner this is not strickly necessary, as owner could easily be found.\r\n    /// But passing it as a parameter adds an extra level of security to such a dire function.\r\n    function deleteItem(address _owner, uint _id) public{\r\n        //Check that the address given owns the item\r\n        require(ownerOf[_id] == _owner, \"That user dont own the item\");\r\n\r\n        //remove item from users list of items\r\n        if(balanceOf(_owner) > 1){\r\n            users[_owner].items[users[_owner].indexOfItem[_id]] = users[_owner].items[users[_owner].items.length-1];\r\n        }\r\n        users[_owner].items.length--;\r\n\r\n        //remove item from list of item-indexes\r\n        delete users[_owner].indexOfItem[_id];\r\n        \r\n        //Remove map-element in ownerOf\r\n        delete ownerOf[_id];\r\n        \r\n        //Let it be known that an item has been removed\r\n        numberOfItems--;\r\n\r\n        //Set of event\r\n        emit Delete(_owner, _id);\r\n    }\r\n\r\n\r\n    ///@dev this is the function called when upgrading items\r\n    function upgradeItems(address _account, uint _id1, uint _id2, uint _id3) public {\r\n        \r\n\r\n        Item memory itemBeingUpgraded = users[_account].items[users[_account].indexOfItem[_id1]];\r\n        \r\n        createItem(            \r\n            itemBeingUpgraded.img,\r\n            itemBeingUpgraded.stats[0] + 50,\r\n            itemBeingUpgraded.stats[1] + 1, \r\n            itemBeingUpgraded.rarity + 1,\r\n            _account\r\n        );\r\n        deleteItem(_account, _id1);\r\n        deleteItem(_account, _id2);\r\n        deleteItem(_account, _id3);\r\n    }\r\n}",
  "sourcePath": "F:/coding/test/contracts/ItemContract.sol",
  "compiler": {
    "name": "solc",
    "version": "0.5.0+commit.1d4f565a.Emscripten.clang"
  },
  "schemaVersion": "3.0.1",
  "updatedAt": "2019-03-14T13:41:01.754Z",
  "devdoc": {
    "author": "Håvard Pedersen",
    "methods": {
      "balanceOf(address)": {
        "params": {
          "_account": "the account in question"
        }
      },
      "createItem(uint16,uint16,uint16,uint8,address)": {
        "return": "returns the id of the new item"
      },
      "getItem(uint256)": {
        "return": "[id, img, stats1, stats2, rarity]"
      },
      "upgradeItems(address,uint256,uint256,uint256)": {
        "details": "this is the function called when upgrading items"
      }
    }
  },
  "userdoc": {
    "methods": {
      "deleteItem(address,uint256)": {
        "notice": "But passing it as a parameter adds an extra level of security to such a dire function."
      }
    }
  }
}